:020000040802F0
:10000000603F00204501020831480208153202080D
:1000100005470208091602083F78020800000000A0
:10002000000000000000000000000000AB5D0208BE
:10003000F122020800000000695202085D01020876
:100040005F0102085F0102085F0102085F01020808
:100050005F0102085F0102085F0102085F010208F8
:100060005F0102085F0102085F0102085F010208E8
:100070005F0102085F0102085F0102085F010208D8
:100080005F0102085F0102085F0102085F010208C8
:10009000E57702085F0102085F0102085F010208BC
:1000A0005F0102085F0102085F0102085F010208A8
:1000B000B5690208A96B02085F0102086D380208E1
:1000C000653802087D380208753802085F010208A9
:1000D0005F0102085F0102085F0102085F01020878
:1000E0005F0102085F0102085F0102085F01020868
:1000F0005F0102085F0102085F0102085F01020858
:100100005F0102085F010208B16D02085F01020889
:100110005F0102085F0102085F0102085F01020837
:100120005F0102085F0102085F0102085F01020827
:10013000DFF80CD000F03EFC004800477D94020838
:10014000603F00200648804706480047FEE7FEE77C
:10015000FEE7FEE7FEE7FEE7FEE7FEE7FEE7FEE777
:100160003567020831010208F0B480EA0102D20FBB
:100170004300B3EB410F02D20346084619464B0039
:1001800042D0C30DDDB2C1F3C7542C1B202C35DA8D
:10019000C1F3160141F4000502B16D42C4F120061D
:1001A00005FA06F125412844B3EBD05F23D0C2B154
:1001B000012CA0EBC35009DCF0BC4FF0004202EA76
:1001C000C35200F50000DBB200F044BB400000F178
:1001D000807000EBC350A0F1807040EAD1704900FC
:1001E00009E0490841EAC071A0EBC35000F50000E6
:1001F000400800EBC350F0BC00F023BB5142012388
:1002000003EB4101801AF6E7F0BC704781F0004132
:10021000AAE780F00040A7E780EA010210B502F0EB
:100220000042400026D04B0023D04FEA106101EB82
:100230001361C0F35600C3F3560340F4000043F4C7
:100240000003A0FB0330A1F17F014FEA00401C0432
:1002500001D000F1010050EA134001D44000491ED2
:10026000C3B20C0604EBD010401C4008802B02D017
:1002700003E0002010BD20F00100002900DA00207A
:10028000104310BD80EA010202F0004330B430F0A8
:10029000004221F0004015D0A0B1C0F3C755C2F311
:1002A000C754C2F31601C0F31600651B41F40001E8
:1002B00040F400007D35814201D36D1C00E049000F
:1002C000002D02DA30BC002070474FF400020024F9
:1002D000814201D3091A144352084FEA4101F7D170
:1002E00051B1814202D14FF0004105E002D24FF0FE
:1002F000010101E06FF0010104EBC55030BC18446E
:1003000000F09FBA2DE9FE4F074681EA0300C00FB7
:100310000E46019021F0004123F00044B81AA1419B
:1003200005D23846314617461E460B46024623F094
:100330000040104304D13846314603B0BDE8F08F89
:10034000350DC5F30A00C3F30A510290401A00901C
:10035000402868DAC3F3130040F4801B01989246EA
:1003600020B10023D2EB030A63EB0B0B0098594634
:10037000C0F14002504600F033FA80460C46504629
:100380005946009A00F04BFAC0197141EF1785EAFF
:1003900011533B4340D0019A52B3009A012A11DC19
:1003A0000022801A4FF0004361EB055103EA055328
:1003B0008018CDE9002341F580114246234600F024
:1003C0008FFABAE72E050025401B61EB06014019A4
:1003D00041F58012001852412818A6F5001343EB8E
:1003E000020140EAD470294318EB0808644113E085
:1003F00064084FEA38084FF0000244EAC0744FEA3C
:100400000553801A61EB0301801841F580114908FA
:100410004FEA3000801859414246234603B0BDE8F8
:10042000F04F00F050BA0198012240000023D0EBB9
:10043000020263EBE07301984FEAE074381A66EB4E
:100440000401EBE783F000435CE781F0004159E7EA
:100450002DE9FE4F81EA030421F0004504F0004439
:1004600023F000414FF0000A009450EA050302D047
:1004700052EA010304D10020014603B0BDE8F08F29
:10048000C1F30A53C5F30A541C44A0FB02B3C5F3DD
:10049000130545F4801CC1F3130141F480180CFBD3
:1004A000023300FB083EA4F2F334810A930A41EAC6
:1004B0008C5143EA88530194A1FB03474FEA9C25E2
:1004C00005FB03734FEA982601FB06373D05260519
:1004D00045EA1435BBEB06016EEB0503850E920E63
:1004E00045EA8C1542EA8812A5FB0206261E67EB38
:1004F00000070C0D44EA0334A41947EB1350C1F371
:1005000013064FF0000319464FEA033343EA16532C
:1005100043EA0403019CE5FB0201A4F10C040294EC
:10052000009C4FEA0632CDE900A400F0D9F9A4E717
:100530002DE9F04D81EA030404F0004B21F000475F
:1005400014464FF0000A23F0004150EA070220D081
:1005500054EA01021DD0C1F30A550246C1F313004B
:10056000C7F30A56C7F3130340F4801143F4801312
:10057000A6EB0508101BD64608F2FD3873EB010008
:1005800002D308F1010801E092185B41B8F1000FB5
:1005900003DA00200146BDE8F08D00204FF48015FD
:1005A000064607460EE0B2EB040C73EB010C04D3D5
:1005B000121B064363EB01032F436D084FEA300023
:1005C00092185B4150EA050CEDD152EA030012D0BB
:1005D00082EA040083EA0105284303D100224FF098
:1005E000004308E0101B8B4102D20122002302E0ED
:1005F0006FF0010253101AEB060047EB085110EBA5
:100600000A0041EB0B01BDE8F04D00F05CB9C10FF1
:1006100080EAE0700844CA079623002100F01AB966
:1006200096230022114600F015B90EB5C10F80EADD
:10063000E0700844CA07002140F233438DE80E0001
:100640000A460B4600F04CF903B000BD0EB540F26F
:10065000334102910021CDE900110A460B4600F01A
:100660003FF903B000BD00F0004220F00040C10D92
:10067000C0F3160040F400007F2901DA0020704723
:10068000962903DCC1F19601C84001E09639884003
:10069000002AF4D04042704720F00040C10DC0F362
:1006A000160040F400007F2901DA002070479629E7
:1006B00003DCC1F19601C840704796398840704705
:1006C00070B5C1F30A5201F000450024C1F31301D3
:1006D00040F2FF3341F480119A4201DA002070BDEC
:1006E00040F233439A42A2F2334203DC524200F01A
:1006F00086F800E090402C43F1D0404270BDC1F339
:100700000A52C1F3130140F2FF3341F480119A42BF
:1007100001DA0020704740F233439A42A2F233429A
:1007200002DC524200F06BB89040704700F000428B
:1007300030F000400DD0C10D01F5607142EA015169
:100740000022C0F31600520742EAD00240071143CC
:10075000704700200146704730B5002904DB4FF098
:100760000044404264EB0101002B04DB4FF00044E5
:10077000524264EB03038B4208BF824230BD00004B
:1007800001F0004230B421F0004150EA010306D0EC
:100790000B0DA3F56073C1F31301002B02DC30BC19
:1007A00000207047440F44EAC104C100A01830BCC7
:1007B00000EBC35000F045B8002801DBC0F1004059
:1007C000002901DBC1F1004181427047002801DBB3
:1007D000C0F10040002901DBC1F1004188427047AF
:1007E000202A04DB203A00FA02F1002070479140F1
:1007F000C2F1200320FA03F3194390407047202AE6
:1008000004DB203A21FA02F00021704721FA02F3BA
:10081000D040C2F120029140084319467047202A77
:1008200006DBCB17203A41FA02F043EAE071704749
:1008300041FA02F3D040C2F1200291400843194628
:1008400070470029A8BF7047401C490008BF20F02E
:100850000100704710B4B0FA80FC00FA0CF050EAC6
:10086000010404BF10BC704749B1CCF1200421FA47
:1008700004F411FA0CF118BF012121430843A3EB42
:100880000C01CB1D0106000A002BBEBF002010BCCE
:10089000704700EBC35010440029A4BF10BC704740
:1008A000401C490008BF20F0010010BC7047420006
:1008B00005D0C0F3C7525242914201DC002070477C
:1008C00000EBC150704710B5002B08DA401C41F115
:1008D000000192185B411A4301D120F0010010BDC4
:1008E0002DE9F04D92469B4611B1B1FA81F202E03A
:1008F000B0FA80F220329046FFF772FF06460F46AC
:1009000040EA0A0041EA0B0152465B46084303D124
:1009100030463946BDE8F08D194652EA010015D03F
:10092000C8F140025046FFF76AFF04460D465046A4
:1009300059464246FFF754FF084301D0012000E02A
:100940000020044345EAE07526432F430A984FEA06
:10095000D625A0EB08000A304FEA46534FF00002BC
:1009600045EA47554FEAD72402D500200146D1E792
:10097000010550196141DDE9084500196941BDE8EB
:10098000F04DA0E770B521F0004303430CD0C1F354
:100990000A540026D4EB060566EB0603D417AD1AFD
:1009A000A34102DB0020014670BD001C41EB025157
:1009B00070BD0000064C074D06E0E06840F0010302
:1009C00094E8070098471034AC42F6D3FFF7B4FB25
:1009D00090A60208B0A60208F0B4002802DCF0BC21
:1009E00000207047C0F3C751C0F3160040F4000068
:1009F000CA0701D14000491E3F2202EB61050022D7
:100A000011464FF4000626FA01F31344D418844229
:100A100001D8001B1A464000491C1729F3DD51007C
:100A2000814202D24FF0FF3100E0002102EBC550BD
:100A3000F0BCFFF706BF70B501EB020410F8015BD4
:100A400015F0070301D110F8013B2A1106D110F867
:100A5000012B03E010F8016B01F8016B5B1EF9D16B
:100A60002B0705D40023521E0FD401F8013BFAE7EF
:100A700010F8013B02F10202A1EB030303E013F8BB
:100A8000015B01F8015B521EF9D5A142D6D30020CB
:100A900070BD000008B50121084604F0F1FD0121F8
:100AA0004FF4017004F01CFE4FF4004004F0DCFD34
:100AB0001020ADF8000000208DF8030069460248C0
:100AC00002F016F908BD00000008014010B5FFF75C
:100AD000E1FF00F001F810BD00B591B0334801F01E
:100AE0008DF8334806903348079000200890012085
:100AF000099000200A9080200B9040000C9080000C
:100B00000D9020200E9000020F900020109006A95A
:100B1000264801F019F90121244801F063F800206A
:100B2000019001208DF808008DF809004FF4602035
:100B300003900020049001208DF8140001A91C48A6
:100B40004C3800F06FF805230122042118484C3876
:100B500000F090F8002116484C3800F043F80121CD
:100B600013484C3800F033F8012111484C3800F09C
:100B700023F80F484C3800F0D9F800BF0C484C3827
:100B800000F045F80028F9D109484C3800F0DEF8AB
:100B900000BF07484C3800F030F80028F9D1012197
:100BA00003484C3800F0C7F811B000BD08000240FF
:100BB0004C2401403201002021B1826842F0010240
:100BC000826003E0826822F001028260704721B1F6
:100BD000826842F48072826003E0826822F480724C
:100BE0008260704721B1826842F48012826003E023
:100BF000826822F4801282607047014600208A6871
:100C000012F0040F01D0012000E0002070470146DF
:100C100000208A6812F0080F01D0012000E00020B7
:100C20007047000030B502460020002350680F4C8A
:100C300020400D790C6844EA0524204350609068F8
:100C40000B4C2040D1E902542C434D7944EA450431
:100C500020439060D06A20F470000C7C641EE4B2E3
:100C6000234340EA0350D06230BD0000FFFEF0FF96
:100C7000FDF7F1FFF0B504460D4600200021092DD7
:100C800011DDE068A5F10A0606EB4607072606FA1D
:100C900007F18843A5F10A0606EB460603FA06F1BA
:100CA0000843E0600CE0206905EB4507072606FADB
:100CB00007F1884305EB450603FA06F10843206176
:100CC000072A0FDA606B561E06EB86071F2606FA08
:100CD00007F18843561E06EB860605FA06F108431F
:100CE000606322E00D2A0FDA206BD61F06EB860721
:100CF0001F2606FA07F18843D61F06EB860605FA7B
:100D000006F10843206310E0E06AA2F10D0606EB4D
:100D100086071F2606FA07F18843A2F10D0606EBA7
:100D2000860605FA06F10843E062F0BD816841F0ED
:100D300008018160704721B1826842F4A00282609C
:100D400003E0826822F4A00282607047816841F06B
:100D500004018160704700002DE9F04F93B0924A82
:100D600011691069FFF758FA06468F4AD168D068B2
:100D7000FFF752FA07468C4A91689068FFF74CFAE1
:100D800039460990FFF7F0F904463146FFF7ECF9D0
:100D9000054604F08FFA0D90834988680D99FFF796
:100DA0003BFA12908049C8680D99FFF735FA119007
:100DB0007D4908690D99FFF72FFA10907B4907A824
:100DC00004F008FC07A807C80A900B910C920B9935
:100DD0001098FFF721FA04460C991198FFF71CFAB6
:100DE00005462146FFF712FA80460C991298FFF744
:100DF00013FA04460A991098FFF70EFA05462146A1
:100E0000FFF704FA81460A991198FFF705FA04469C
:100E10000B991298FFF700FA05462146FFF7F6F9FD
:100E2000824663494046FFF7F7F904466148016886
:100E30002046FFF799F95F4908605D494846FFF78A
:100E4000EBF904465C4801682046FFF78DF95A49E2
:100E5000086057495046FFF7DFF9044657480168D4
:100E60002046FFF781F95549086052480068FFF7AE
:100E70005DFC04460D46404606F044FD5049019095
:100E8000FFF7CAF907464146FFF7C6F90646FFF7DE
:100E90004DFCCDE904014449C86BFFF747FC064609
:100EA000484A494BFFF7D4FACDE90201DDE90423B2
:100EB000FFF728FA22462B46CDE90601FFF722FA72
:100EC000CDE90801FFF75CFC83463B480068FFF76B
:100ED0002DFCCDE90601484606F014FD3849019085
:100EE000FFF79AF907464946FFF796F90646FFF7D6
:100EF0001DFC04460D462C49086CFFF717FC0646FE
:100F0000304A314BFFF7A4FA22462B46CDE90201C5
:100F1000FFF7F8F9CDE90401DDE90623FFF7F2F95F
:100F2000CDE90801FFF72CFC0F9024480068FFF77B
:100F3000FDFBCDE90601504606F0E4FC2049019096
:100F4000FFF76AF907465146FFF766F90646FFF7CD
:100F5000EDFB04460D461449486CFFF7E7FB0646D7
:100F6000184A194BFFF774FA22462B46CDE90201C5
:100F7000FFF7C8F9CDE90401DDE90623FFF7C2F95F
:100F8000CDE90801FFF7FCFB0E9010480090594690
:100F90000648DDE90E3204F0F2F9044804F0B2F933
:100FA00013B0BDE8F08F0000081C0020A002002054
:100FB0006F12033ABC020020C0020020C4020020CD
:100FC0003333333FD9999DA0A8C7413F6F12833A6D
:100FD0002DE9F04F8DB000F03DF99248FFF7BCFECF
:100FE0009149904804F05CFA8F494868FFF79EFBEE
:100FF000064608F03BFB0446FFF7C2FB0B908A490C
:101000000868FFF793FB064608F030FB0446FFF73D
:10101000B7FB0C9084494868FFF788FB064607F049
:1010200019FE0446FFF7ACFB0A907F490868FFF7FA
:101030007DFB064607F00EFE0446FFF7A1FB099074
:101040007A48C07800287DD178484078002879D047
:101050007749B1F90400FFF7DAFA07460A99FFF772
:10106000DBF806460C99FFF7D7F804467049B1F94A
:101070000200FFF7CCFA81460C99FFF7CDF88046C5
:101080000B99FFF7C9F806466949B1F90000FFF767
:10109000BEFA80460999FFF7BFF807463146FFF7C9
:1010A00063F805462146FFF7B1F808906049B1F9A9
:1010B0000400FFF7ACFA06460B99FFF7ADF80446BB
:1010C0005B49B1F90200FFF7A2FA06460A99FFF759
:1010D000A3F805462146FFF747F807900898FFF761
:1010E00025FB804689460798FFF720FB06464246C7
:1010F0004B4607F085FB044601F0FCF881F0004107
:101100008246FFF73DFB06904A49486CFFF70EFB0D
:101110000446494A494BFFF79BF9064600224FF027
:101120008043FFF795F94FF06042454BCDE9000150
:10113000FFF78EF9804601F0DDF882468B463A498A
:10114000886800E048E0FFF7F1FA52465B46CDE9D7
:101150000201FFF7D7F8CDE90401FFF711FB32498F
:10116000886038490698FFF731FB05D22E49886818
:101170003549FFF721FB0AD333490698FFF71CFBDB
:1011800019D2294988682F49FFF720FB13D22F492C
:101190000698FFF741F806462348806880F000452E
:1011A0002B492846FFF738F804463146FEF7DCFFA6
:1011B0001D4988600FE025490698FFF72DF8044681
:1011C000194988682249FFF727F805462146FEF7A6
:1011D000CBFF154988600BE013498868FFF7A6FA32
:1011E000064601F087F80446FFF7CAFA0E49886000
:1011F0000D494868FFF79AFA064601F07BF8044665
:10120000FFF7BEFA084948600868FFF78FFA0446FE
:1012100001F070F80646FFF7B3FA034908600DB015
:10122000BDE8F08FA0020020D81D0020D61C0020B1
:10123000C8020020081C0020D9999DA0A8C7413FE2
:101240004D62503F0000B4420000B4C26F12033B35
:10125000EE7C7F3F2DE9FF4102F0FAFF3C4801F0B0
:101260001DFF3C49B1F90000FFF7DFF906460F46C4
:1012700005203949394BCDE90030394B394ACDE9A0
:1012800002103046394602F053FD0446FFF778FA63
:1012900030498860B1F90200FFF7C7F906460F46EA
:1012A00005202D492D4BCDE900302D4B28332D4AFB
:1012B0002832CDE902103046394602F039FD0446A5
:1012C000FFF75EFA2349C860B1F90400FFF7ADF9F2
:1012D00004460D4605202049204BCDE90030204B27
:1012E0005033204A5032CDE902102046294602F000
:1012F0001FFD0646FFF744FA1649086108461A4AD8
:10130000C16D1A48006802F089FF1249C863084697
:10131000C06B164908600F48134A016E14480068F4
:1013200002F07CFF01460B480164006C1049086024
:1013300008480D4A416E0F48006802F06FFF0146F1
:1013400004484164406C0B490860BDE8FF8100001F
:10135000C8020020081C0020780200205002002053
:10136000601D0020E81C0020CBA1C53EB00200207B
:10137000B4020020B80200202DE9FE4F9249086C0B
:10138000FFF7D4F98246914A914BFFF761F8804606
:1013900089469049486AFFF7C9F9064642464B46D6
:1013A000FFF750F80446FFF7EBF902908949886A85
:1013B0000299FEF731FF01468648C1630146486B3A
:1013C0000299FEF7D1FE0146824841630146824AF6
:1013D000486B824907F094FC01467E484163014610
:1013E000C86A7F49FEF74EFF04467A48416B2046A3
:1013F000FEF712FF014677480164734A116CD06C06
:10140000FEF704FF04467348016B2046FEF704FF15
:101410000146704841640246116CD06BFEF7A4FE91
:1014200004466C48416C2046FEF79EFE0146694822
:1014300081646548016CC1640146C86BFFF776F9A9
:101440008246624A624BFFF703F88046894661494B
:10145000C86EFFF76BF9064642464B46FEF7F2FFB1
:101460000446FFF78DF901905A49086F0199FEF77C
:10147000D3FE01465748C0F884100146C86F019951
:10148000FEF772FE01465348C1670146524AC86FD3
:10149000524907F035FC01464E48C1670146486F86
:1014A0004F49FEF7EFFE04464A48C16F2046FEF75B
:1014B000B3FE01464748C0F88810434AD16B906C90
:1014C000FEF7A4FE04464348816F2046FEF7A4FEC3
:1014D00001464048C0F88C100246D2F88810D2F875
:1014E0008400FEF741FE04463A48D0F88C102046AE
:1014F000FEF73AFE01463748C0F890103248C16BFB
:1015000081640146486CFFF711F980462F4A304B41
:10151000FEF79EFF04460D462E49D1F8B400FFF7B2
:1015200005F9064622462B46FEF78CFF8246FFF75A
:1015300027F900902749D1F8B8000099FEF76CFE12
:1015400001462448C0F8CC100146D1F8C4000099E7
:10155000FEF70AFE01461F48C0F8C41001461E4AA5
:10156000D1F8C4001D4907F0CBFB01461948C0F86B
:10157000C4100246D2F8C410D2F8BC00FEF74CFEEC
:1015800001461448C0F8D0100F4A516C106DFEF798
:101590003DFE04460F48D0F8C0102046FEF73CFE42
:1015A00001460C48C0F8D4100246D2F8D410D2F844
:1015B000CC00FEF7D9FD01460648C0F8D810024815
:1015C000416C0165BDE8FE8F081C002030689DC895
:1015D000FE3F9F3F701E00200000A0C10000A04100
:1015E0000000204108B506480649086040F2055051
:1015F0000090012269460248103804F04FFB08BDF4
:101600000000020808ED00E000BFFEE70146CAB294
:101610000B1243EA022070472DE9FF416D48007824
:1016200002287DDB6C4A11680098FEF7EFFD064644
:10163000684908693146FEF797FD664908610A4620
:1016400051691069FFF7C2F803D26248416901612C
:101650000FE06048406980F000455E480169284617
:10166000FFF7B4F805D25B48406980F00041594863
:101670000161584A11699068FEF7CEFD054655494B
:1016800048683146FEF7C8FD80462946FEF76CFDE6
:1016900050494862504A51680198FEF7B7FD074625
:1016A0004C49886D3946FEF75FFD4A4988650A4610
:1016B000D16D906DFFF78AF803D24648C16D816500
:1016C0000FE04448C06D80F000454248816D2846D7
:1016D000FFF77CF805D23F48C06D80F000413D48DF
:1016E00081653C4A916D106DFEF796FD05463949BE
:1016F000C86C3946FEF790FD80462946FEF734FD5A
:101700003449C866344A91680298FEF77FFD054661
:101710003249FFF75BF80BD32F4A9168029800E03B
:101720004CE0FEF773FD05462D49FFF745F834D22E
:1017300000210298FFF74AF814D22749886800214F
:10174000FFF73AF80ED225490298FEF75FFD0546ED
:10175000214881682248FEF759FD80462946FEF758
:1017600003FD044600210298FFF726F81BD21A4910
:1017700088680021FFF72AF815D218490298FEF769
:10178000F3FC0546144881681448FEF73FFD804687
:101790002946FEF7E9FC044605E00F4A91680298E5
:1017A000FEF734FD04460B49D1F894002146FEF7BC
:1017B00033FD0849C1F8B4000020087005480078DE
:1017C000401C04490870FFF7D7FD02F09DFFBDE8FB
:1017D000FF810000701E0020D81D0020000034434F
:1017E000000034C310B5002411E18F48008800F0D8
:1017F0000F008E4908700846007800287ED18C487A
:1018000000688C4908800846008800F030008A494A
:1018100008808848008800F4405086490880844940
:10182000096889B24BF6BF7201EA020080F40050E9
:1018300080F0200040F4004141F080017C4A1160BA
:101840007948008810F0100F34D11046006880B23B
:1018500048F60F7108401146086002F0F1FA744929
:10186000096889B24BF6BF7201EA02007149098822
:1018700011F4805F01D080F480506E49098811F422
:10188000005F01D080F400506B49098811F0100FFF
:1018900001D080F010006849098811F0200F01D0B4
:1018A00080F0200081B241F4004141F08001604AA3
:1018B000116010BD5E48006884B214F4006F37D028
:1018C0005B480068C0F30E0048F68F710840584925
:1018D000086004F059FC5649096889B24BF6BF729A
:1018E00001EA02005349098811F4805F01D080F4B5
:1018F00080505049098811F4005F00E051E001D0A8
:1019000080F400504C49098811F0100F01D080F08C
:1019100010004949098811F0200F01D080F0200003
:1019200081B241F4004141F08001414A1160C0E7B9
:1019300014F4004F6BD03E480068C0F30E0048F628
:101940008F7108403A49086003F07AFB384909680A
:1019500089B24BF6BF7201EA02003649098811F4D8
:10196000805F01D080F480503249098811F4005F13
:1019700001D080F400503049098811F0100F01D0D7
:1019800080F010002C49098811F0200F01D080F060
:10199000200081B241F4004141F08001244A1160ED
:1019A00087E722480078224951F8200084B214F4D5
:1019B000004F14D01D48007851F82000C0F30E00ED
:1019C00048F68F71084019490978194A42F82100F0
:1019D00016490978491E194A52F82100804714F027
:1019E000800F14D011480078114951F8200080B2BE
:1019F00048F60F7108400D4909780D4A42F8210058
:101A00000A490978491E0E4A52F8210080470848C1
:101A10004430006880B20449088010F4004F7FF41D
:101A2000E4AE00BF45E700008C0000201800002055
:101A3000005C00402C0000202E00002070000020E0
:101A4000540000202DE9F04100243F48B0F90A007D
:101A500040F2DC51091A3C48B0F91000C0EBC0005C
:101A6000143091FBF0F52846FEF7D1FD37490860A8
:101A70003548B0F90800A0F2DC503349B1F9101034
:101A8000C1EBC101143190FBF1F52846FEF7BFFD13
:101A90002E4948602C48B0F90C00B0F5966F0BDD6C
:101AA0002B48407901280ED0012029494871294846
:101AB00080682649886006E000202549487125484D
:101AC0008068224988602048B0F90E00B0F5C86FE0
:101AD00005DC1D48B0F90E00B0F5AF6F32DA1A48D8
:101AE000C08940F2DC51081A04B22046FEF78FFD8F
:101AF00007461949FEF7C6FB06461849FEF78CFB58
:101B00000546124881682846FEF72EFB0F4988607B
:101B100088681349FEF75AFE07D20C4988681149B4
:101B2000FEF774FB094988600CE0084988680E4993
:101B3000FEF742FE06D2054988680A49FEF714FB03
:101B400002498860BDE8F081C41C00204C1F0020C1
:101B5000D61C0020D81D002000004843CDCCCC3D31
:101B6000000034430000B443000034C3094951F875
:101B7000201011F4804F0CD0064951F8201089B282
:101B800048F68F7211404CF280021143014A42F82C
:101B900020107047005C0040094951F8201011F0F6
:101BA000400F0CD0064951F8201089B248F68F72C8
:101BB000114048F2C0021143014A42F82010704718
:101BC000005C0040064951F8201089B248F68F6247
:101BD000114048F280021143014A42F82010704738
:101BE000005C004021B1026842F00102026004E0A2
:101BF00002684FF6FE731A400260704701684FF6A4
:101C0000FE72114001600021016041608160C1608D
:101C10004B49884208D14A490839496841F00F01C7
:101C2000474A083A51608AE045491431884208D150
:101C300043490839496841F0F001414A083A516086
:101C40007DE03F492831884208D13D49083949683B
:101C500041F470613A4A083A516070E038493C31C9
:101C6000884208D136490839496841F47041344AFC
:101C7000083A516063E032495031884208D1304916
:101C80000839496841F470212D4A083A516056E0FC
:101C90002B496431884208D129490839496841F4FF
:101CA0007001274A083A516049E025497831884255
:101CB00008D123490839496841F07061204A083A3F
:101CC00051603CE01F49884206D1011F096841F07C
:101CD0000F01021F116032E01A491431884208D105
:101CE0001849091F096841F0F001164A121F1160D6
:101CF00025E014492831884208D11249091F096892
:101D000041F470610F4A121F116018E00D493C3117
:101D1000884208D10B49091F096841F47041094AFA
:101D2000121F11600BE007495031884207D1054965
:101D3000091F096841F47021024A121F116070479F
:101D4000080002400804024010B50022026847F66D
:101D5000F0739A430C6A8B6823430C6923434C69E4
:101D600023438C692343CC6923434C6A23438C6A05
:101D700023431A430260CB6843600B6883604B685F
:101D8000C36010BD2DE9F0472848006800F1100538
:101D90002E8826480068077AD6B9042F18D124481F
:101DA000007801280FD100212248006880B2801CF1
:101DB000214A42F8101030202049088000BF00203E
:101DC0001B49087003E0072710201C49088027E002
:101DD000AC88A64201D8042000E002200746B442A5
:101DE00000D93446A0B2A96888478046002001F097
:101DF00081F88146A2B24946404605F067FDA1B28E
:101E0000002004F009F92888001B288068882044F5
:101E1000688030200949088000020949088000BF15
:101E2000024909680F72BDE8F08700001C0000201D
:101E300014000020505C0040006000402E00002094
:101E40002C0000202DE9F0412848006800F1100422
:101E50002688A068C0B1BEB1A588B54200D9354674
:101E6000A8B2A168884707462088401B2080608868
:101E700028446080002001F01BF88046AAB2414649
:101E8000384603F005F900BF208850B14FF44050A8
:101E9000174908800021084604F0BEF83020154993
:101EA00008802088A188884204DB03200F49096844
:101EB000087218E02088002804DD05200B49096815
:101EC000087210E0208870B9062008490968087275
:101ED00000210948006880B2801C084A42F81010AE
:101EE000302004490880BDE8F08100001C0000207B
:101EF0002C0000202E000020505C004000600040BC
:101F000070B504462088A5287ED160885A28FBD168
:101F1000A0880A28F8D1A08A1228F5D1E08A3428AE
:101F2000F2D1E088302804D031282FD032286CD16B
:101F300059E02189090209B2628941EA0200FEF7EB
:101F400066FB05464449FEF79DF944498862A1892C
:101F5000090209B2E28941EA0200FEF758FB054690
:101F60003D49FEF78FF901463C48C162218A0902CA
:101F700009B2628A41EA0200FEF749FB054636498A
:101F8000FEF780F901463548016360E021890902C6
:101F900009B2628941EA0200FEF739FB05462E4983
:101FA000FEF770F92D490867A189090209B2E28993
:101FB00041EA0200FEF72BFB05462749FEF762F9CE
:101FC000014626484167218A090209B2628A41EA2C
:101FD0000200FEF71CFB05461F49FEF753F90146B8
:101FE0001E48816733E02189090209B2628941EA0A
:101FF0000200FEF70CFB05461749FEF743F91749A7
:10200000C1F8B800A18901E025E01FE0090209B28A
:10201000E28941EA0200FEF7FAFA05460E49FEF7A8
:1020200031F901460D48C0F8BC10218A090209B2F5
:10203000628A41EA0200FEF7EAFA05460649FEF71F
:1020400021F901460548C0F8C01000E000BF00BFFC
:1020500001200349487270BD0000C842701E002074
:10206000D61C00202DE9F05F9848006845780027CD
:10207000BA46062D1AD195480068007810F07F0FF7
:1020800013D1924909688878012803D190490968D9
:10209000CF690AE0022803D18D4909680F6A04E07C
:1020A000032802D18A4909684F6A90E0002D60D167
:1020B00086480068408800285BD184480068C08852
:1020C000022856D1814800680079002851D17F4804
:1020D0000068007810F07F0F05D17C480068808888
:1020E00008B97C4F73E079480068007800F07F0001
:1020F000012810D1754909684879754909688A69C4
:1021000000219047002862D170480068807A00283A
:102110005DD0704F5BE06D480068007800F07F0094
:10212000022854D169480068407900F00F066748DA
:102130000068407900F0700964480068407910F048
:10214000800F05D0644850F8260000F0300804E005
:10215000614850F8260000F4405860480078B042CA
:1021600035D9B9F1000F32D1B8F1000F2FD0594F46
:102170002DE0082D07D155480068007810F07F0F3A
:1021800025D1574F23E00A2D21D15048006800780F
:1021900000F07F0001281AD14C480068807AB0B165
:1021A0004A480068408890B948480068007970B98A
:1021B00046480068C088012809D14449096848791F
:1021C000434909688A690021904700B9454F57B1D2
:1021D0003E480068A0F812A03C48006887610020D3
:1021E000B84700240FE0394A12685078384A12681C
:1021F000116988470446032C05D109203349096831
:102200000872BDE8F09F31480068008AA0F57F4160
:10221000FF3904D109202D4909680872F1E7022C21
:1022200003D02A480068008A20B908202749096895
:102230000872E6E725480068007810F0800F3BD070
:1022400022480068B0F806B020480068008A584567
:1022500004D91E490968A1F810B023E01B480068A2
:10226000008A1A490968C98888421BDA1748006839
:10227000008A1749096891F82C10884203DA002077
:10228000194908700EE011480068008A1049096871
:1022900091F82C1090FBF1F201FB120010B9012013
:1022A000114908700A48006890F82C100748006827
:1022B0008182FFF767FD06E0032004490968087280
:1022C00000030A49088000BF9BE700001C000020B3
:1022D00020000020A5640208005C00409C00002053
:1022E0002964020879640208140000202C000020F0
:1022F000704700002DE9F04104460D464FF0C04202
:10230000054B20462946FEF713F906460022034BEB
:10231000FEF79EF8BDE8F081FB2109400080664091
:102320002DE9FF5F86B014461D464FF0010A4FF0BD
:1023300000000390049005904FF00109804600BF13
:1023400083460246134620462946FEF705FA09D27F
:1023500085F00040CDE9004020460199FEF7B0F934
:10236000804604E020462946FEF7AAF9804640460A
:10237000FEF75BF922462B46CDE90001FEF765F832
:1023800006460F460022554B30463946FEF760F8A8
:10239000CDE90001FEF7B3F9834607E009EB8900B8
:1023A0004FEA40090AF1010000F0FF0A0A2098FBF9
:1023B000F0F090FBF9F00028F0D142F2107098FB99
:1023C000F0F00A2190FBF1F201FB1200C0B28DF88F
:1023D0000C004FF47A7098FBF0F090FBF1F201FBE7
:1023E0001200C0B28DF80D00642098FBF0F090FB55
:1023F000F1F201FB1200C0B28DF80E000A2098FB2A
:10240000F0F090FBF1F201FB1200C0B28DF80F006A
:102410000A2098FBF0F100FB1180C0B28DF810008B
:102420002E208DF811004FF47A70BBFBF0F00A21DA
:10243000B0FBF1F201FB12008DF812006420BBFB2F
:10244000F0F0B0FBF1F201FB12008DF813000A204E
:10245000BBFBF0F0B0FBF1F201FB12008DF81400B1
:102460000A20BBFBF0F100FB11B08DF81500002134
:102470001498801D03AA1154894608E003A810F897
:102480000900303003A901F8090009F10109B9F187
:102490000A0FF3DB0022134620462946FEF75CF9BB
:1024A00008D20AF1010000F0FF0A2D20CAF105014F
:1024B00003AA50542E208DF8110000211498801D7D
:1024C00003AA1154CAF1050003A94218DDE9061058
:1024D00002F0E8FC0AB0BDE8F09F00000088C340AD
:1024E0000346062106221248018812480288A3B139
:1024F000012B1AD132B9A1F56E40EE3800D17047E8
:102500000120FCE739B9A2F56E40EE3801D1012077
:10251000F5E70020F3E7AB20F1E709B90020EEE78B
:102520000AB90120EBE7AB20E9E70020E7E700006C
:10253000000001080008010810B504240B4800F051
:1025400003FB0446042C01D0204610BD002107489F
:1025500000F046FB0446042C01D02046F5E7044871
:1025600000F0F2FA04462046EFE700000000010800
:102570000008010810B505F061FB044601F0BAFC43
:10258000204610BD2DE9F84F074689460425DFF89F
:10259000D4A0354800904FF00008002400264FF0EA
:1025A000000B0020FFF79CFF8046B8F1010F04D11B
:1025B000DFF8B4A02D4800900AE0B8F1000F04D174
:1025C000DFF8A8A02848009002E0AB20BDE8F88F13
:1025D0004EF6EE61504600F003FB0546042D01D097
:1025E0002846F3E701F086FC4946384600F020FA19
:1025F0000646042E01D03046E8E700241DE01C48C2
:1026000030F81400B84216D0194931F814001949AD
:1026100000F014F98346BBF1010F0CD0144931F8D6
:1026200014001449098889B200F002FA0646042E03
:1026300001D03046CAE7601C84B24B2CDFDB009827
:1026400000F082FA0546042D01D02846BEE700219D
:10265000504600F0C5FA0546042D01D02846B5E7DE
:102660002846B3E7FF03010800000108000801083D
:10267000A20100203801002010B509490888094945
:1026800000F0DCF8064948880649891C00F0D6F8B5
:10269000034988880349091D00F0D0F810BD0000E7
:1026A000A2010020281C002038B54B49488A694601
:1026B00000F0C4F8BDF8000000B938BDBDF9000055
:1026C000FDF7A5FF04464549FDF7DCFD4449886256
:1026D0004149888A694600F0B1F8BDF90000FDF76C
:1026E00096FF04463F49FDF7CDFD01463C48C162D7
:1026F0003949C88A694600F0A1F8BDF90000FDF724
:1027000086FF04463549FDF7BDFD014634480163A7
:102710003149088B694600F091F8BDF90000FDF7DA
:1027200076FF04462D49FDF7ADFD2D4908672A497E
:10273000488B694600F082F8BDF90000FDF767FF9D
:1027400004462849FDF79EFD014625484167224978
:10275000888B694600F072F8BDF90000FDF757FF5D
:1027600004461E49FDF78EFD01461D4881671A4942
:10277000C88B694600F062F8BDF90000FDF747FF1D
:1027800004461649FDF77EFD1549C1F8B800124907
:10279000088C694600F052F8BDF90000FDF737FFDC
:1027A00004461049FDF76EFD01460D48C0F8BC1007
:1027B0000949488C694600F041F8BDF90000FDF771
:1027C00026FF04460549FDF75DFD01460448C0F8B3
:1027D000C01000BF71E70000A20100200000C84245
:1027E000701E002000007A4410B51249C8881249B2
:1027F00000F024F80F4908890F49891C00F01EF8E1
:102800000C4948890C49091D00F018F809498889C4
:102810000949891D00F012F80649C889064908319E
:1028200000F00CF80349088A03490A3100F006F861
:1028300010BD0000A2010020701C00202DE9F0470F
:1028400006460F46002545F255584FF00109124C37
:10285000A2460020FFF744FE0546AB2D01D1BDE89E
:10286000F0870D4800EBC52A0C480068841E0BE079
:10287000B4F80080B04506D134F8020C00B23880BC
:102880004FF0000904E0241F0AF102008442EFD84F
:1028900000BF4846E3E70000000001083C010020BB
:1028A00010B50B4AB2F920100A4A108800F004F95A
:1028B000074AB2F92210074A508800F0FDF8044A8E
:1028C000B2F92410034A908800F0F6F810BD000019
:1028D000081C0020A201002070B54548407A00285D
:1028E0007ED00020424948724249886A4249FDF739
:1028F00093FC0546FDF7D0FE84B24049488A21B2D8
:1029000000F0DAF83B49C86A3D49FDF785FC054609
:10291000FDF7C2FE84B23949888A21B200F0CCF8B2
:102920003449086B3449FDF777FC0546FDF7B4FEE2
:1029300084B23249C88A21B200F0BEF82D49086F2E
:102940002D49FDF769FC0546FDF7A6FE84B22B492B
:10295000088B21B200F0B0F82649486F2849FDF7EE
:102960005BFC0546FDF798FE84B22449488B21B2F2
:1029700000F0A2F81F49886F1F49FDF74DFC05467E
:10298000FDF78AFE84B21D49888B21B200F094F8CD
:102990001849D1F8B8001849FDF73EFC0546FDF787
:1029A0007BFE84B21549C88B21B200F085F811492D
:1029B000D1F8BC001249FDF72FFC0546FDF76CFE6F
:1029C00084B20E49088C21B200F076F80949D1F89A
:1029D000C0000949FDF720FC0546FDF75DFE00E05B
:1029E00005E084B20549488C21B200F065F870BD5D
:1029F000D61C0020701E00200000C842A20100204A
:102A000000007A4410B500240BE0074A126832F93E
:102A10001410E21C054B33F8120000F04DF8601C56
:102A2000C4B2062CF1DB10BD84010020A2010020FD
:102A30002DE9F04104460F4604250026DFF86C809E
:102A40000120FFF74DFD0646AB2E01D1BDE8F08118
:102A5000701C174901EBC02821E016480068006887
:102A6000401C17D139461348006800F0B9F80546F4
:102A7000042D01D02846E9E721460E480068801C55
:102A800000F0AEF805460B480068001D09490860D3
:102A90002846DBE707480068001D0649086005482E
:102AA00000684045D9D38020D0E70000FF07010827
:102AB000FEFF00083C01002070B506460C460025CC
:102AC000A1B23046FFF7B4FF0546802D04D1A1B274
:102AD0003046FFF757FD0546284670BDF8B500267D
:102AE000104D002710E0684606F068FE04469DF889
:102AF000000000B90AE09DF80000304486B225F8D5
:102B0000024BAD1C781C87B2202FECDB00BF06B94E
:102B1000F8BD3146012003F07FFA012003F0A8FA46
:102B200000BFF5E78061004010B590B06946032012
:102B300004F06EFE84B22146684606F0D7FE0320FC
:102B400003F044FA10B010BD30B5044604254FF42C
:102B5000302000F071F80546042D17D10C480069AB
:102B600040F002000A49086108464461006940F0EB
:102B7000400008614FF4302000F05EF8054604483C
:102B8000006941F6FD71084001490861284630BDE1
:102B90000020024004200C49C96801F0010101290C
:102BA00001D101200EE00849C96811F0040F01D0DD
:102BB000022007E00449C96811F0100F01D003207A
:102BC00000E0042070470000002002400348006934
:102BD00040F0800001490861704700000020024079
:102BE00070B504460D460426F00200F025F80646AE
:102BF000042E11D10948006940F00100074908611D
:102C00002580F00200F018F806460448006941F6F5
:102C1000FE71084001490861304670BD0020024045
:102C200002480349486003484860704723016745EC
:102C300000200240AB89EFCD00B502460423FFF728
:102C4000A9FF034603E0FFF7A5FF0346521E012B31
:102C500001D1002AF7D102B90523184600BD0000B2
:102C600010B51A48007910B10020194908701748AA
:102C7000007910B90120164908701448807910B104
:102C80000220134908701148807910B102201049C0
:102C900008700E48C079A8B10C48C079012804D04A
:102CA000022806D003280CD107E004200849087048
:102CB00007E005200649087003E006200449087073
:102CC00000BF00BF01F0D8F910BD0000D61C0020E5
:102CD0002C01002030B503461C788C545D78541CC0
:102CE0000D559D78941C0D55DD78D41C0D5530BDC7
:102CF0002DE9F04102460025002600200023002493
:102D0000002791F803C00CF00F0591F803C01CF0E8
:102D1000100F03D091F802C04CEA0505B1F800C0CD
:102D20001CF0FF0F31D0146800202BE04FF0010C95
:102D30000CFA00F3B1F800C00CEA03069E4220D161
:102D400083004FF00F0C0CFA03F7BC4305FA03FCA9
:102D50004CEA040491F803C0BCF1280F06D14FF0EF
:102D6000010C0CFA00FCC2F814C00AE091F803C090
:102D7000BCF1480F05D14FF0010C0CFA00FCC2F871
:102D800010C0401C0828D1D31460B1F800C0BCF1B9
:102D9000FF0F34DD546800202EE000F1080C4FF0E6
:102DA000010808FA0CF3B1F800C00CEA03069E42D1
:102DB00021D183004FF00F0C0CFA03F7BC4305FA46
:102DC00003FC4CEA040491F803C0BCF1280F05D1C0
:102DD00000F1080C08FA0CF8C2F8148091F803C04E
:102DE000BCF1480F07D100F1080C4FF0010808FAB8
:102DF0000CF8C2F81080401C0828CED35460BDE8FF
:102E0000F0810000F0B50A460023002400210025CF
:102E100000F00046B6F1004F02D11D4EF16901E00D
:102E20001B4E7168C0F3034583B200F44016B6F53B
:102E3000401F08D121F07061154E766826F070664B
:102E4000134F7E6012E000F48016B6F5801F06D1A5
:102E5000032606FA05F4A14341F0706106E0460D31
:102E6000360103FA06F6B14341F0706122B1460D16
:102E7000360103FA06F6314300F00046B6F1004F82
:102E800002D1034EF16101E0014E7160F0BD00001E
:102E9000000001400246002093680B4201D001204F
:102EA00000E00020704741617047016170470000F9
:102EB00001460548006880B200EBC100001D034ACE
:102EC00052F8100080B27047505C00400060004033
:102ED00001460648006880B200EBC100801D044A2C
:102EE00052F81000C0F3090070470000505C004029
:102EF0000060004001460548006880B200EBC10058
:102F0000034A52F8100080B270470000505C004045
:102F1000006000402DE9F04104460A480568001DA4
:102F20000668001D07683D4455B10822A11C2846CB
:102F300001F053F8042204F11201304601F04DF87B
:102F4000BDE8F081E8F7FF1F30B590FBF3F425B240
:102F5000074CA4F8545091FBF3F425B2044CA4F8A8
:102F6000565092FBF3F425B2014CA4F8585030BDF2
:102F7000081C00202DE9F04186B04FF00008002029
:102F80000390049005900090019002900025002687
:102F9000002778E0B8F1320F51DA01F059F93D49D4
:102FA000B1F934100098084400903A48B0F936005E
:102FB0000199084401903748B0F938000299084453
:102FC00002903448B0F934000399281A05D53148E5
:102FD000B0F934006A42101A03E02E48B0F9340008
:102FE000281A084403902B48B0F936000499301A87
:102FF00005D52848B0F936007242101A03E025487A
:10300000B0F93600301A084404902248B0F938006C
:103010000599381A05D51F48B0F938007A42101AB8
:1030200003E01C48B0F93800381A084405901948E4
:10303000B0F93450B0F93660B0F938701FE0039839
:10304000642805DA0498642802DA059864280EDBFF
:103050004FF00008002407E0002003A941F82400F5
:103060004DF82400601CC4B2032CF5DB07E03223CA
:103070009DE80700FFF768FF01200749087008F185
:10308000010000F0FF0804480078002882D006B054
:10309000BDE8F081081C0020810100202DE9FF41DE
:1030A0000546002602AB062203213C2000F048FD25
:1030B000544800680A2190FBF1F052490968081A47
:1030C000504908609DF809009DF8081040EA012069
:1030D00000B24C49096808444A490860084600683B
:1030E0000A2190FBF1F000B2ADF8000045484068BD
:1030F00090FBF1F043494968081A424948609DF83D
:103100000D009DF80C1040EA012000B23D494968CD
:1031100008443C494860084640680A2190FBF1F0A9
:1031200000B2ADF802003748806890FBF1F03549F5
:103130008968081A334988609DF80B009DF80A10C9
:1031400040EA012000B22F49896808442D4988606F
:10315000084680680A2190FBF1F000B2ADF8040047
:103160002948C07940B1012028490870002026492B
:10317000C870684601F082F92448007808B300203E
:1031800022490870002415E02148006830F9140035
:10319000002805DA1E48006830F91400404203E0B8
:1031A0001B48006830F91400142801DA701CC6B2FC
:1031B000601CC4B2062CE7DB022E02DB01201249A0
:1031C000C87000241AE01249096801EB4401B1F902
:1031D00006100F4A126832F914208F1807EBD771C6
:1031E0003DF91420A2EB6100FDF711FA8046FDF7CE
:1031F0003AFA00B225F81400601CC4B2032CE2DBDA
:10320000BDE8FF817C1C0020D61C00208801002026
:103210008401002000BFFEE710B50F201749087099
:103220000320487002221648FFF754FD0622134976
:103230001348001DFFF74EFD0A22104910480830C0
:10324000FFF748FD00200F490860002408E00B4804
:10325000005D0C49096808440A490860601CC4B252
:103260000E2CF4DB07480068FF21B0FBF1F201FBF4
:103270001200024988730F2010BD0000F01D0020CD
:10328000D81D00202003002010B53F2058490870A9
:10329000012048705749B1F90000FDF7B8F95649C7
:1032A00008605449B1F90200FDF7B1F953490860CB
:1032B0005049B1F90400FDF7AAF9514908604D4998
:1032C000B1F93400FDF7A3F94E4908604949B1F955
:1032D0003600FDF79CF94C4908604649B1F93800C1
:1032E000FDF795F9494908604949B1F90000FDF732
:1032F0008EF9484908604649B1F90200FDF787F99F
:10330000454908604249B1F90400FDF780F9434995
:10331000086000204249086042490860424908604C
:10332000022233493448FFF7D5FC0622304933489E
:10333000FFF7D0FC0A222E493148FFF7CBFC0E22C2
:103340002B493048FFF7C6FC122229492E48FFF7C7
:10335000C1FC162226492D48FFF7BCFC1A2224493D
:103360002C48FFF7B7FC1E2221492B48FFF7B2FC7F
:1033700022221F492948FFF7ADFC26221C49284874
:10338000FFF7A8FC2A221A492648FFF7A3FC2E22A1
:1033900017492548FFF79EFC322215492348FFF7BD
:1033A00099FC362212492248FFF794FC3A22104930
:1033B0002048FFF78FFC00201F490860002408E028
:1033C0000B48005D1C49096808441B490860601CE3
:1033D000C4B23E2CF4DB18480068FF21B0FBF1F2C8
:1033E00001FB1200024981F83E003F2010BD0000A1
:1033F000F01D0020081C0020D0020020D402002074
:10340000D8020020DC020020E0020020E4020020BC
:10341000C8020020E8020020EC020020F002002098
:10342000F4020020F8020020FC020020000300202B
:1034300004030020080300202003002010B51D20F5
:10344000414908700220487002224048FFF742FCC0
:1034500006223D493E48FFF73DFC0A223A493D48D5
:10346000FFF738FC0E2238493B48FFF733FC1222A5
:1034700035493A48FFF72EFC39480068000A3249BE
:10348000887537480068C87536480068000A0876AD
:103490003448006848763448007888760020C8763A
:1034A0003248007828B10846C07E40F00100C87656
:1034B00005E02548C07E00F0FE002349C8762C4870
:1034C0000078572806D12048C07E40F002001E49EF
:1034D000C87609E026480078452805D11A48C07EFC
:1034E00000F0FD001849C876224800784E2806D121
:1034F0001548C07E40F004001349C87609E01D4815
:103500000078532805D11048C07E00F0FB000E491A
:10351000C876002018490860002408E00A48005DC9
:1035200015490968084414490860601CC4B21C2C81
:10353000F4DB11480068FF21B0FBF1F201FB12003F
:10354000014908771D2010BDF01D00202403002034
:10355000280300202C030020300300203403002027
:103560003C030020400300203803002046030020D5
:1035700044030020450300202003002070B5734958
:10358000886A7349FCF748FE0546FDF76CF87149F7
:1035900008606E49C86A6E49FCF73EFE0546FDF7B5
:1035A00062F86D4908606949086B6949FCF734FEA7
:1035B0000546FDF758F8694908606449086F644991
:1035C000FCF72AFE0546FDF74EF8654908605F499D
:1035D000486F5F49FCF720FE0546FDF744F8614956
:1035E00008605A49886F5A49FCF716FE0546FDF7F0
:1035F0003AF85D4908605549D1F8B8005449FCF7DC
:103600000BFE0546FDF72FF8584908604F49D1F8E1
:10361000BC004F49FCF700FE0546FDF724F854496D
:1036200008604A49D1F8C0004949FCF7F5FD054654
:10363000FDF719F84F49086021204F49087005200F
:10364000487044480068000A887042480068C870A2
:1036500041480068000A08713F48006848713F48C7
:103660000068000A88713D480068C8713C480068DD
:10367000000A08723A48006848723A480068000A2E
:10368000887238480068C87237480068000A0873B2
:1036900035480068487335480068000A8873334825
:1036A0000068C87332480068000A0874304800682F
:1036B000487430480068000A88742E480068C8744E
:1036C0002E480068000A08752C48006848752C4888
:1036D0000068000A88752A480068C875294800688B
:1036E000000A087627480068487627480068000ADC
:1036F000887625480068C87624480068000A08775C
:1037000022480068487722480068000A88772048E5
:103710000068C87700201F490860002408E01648A8
:10372000005D1C49096808441A490860601CC4B25D
:10373000202CF4DB17480068FF21B0FBF1F201FBFD
:1037400012000D4981F82000212070BD701E00205C
:103750000000C842480300204C0300205003002012
:1037600054030020580300205C0300206003002065
:103770006403002068030020F01D00206C0300207B
:103780007003002074030020780300207C030020D5
:10379000800300202003002015202F4A10700420F1
:1037A00050702E480088000A90702C480088D07015
:1037B0002A484088000A10712848408850712748DC
:1037C0008088000A907125488088D0712348C0887D
:1037D000000A10722148C088507220480088000AF0
:1037E00090721E480088D0721C480088000A10732E
:1037F0001A480088507319480088000A90731748C7
:103800000088D07315480088000A10741348008897
:10381000507412480088000A907410480088D074D0
:1038200000200F4A1060002108E00B48405C0C4A61
:10383000126810440A4A1060481CC1B21429F4DB13
:1038400007480068FF22B0FBF2F302FB1300024AB4
:103850001075152070470000F01D0020C41C0020CA
:103860002003002010B505F0A5FB10BD10B505F034
:10387000FFFB10BD10B505F09DFB10BD10B505F0A8
:10388000F7FB10BD00B54FF480600C49086000F0F4
:103890004DFA4FF400600949086000F047FA4FF410
:1038A00080600649091F086000F040FA4FF480600C
:1038B0000249086000F03AFA00BD0000140C014013
:1038C00021B1028842F48062028004E002884FF64F
:1038D000FF331A400280704721B1028842F0010292
:1038E000028004E002884FF6FE731A40028070479F
:1038F00010B504460B48844209D10121480501F066
:10390000DFFE00214FF4001001F0DAFE08E0012193
:10391000880501F0D5FE00214FF4800001F0D0FEB3
:1039200010BD00000054004021B1028842F48072B2
:10393000028004E002884FF6FF631A40028070475D
:1039400021B1028842F40072028004E002884FF63E
:10395000FF531A400280704708B50121082001F08A
:10396000BFFE4FF48060ADF8000003208DF8020028
:1039700014208DF8030069460A48FFF7B9F94FF49F
:103980000060ADF8000003208DF8020014208DF8CF
:10399000030069460348FFF7ABF940F6FF7005F0F6
:1039A000C2F908BD000C014010B51AB183880B4361
:1039B000838004E08388CC43A4B22340838010BD7D
:1039C0002DE9F04385B004460D460026B146042794
:1039D000DFF8CC80A6884FF6C0700640684601F03C
:1039E0009FFEDDF808802F48B8FBF0F01FFA80F941
:1039F00046EA0906A68020884FF6FE71084020801E
:103A000000262949286888420CD828684000B8FB5D
:103A1000F0F087B2042F00DA04273E4309F10100D9
:103A2000208427E0E888A0F53F41FF3906D12868C7
:103A300000EB4000B8FBF0F087B209E0286800EB2B
:103A4000C00101EB0010B8FBF0F087B247F48047EB
:103A50003805000D01D147F0010747F40040064347
:103A60004FF4967009FB00F04FF47A7190FBF1F07F
:103A7000401C2084A683208840F0010020802688F6
:103A80004FF6F5300640A88869890843064326802A
:103A9000A88929890843208105B0BDE8F08300008A
:103AA00000127A0040420F00A086010000B54FF4DA
:103AB00080600C49086000F039F94FF40060094952
:103AC000091F086000F032F94FF480600549091FB2
:103AD000086000F02BF94FF480600249086000F0A4
:103AE00025F900BD140C014000B5082100200A0290
:103AF000124B1A6016E04206100E4FF480620F4B14
:103B00001B1D1A6000F012F94FF480620B4B1A6013
:103B100000F00CF9094A083A126812F4006F01D05B
:103B200040F001000A00A1F10103D9B2E3D14FF442
:103B30008062024B1B1D1A6000BD0000100C01408A
:103B40002DE9F04180460E4615461F4600F062F80A
:103B5000404600F031F800F0BBF8304600F02CF899
:103B600000F0B6F800F056F808F10100C0B200F01D
:103B700023F800F0ADF800240CE0FFF7B5FF38554E
:103B8000681EA04202D1FFF791FF01E0FFF77AFE25
:103B9000601CC4B2AC42F0DB00F06CF800F0C6F878
:103BA000BDE8F08112B141F0010102E04FF6FE7371
:103BB000194001827047000000B508211DE04FF454
:103BC0008062134B1A6000F0B1F810F0800F05D03E
:103BD0004FF400620E4B1B1F1A6003E04FF40062AB
:103BE0000B4B1A604206100E00F0A0F84FF48062F2
:103BF000074B1B1F1A6000F099F80A00A1F101039E
:103C0000D9B2DCD14FF48062014B1A6000BD0000D4
:103C1000140C014000B54FF40060154908604010D5
:103C2000086000F083F812480838006808B90120DD
:103C300000E0002010F4006F01D0002000BD4FF420
:103C400000600B49091D086000F070F8084808384A
:103C5000006810F4006F01D00020EFE74FF400601F
:103C60000349091D086000F061F80120E6E7000043
:103C7000100C014000B54FF480600C49086000F062
:103C800055F84FF400600949086000F04FF84FF410
:103C900080600649091F086000F048F84FF4006092
:103CA0000249091F086000F041F800BD140C0140F2
:103CB00041F288310160002181804BF6FF71C180A3
:103CC0000021018141814FF48041818170470000D2
:103CD00000B54FF480601449086000F027F84FF4F5
:103CE00000601149091F086000F020F84FF480605F
:103CF0000D49091F086000F019F80B480C380068DE
:103D000010F4006F07D04FF480600749086000F09E
:103D10000DF8002000BD4FF480600349086000F0FA
:103D200005F80120F6E70000140C014000BF7047C1
:103D30002DE9FF5F88B092469946DDF85CB0ABF1A3
:103D400001000FFA80F80BE0A8F101000AEBC001B6
:103D500003C90AEBC80203C2A8F101000FFA80F8F8
:103D6000B8F1000FF0DCDDE90801CAE90001002428
:103D70002546A0461AE0169800EBC80003C8CDE916
:103D800002010AEBC80003C8CDE90001DDE9022306
:103D9000FCF75EFB22462B46CDE90401FCF7B2FAA4
:103DA00004460D4608F101000FFA80F8D845E2DB21
:103DB0001998401E0FFA80F80BE0A8F1010009EBFA
:103DC000C00103C909EBC80203C2A8F101000FFA40
:103DD00080F8B8F1000FF0DC002637464FF00108FC
:103DE0001AE0189800EBC80103C9CDE9020109EBFC
:103DF000C80003C8CDE90001DDE90223FCF728FB78
:103E000032463B46CDE90401FCF77CFA06460F46F4
:103E100008F101000FFA80F819988045E1DB32467D
:103E20003B4620462946FCF70DFBC9E90001D9E9CC
:103E30000001CDE90601DDE906010CB0BDE8F09F07
:103E400010B518480068047A022C01D0042C05D162
:103E5000FDF798FF13480068047A1CE0062C19D17E
:103E600010480068407805280ED10E480068007898
:103E700010F07F0F08D10B490968C87802F02CF8C0
:103E800009490968086A80470849096888688047BD
:103E9000082400E00824034909680C7201F0E6F9DF
:103EA00010BD00001C000020280000202000002081
:103EB00010B5482004F04AFF00F0AAFE04F08AFE84
:103EC000FCF704FE00F042FFFFF746FD00F034F976
:103ED00003F088FB02F044FF01F0AEF901F0EAF8CC
:103EE00000F0CEFC00F062F9FEF79AFEFEF742FB0E
:103EF00010BD000070B5042600240120FEF7F0FA82
:103F00000446AB2C06D1124800EBC42011490860CE
:103F1000AB2070BD0E4800EBC4200E490860601C49
:103F20000B49891E01EBC0250CE00A4800680068B7
:103F3000401C02D104263046EBE706480068001D0D
:103F40000449086003480068A842EED38020E0E7F7
:103F5000000001083C01002010B57521D02002F0BE
:103F60006FF904460CB9002010BD00226B21D0204F
:103F700002F08EF907221921D02002F089F90322DC
:103F80001A21D02002F084F910221B21D02002F047
:103F90007FF909221C21D02002F07AF90120E3E701
:103FA00010B50A213C2002F04BF904460CB9002060
:103FB00010BD702200213C2002F06AF9202201216C
:103FC0003C2002F065F9002202213C2002F060F959
:103FD000642004F0A8FE0120EAE730B50B4600217A
:103FE00000BF16E00A24B4EB107F05D9302404EB9F
:103FF000107403F8114005E0412404EB10740A3CEE
:1040000003F81140000100254C00641C1D554C1C98
:10401000E1B29142E6DB30BD10B515480078C0F33F
:10402000000020B101211348FEF73DFF03E001210C
:104030001048FEF73AFF0E480078C0F3400020B168
:1040400002210C48FEF72FFF03E002210948FEF78A
:104050002CFF07480078C0F3800020B104210548F8
:10406000FEF721FF03E004210248FEF71EFF10BD0A
:10407000300100200014014010B52D4800780728B9
:1040800051D2DFE800F00422405044484C00284858
:104090004088401C80B226494880782801DB0020F7
:1040A0004880234840880A2807DB21484088142894
:1040B00007DD1F4840881E2803DA06201D490870C6
:1040C00002E000201B4908702DE019484088401C80
:1040D00080B2174948803C2801DB00204880144802
:1040E0004088142803DC0120124908700AE01048B7
:1040F0004088282803DC02200E49087002E00420D2
:104100000C4908700FE004200A4908700BE00120F8
:104110000849087007E002200649087003E00420FF
:104120000449087000BF00BFFFF776FF10BD000014
:104130002C0100203001002008B50121202001F0D1
:10414000CFFA0121402001F0CBFA0121084601F00D
:10415000C7FA01211148FEF755FE01211048FEF76C
:1041600051FE0720ADF8000010208DF80300032059
:104170008DF8020069460B48FEF7BAFD0721094891
:10418000FEF793FE7820ADF8000069460648FEF77A
:10419000AFFD78210448FEF788FE08BD000430001A
:1041A00000023000001401400018014010B5072142
:1041B0001948FEF778FE4FF4617004F0B4FD072152
:1041C0001548FEF772FE4FF47A5004F0ACFD07215B
:1041D0001148FEF768FE4FF4617004F0A4FD07215A
:1041E0000D48FEF762FE4FF47A5004F09CFD072163
:1041F0000948FEF758FE4FF4617004F094FD072162
:104200000548FEF752FE4FF47A5004F08CFD07216A
:104210000148FEF748FE10BD001401402DE9F047AB
:1042200004460D46164631462846FBF7F5FF804604
:1042300031464FF07E50FBF7E9FF81462146FBF700
:10424000EBFF07464146FBF78FFFBDE8F087000014
:1042500010B500F0C7F85C4840785B49097840EA3F
:1042600001205A49098C401A00B258490880564822
:10427000C0785549897840EA01215448408C081A91
:1042800000B252494880504840794F49097940EA84
:10429000012000B24D4988804B48407A4A49097A4A
:1042A00040EA012000B2494988864748C07A464919
:1042B000897A40EA012001B24448C1864248407BE5
:1042C0004149097B40EA012001B24048018701468B
:1042D000B1F93420B1F95410501AFCF798F93B4960
:1042E000C865B1F93620B1F95610501AFCF78FF9AC
:1042F0000146364801660146B1F93820B1F9581037
:10430000501AFCF784F901463048416630488079FC
:10431000002857D02F48007880B900202B49088406
:1043200000212A484184818400202B4908602B49C0
:1043300008602B4908600120264908702348B0F91D
:104340000000254909680844234908601F48B0F95E
:104350000200224909680844204908601B48B0F956
:1043600004001F49096808441D490860194800787D
:10437000C82822D1184800681649097890FBF1F046
:1043800000B212490884154800681249097890FB68
:10439000F1F001B20D484184114800680D490978D7
:1043A00090FBF1F001B209488184002009490870AE
:1043B00007498871FEF774FA10BD06480078401C62
:1043C0000449087000BFF7E7F81B0020081C002014
:1043D000D61C0020800100207401002078010020FC
:1043E0007C01002010B53B21D02001F029FF22499B
:1043F00008703C21D02001F023FF1F4948703D2167
:10440000D02001F01DFF1C4988703E21D02001F012
:1044100017FF1949C8703F21D02001F011FF16493C
:1044200008714021D02001F00BFF1349487143214E
:10443000D02001F005FF104908724421D02001F07E
:10444000FFFE0D4948724521D02001F0F9FE0A49CE
:1044500088724621D02001F0F3FE0749C872472137
:10446000D02001F0EDFE044908734821D02001F06E
:10447000E7FE0149487310BDF81B00202DE9FF5FDE
:1044800007469448007898B10020924908709249F4
:1044900008609249086092490860002606E0002002
:1044A0009049096821F81600701CC6B2062EF6DB8A
:1044B000002621E08B48006830F9160037F9161005
:1044C000884206DD37F816008649096821F816008B
:1044D00010E08448006800EB4600B0F9060037F9A8
:1044E0001610884206DA37F816007E49096801EB93
:1044F0004601C880701CC6B2032EDBDB7A48C07947
:10450000012847D1794908690021FCF755F904D2FF
:104510007648006980F0004001E074480069044674
:104520007349FCF753F935D27049486EFCF7FEF831
:10453000704A714BCDE90001FBF78AFF80464FF0CE
:1045400060426E4BFBF784FF04460D4662480068EC
:10455000FCF7ECF8824622462B46FBF7D3FECDE96A
:104560000201FCF70DF95C49086000215A48006817
:10457000FCF722F904D25848006880F0004001E0BE
:104580005548006804465E49FCF720F902D2022033
:104590005549C8715448C079022847D153498868A1
:1045A0000021FCF709F904D25048806880F00040EF
:1045B00001E04E48806804464D49FCF707F935D2C2
:1045C0004A49C86DFCF7B2F804464A4A4A4BFBF721
:1045D0003FFF80464FF06042484BFBF739FF824671
:1045E0008B463F480068FCF7A1F852465B46CDE990
:1045F0000001FBF787FECDE90201FCF7C1F838495D
:104600000860002136480068FCF7D6F804D2344828
:10461000006880F0004001E03148006804463849F5
:10462000FCF7D4F802D203202F49C8712E48C07974
:1046300003284CD12D49C8680021FCF7BDF804D2ED
:104640002A48C06880F0004001E02848C06804465D
:104650002749FCF7BBF83AD22449086EFCF766F804
:104660008046244A244BFBF7F3FE4FF06042234B75
:10467000CDE90001FBF7ECFE04460D461748006843
:10468000FCF754F8824622462B46FBF73BFECDE969
:104690000201FCF775F81149086000210F48006815
:1046A000FCF78AF804D20D48006880F0004001E071
:1046B0000A48006804461249FCF788F807D201202E
:1046C0000449087000200849C871FEF79BF9BDE84D
:1046D000FF9F00008901002094010020900100202C
:1046E0008C01002084010020D61C0020081C002022
:1046F00000409C4530689DC8FE3F9F3F4D62603F33
:104700000000B44300BFFEE72DE9F04F8BB04149F4
:10471000886CFBF7A8FF0FFA80F83E49D1F89000AB
:10472000FBF7A1FF0FFA80F93A48D0F8D80080F0E3
:1047300000442046FBF797FF0FFA80FA3648B0F99D
:104740000C00B0F5966F51DD34490868FBF7EEFFB9
:104750000646334A334BFBF7EBFE044604F07AFA85
:10476000CDE906012D494868FBF7E0FF04462C4AD5
:104770002C4BFBF7DDFECDE9000104F06BFACDE92F
:1047800002012549B1F90C10A1F57A70FBF74DFF34
:104790000646DDE90223FBF7CBFECDE90401DDE9A6
:1047A0000623FBF7C5FECDE90801FBF789FF834629
:1047B000ABEB0800A0EB0900504400B21A49088096
:1047C000ABEB08004844A0EB0A0000B248800BEBBA
:1047D00008004844504400B288800BEB0800A0EB6E
:1047E0000900A0EB0A0000B2C88007E0D2200E4901
:1047F000C88088804880088001F03CF90B48007927
:1048000018B1094804F0A2FE01E004F0D5FE0BB097
:10481000BDE8F08F701E0020C41C0020E41D0020A5
:1048200031B3CF6394A94C4088030020D61C0020EC
:10483000704770471CB510A103C9CDE900010522DE
:104840006946302000F0CCF805226946102000F0BF
:10485000A5F8002406E01DF80400A52800D003E018
:10486000601CC4B2052CF6DB00BF052C01D0002073
:104870001CBD0120FCE70000A5A5A5A5A500000022
:1048800010B508210548FEF70EFB4FF4004104481F
:10489000FEF70BFB01F012F910BD000000140140FF
:1048A0000008014010B5044608213948FEF7FBFA1C
:1048B00005223849302000F093F8052236492A2095
:1048C00000F08EF80121212000F0ACF80121222017
:1048D00000F0A8F81A21242000F0A4F828212520AF
:1048E00000F0A0F80F21262000F09CF8012C08D140
:1048F0002021312000F096F80F21202000F092F8BE
:1049000041E0022C08D12021312000F08BF80E214B
:10491000202000F087F836E0032C1AD1FF21E12097
:1049200000F080F8FF21E22000F07CF80F21202029
:1049300000F078F8502001F03BF9732001F038F9CD
:1049400001213C2000F06EF807213D2000F06AF8BC
:1049500019E00E21202000F065F8FF21E12000F091
:1049600061F8FF21E22000F05DF8502001F020F90D
:10497000732001F01DF901213C2000F053F80721BC
:104980003D2000F04FF808210148FEF78EFA10BDD7
:1049900000140140980100209D0100202DE9F04104
:1049A00007460D4616464FF400410C48FEF77BFAC9
:1049B000384601F0FDF88046002405E0FF2001F0B4
:1049C000F7F82855601CC4B2B442F7DB4FF400413D
:1049D0000248FEF76AFA4046BDE8F081000801404F
:1049E0002DE9F04107460C4615464FF400410C48AE
:1049F000FEF759FA384601F0DBF88046002605E05C
:104A000014F8010B01F0D4F8701CC6B2AE42F7DB0B
:104A10004FF400410248FEF748FA4046BDE8F081F5
:104A20000008014070B505460C464FF400410848A7
:104A3000FEF739FA284601F0BBF80646204601F099
:104A4000B7F84FF400410248FEF72FFA304670BD28
:104A50000008014070B5002100230F22C4780CB378
:104A6000164C246804F4E064C4F5E064210AC1F142
:104A70000403CA40447804FA03F1847814402143C3
:104A800009010F4C0678A155047804F01F05012494
:104A9000AC4005786D114FF0E02606EB8505C5F8B2
:104AA000004109E0047804F01F050124AC40054DE5
:104AB0000678761145F8264070BD00000CED00E048
:104AC00000E400E080E100E002490143024A116095
:104AD000704700000000FA050CED00E070B50226FA
:104AE00046480068447845480068007810F07F0F19
:104AF00044D1092C03D101F051FD06465FE0052C9D
:104B000014D13E480068C0787F280BDC3B48006821
:104B1000807838B939480068808818B93748006803
:104B2000807A08B1082565E0002648E0032C0ED104
:104B300032480068C078012807D130480068808872
:104B400018B901F04FFD064639E0022637E0012C86
:104B500035D12A480068C07801280DD1274800685F
:104B6000808848B925480068407A10F0200F03D0AB
:104B700001F0B2FB064622E0022620E01F48006852
:104B8000007800F07F00012805D10B2C17D101F02F
:104B90009BFD064613E019480068007800F07F008E
:104BA00002280BD1012C03D101F096FB064606E04A
:104BB000032C04D101F02AFD064600E002264EB186
:104BC0000F4800684169E0B288470646032E01D1CC
:104BD00009250FE00EB108250CE006250021094843
:104BE000006880B2801C084A42F810103020074943
:104BF000088000BF014909680D7270BD1C000020CB
:104C000020000020505C0040006000402E0000208A
:104C100008B54FF4A060FFF757FF32208DF8000071
:104C200002208DF8010000208DF8020001208DF88F
:104C300003006846FFF70EFF1C208DF800000020DF
:104C40008DF8010001208DF802008DF80300684600
:104C5000FFF700FF1D208DF8000000208DF80100F7
:104C600002208DF8020001208DF803006846FFF74E
:104C7000F1FE08BD2DE9F05F05468B461646344629
:104C8000002C00DA64424FF47A7094FBF0F0C7B263
:104C90004FF47A7094FBF0F100FB1140642190FB1B
:104CA000F1F000F0FF08642094FBF0F100FB1140EC
:104CB0000A2190FBF1F000F0FF090A2094FBF0F1CB
:104CC00000FB114000F0FF0A3A465946284600F022
:104CD000C9F842465946681CC0B200F0C3F84A46BB
:104CE0005946A81CC0B200F0BDF852465946E81C0F
:104CF000C0B200F0B7F8BDE8F09F07E040F23751CE
:104D000000BF0A00A1F10101FBD1401E0028F5D12E
:104D1000704770B50646002415E004F1B001C8B232
:104D200000F034F9012000F031F9102000F02EF9E4
:104D3000002504E0304600F055F9681CC5B2802D0E
:104D4000F8DB601CC4B2082CE7DB70BD08B501219C
:104D5000102000F0C5FC0F20ADF8000003208DF8F6
:104D6000020010208DF8030069463D48FDF7C0FFA2
:104D700008213B48FEF799F802213948FEF793F8DD
:104D80003220FFF7BAFF02213548FEF78EF80021E6
:104D9000AE2000F0CBF80021D52000F0C7F80021AC
:104DA000802000F0C3F80021A82000F0BFF8002107
:104DB0003F2000F0BBF80021D32000F0B7F800211D
:104DC000084600F0B3F80021402000F0AFF80021C1
:104DD0008D2000F0ABF80021142000F0A7F800218E
:104DE000202000F0A3F80021022000F09FF800210D
:104DF000A12000F09BF80021C82000F097F80021C6
:104E0000DA2000F093F80021122000F08FF8002142
:104E1000812000F08BF80021EF2000F087F80021BE
:104E2000D92000F083F80021F12000F07FF8002164
:104E3000DB2000F07BF80021402000F077F8002113
:104E4000A42000F073F80021A62000F06FF80021E4
:104E5000AF2000F06BF80020FFF75BFF08BD0000FB
:104E6000001001402DE9F04105460F46164600BFEF
:104E700005EB45014906080E394600F045F80024C7
:104E80000AE006F1100101EB4101054A02EB410184
:104E9000085D00F0A7F8641C062CF2DBBDE8F08189
:104EA000F49A02082DE9F0470446884615464FF06B
:104EB0000009002600274146204600F025F81CE0A6
:104EC000E85D203800F0FF097E2C04DD002408F1A5
:104ED000010000F0FF08002609E009EB4901094A3A
:104EE00002EB4101885D00F07DF8701CC6B2062E11
:104EF000F3DBA01DC4B2781CC7B2E85D0028DFD187
:104F0000BDE8F087F49A020870B504460D4605F135
:104F1000B001C8B200F03AF8102141EA141000F0D4
:104F200035F804F00F0000F031F870BD70B504469C
:104F30000E4626B101211448FDF7B7FF03E0012119
:104F40001148FDF7B0FF002517E008210E48FDF7D6
:104F5000AAFF14F0800F04D004210B48FDF7A5FF31
:104F600003E004210848FDF79EFF08210648FDF7ED
:104F70009CFF6006040E681CC5B2082DE5DB01210C
:104F80000148FDF792FF70BD0010014070B5044666
:104F9000082501211248FDF786FF08211048FDF77A
:104FA00082FF00BF16E014F0800F04D004210C48EB
:104FB000FDF77BFF03E004210948FDF774FF08219A
:104FC0000748FDF772FF00BF08210548FDF76BFF9A
:104FD0006006040E2800A5F10101CDB2E3D170BD39
:104FE0000010014070B50446082501211348FDF763
:104FF0005CFF00BF08211148FDF755FF00BF16E018
:1050000014F0800F04D004210C48FDF74EFF03E09C
:1050100004210A48FDF747FF08210848FDF745FF2E
:1050200000BF08210548FDF73EFF6006040E28007A
:10503000A5F10101CDB2E3D170BD00000010014027
:1050400010B511480068047A022C01D0042C01D15B
:10505000082412E0032C01D0052C05D1FCF7F2FE48
:1050600009480068047A08E0072C05D10749096857
:10507000C8688047082400E00824034909680C72C6
:1050800000F0F4F810BD00001C00002020000020FB
:10509000F0B5561C7510064E06EB41042B4604E095
:1050A00080CC20F8017B401C5B1E002BF8D1F0BDAA
:1050B0000060004000B587B00121032000F0F0FA45
:1050C00001210C2000F00CFB0F20ADF81800282067
:1050D0008DF81B0006A95548FDF70AFEC020ADF863
:1050E000180006A95148FDF703FE0120ADF818008D
:1050F00006A94F48FDF7FCFD4FF6FF70ADF8100014
:105100004720ADF80C000020ADF81200ADF80E00FD
:1051100003A94FF0804002F093F903A9454802F03B
:105120008FF90020ADF80000ADF802000120ADF8C5
:1051300004000020ADF80600ADF8080069464FF005
:10514000804001F081FF69463A4801F07DFF04206C
:10515000ADF800000020ADF802000120ADF8040019
:105160000020ADF80600ADF8080069464FF0804019
:1051700001F06AFF69462F4801F066FF0820ADF88C
:1051800000000020ADF802000120ADF8040000206E
:10519000ADF80600ADF8080069464FF0804001F018
:1051A00053FF6946234801F04FFF0C20ADF8000083
:1051B0000020ADF802000120ADF804000020ADF899
:1051C0000600ADF8080069464FF0804001F03CFF52
:1051D0000121880701F01AFE0121164801F016FE90
:1051E00001220221480701F085FF0122042108075E
:1051F00001F080FF01220821C80601F07BFF012297
:105200001021880601F076FF01220221094801F0F1
:1052100071FF01220421074801F06CFF01220821DF
:10522000044801F067FF07B000BD0000000801401E
:10523000000C01400004004008B50121082000F0E6
:105240004FFA4FF47070ADF8000018208DF803008D
:1052500003208DF8020069460248FDF749FD02F07F
:1052600041F908BD000C01407047000010B50D4821
:1052700090F82C10002000F065FE0B480068007AC2
:10528000082805D1400209490880102008490880F3
:1052900005480068007A092801D1012010BD0020CE
:1052A000FCE70000A00000201C0000202C000020D3
:1052B0002E0000202DE9F05F04464FF07F594FF09B
:1052C0007C512046FAF7A8FF824625462E460C4818
:1052D000A0EB6606354629465046FAF79DFF834601
:1052E0002946FAF799FF80464946FAF792FF0746A2
:1052F0002946FAF791FF05462846BDE8F09F0000D1
:10530000DF59375F2DE9F84F04460025E168E06872
:10531000FAF782FF0090A168A068FAF77DFF814646
:1053200061686068FAF778FF824621682068FAF7BA
:1053300073FF83465146FAF717FF80464946FAF74E
:1053400013FF07460099FAF70FFF0646FFF7B2FF73
:10535000054620682946FAF75FFF20606068294605
:10536000FAF75AFF6060A0682946FAF755FFA06077
:10537000E0682946FAF750FFE060BDE8F88F2DE9B4
:10538000FF4F87B0044615461E46206806906768A2
:10539000D4F80880E068059031460598FAF73CFF9C
:1053A000294604904046FAF737FF039087F0004003
:1053B00001900899FAF730FF02900399FAF726FF57
:1053C00083460499FAF722FF82461499FAF724FFDC
:1053D00081462168FAF7C8FE206031464046FAF758
:1053E0001BFF294604900598FAF716FF03900899C9
:1053F0000698FAF711FF02900399FAF707FF834620
:105400000499FAF7B1FE82461499FAF705FF81462E
:105410006168FAF7A9FE606031463846FAF7FCFE8B
:10542000294604900698FAF7F7FE03900899059824
:10543000FAF7F2FE02900399FAF796FE8346049972
:10544000FAF7E4FE82461499FAF7E6FE8146A1686F
:10545000FAF78AFEA06031460698FAF7DDFE294683
:1054600004903846FAF7D8FE039088F00040019087
:105470000899FAF7D1FE02900399FAF775FE834670
:105480000499FAF771FE82461499FAF7C5FE81462F
:10549000E168FAF769FEE0600BB0BDE8F08F00004C
:1054A0002DE9F04F85B004460D46E168E068FAF753
:1054B000B3FE0390A168A068FAF7AEFE029061689F
:1054C0006068FAF7A9FE019021682068FAF7A4FE47
:1054D00000900199FAF748FE83460299FAF796FE82
:1054E00082460399FAF792FE0646A1686068FAF7C9
:1054F00093FE8346E1682068FAF78EFE59460390D2
:10550000FAF732FE82464FF08041FAF785FE0746F1
:10551000A1682068FAF780FE8346E1686068FAF7C0
:105520007BFE59460390FAF771FE82464FF08041A8
:10553000FAF772FE8046E168A068FAF76DFE8346CE
:1055400061682068FAF768FE59460390FAF70CFE86
:1055500082464FF08041FAF75FFE8146E168E068DD
:10556000FAF75AFE0390A168A068FAF755FE029078
:1055700061686068FAF750FE019021682068FAF7C8
:105580004BFE00900199FAF741FE83460299FAF723
:105590003DFE82460399FAF7E7FD0490404602F08B
:1055A00089FF80F0004028604846049903F0E8F93C
:1055B00068600748C07810B90548407820B931467E
:1055C000384603F0DDF9A86005B0BDE8F08F0000B3
:1055D000D61C00202DE9FE4305460C46A168206834
:1055E000FAF71AFE0746E1686068FAF715FE80468A
:1055F0003946FAF70BFE06464FF08041FAF70CFEEB
:105600000090E168A068FAF707FE07466168206825
:10561000FAF702FE80463946FAF7A6FD06464FF035
:105620008041FAF7F9FD0190A168A068FAF7F4FD4E
:10563000804661686068FAF7EFFD81464146FAF7F7
:1056400093FD07464FF08041FAF7E6FD06464FF01E
:105650007E51FAF7DEFD029000980199029A2860C7
:105660006960AA60BDE8FE8301460020034A5068D5
:1056700020F4404008435060704700000010024092
:1056800029B1064A52690243044B5A6104E0034AB5
:1056900052698243014B5A6170470000001002407A
:1056A00029B1064AD2690243044BDA6104E0034A95
:1056B000D2698243014BDA6170470000001002405A
:1056C00029B1064A12690243044B1A6104E0034AF5
:1056D00012698243014B1A617047000000100240BA
:1056E00029B1064A92690243044B9A6104E0034AD5
:1056F00092698243014B9A6170470000001002409A
:1057000029B1064AD2680243044BDA6004E0034A36
:10571000D2688243014BDA607047000000100240FB
:1057200030B500210022002400232D4D6D6805F0C6
:105730000C0121B1042905D0082923D105E0294D08
:10574000056022E0284D05601FE0254D6D6805F4D9
:105750007012234D6D6805F48034022505EB9242EA
:105760001CB9224D554305600BE01D4D6D6815F4C5
:10577000003F03D01B4D5543056002E01A4D5543D1
:10578000056002E0174D056000BF00BF144D6D6855
:1057900005F0F0010909164D6B5C0568DD404560B8
:1057A0000F4D6D6805F4E061090A114D6B5C4568A9
:1057B000DD4085600A4D6D6805F46051C90A0C4DE5
:1057C0006B5C4568DD40C560054D6D6805F4404182
:1057D000890B084D6B5CC568B5FBF3F5056130BD01
:1057E0000010024000127A000024F40000093D007D
:1057F00000000020100000200149086070470000F0
:10580000D800424230B586B04E4A1278521C4D4BF9
:105810001A7000207CE04C4A32F81020B2F52F6F4D
:1058200005DC494A32F81020B2F5487F05DA474ACC
:1058300032F81020444B23F81020434B33F810303B
:105840001BB2404C2278D41702EB9474A410A2EB44
:1058500084043F4D05EBC00525F814303A4A32F870
:1058600010203A4B23F8102000223A4B23F8102046
:1058700003AB23F8102046F2A8122DF810200021C7
:1058800031E0334A02EBC00232F9112003AB33F8A6
:1058900010309A4207DD2E4A02EBC00232F8112086
:1058A00003AB23F810202A4A02EBC00232F9112080
:1058B0003DF810309A4207DA254A02EBC00232F86E
:1058C000112092B22DF81020214A02EBC00232F8CA
:1058D0001120204B33F810301A4412B21D4B23F81C
:1058E00010204A1CD1B20429CBDB03AB33F81030B3
:1058F0003DF810402344174C34F91040E21A02EBF3
:10590000D2735B101BB2134C24F81030421CD0B27F
:10591000062880DB0F4AB2F906200F4B9A80DA8105
:105920000C4AB2F90420DA809A810A4AB2F90020BE
:105930001A801A81074AB2F902205A805A8106B0A9
:1059400030BD000040020020D6130020E6130020E6
:10595000881C0020B81C0020C41C0020002000214E
:1059600012E08010394A32F91120B2F5966F01DD4C
:1059700040F08000354A32F91120B2F5E16F01DACA
:1059800040F040004A1CD1B20429EADB304A1278C8
:10599000904209D12F4A1278FA2A08DA2D4A127851
:1059A000521C2C4B1A7002E000222A4B1A70284A13
:1059B0001070284A1278962A2DD1274A12793AB1C6
:1059C000234A12785F2A26D10022234B1A7122E043
:1059D0001F4A12786F2A02D101221F4B1A711C4AEA
:1059E00012785E2A02D101221B4B9A71184A127852
:1059F000962A05D1184A127A12B10122164BDA7191
:105A0000134A1278A52A03D10122134B1A7202E01D
:105A10000022114B1A72104A1279B2B10C4A127854
:105A20007F2A0FD10D4A128840F6C4139A4205DA34
:105A30000A4A1288521C094B1A8006E00022064BC3
:105A40001A7102E00022054B1A807047C41C002026
:105A50003C0200203D020020D61C00203E02002017
:105A600010B5FFF77BFF02480068804710BD0000BB
:105A70003802002000210448016181654163C1674B
:105A8000C0F8C41070470000701E002010B509480F
:105A9000006805280CD1084801680068401C064AC7
:105AA0001060052904D1002011460860FDF716F8A2
:105AB00010BD0000240100204C00002000B587B07C
:105AC0000121C803FFF7ECFD01212D20FFF708FE9F
:105AD0002820ADF8180003208DF81A0018208DF842
