:020000040802F0
:10000000204A00204501020801610208813D0208E2
:10001000495D0208011C0208E19E02080000000080
:100020000000000000000000000000003F7A02080D
:10003000A128020800000000DD6E02085D01020830
:100040005F0102085F0102085F0102085F01020808
:100050005F0102085F0102085F0102085F010208F8
:100060005F0102085F0102085F0102085F010208E8
:100070005F0102085F010208F52102085F01020822
:100080005F0102085F0102085F0102085F010208C8
:100090008D9802085F0102085F0102085F010208F3
:1000A0005F0102085F0102085F0102085F010208A8
:1000B0005D860208518802085F010208B547020800
:1000C000AD470208C5470208BD4702085F010208A4
:1000D0005F0102083D9602085F0102085F01020805
:1000E0005F0102085F0102085F0102085F01020868
:1000F0005F0102085F0102085F0102085F01020858
:100100005F0102085F010208C18A02085F0102085C
:100110005F0102085F0102085F0102085F01020837
:100120005F0102085F0102085F0102085F01020827
:10013000DFF80CD000F088FC00480047D1C002086E
:10014000204A00200648804706480047FEE7FEE7B1
:10015000FEE7FEE7FEE7FEE7FEE7FEE7FEE7FEE777
:10016000BD830208310102082DE9F05F0546002039
:1001700092469B4688460646814640241BE0284618
:1001800041464746224600F086FB53465A46C01A6F
:10019000914110D311461846224600F06DFB2D1AEE
:1001A00067EB01084F4622460120002100F064FB66
:1001B00017EB00094E41201EA4F10104DFDC484684
:1001C00031462A464346BDE8F09FF0B480EA01027A
:1001D000D40F4200B2EB410F02D20246084611464C
:1001E0004A0042D0C30DDDB2C1F3C752AD1A202D73
:1001F00035DAC1F3160141F4000204B15242C5F1EF
:10020000200602FA06F12A411044B3EBD05F23D056
:10021000C4B1012DA0EBC35009DCF0BC4FF000428B
:1002200002EAC352DBB200F5000000F05FBB400001
:1002300000F1807000EBC350A0F1807040EAD170F3
:10024000490009E0490841EAC071A0EBC35000F53C
:100250000000400800EBC350F0BC00F03EBB614220
:10026000012202EB4101001BF6E7F0BC704781F070
:100270000041AAE780F00040A7E780EA010210B53C
:1002800002F00043400022D04A001FD0010E01EBD3
:100290001261C0F35600C2F3560240F4000042F46B
:1002A0000002A0FB022000047F39140400D0401C8F
:1002B00050EA124001D44000491EC2B20C0604EBC1
:1002C000D010401C4008802A02D003E0002010BD5E
:1002D00020F00100002900DA0020184310BD30B4DE
:1002E00080EA010202F0004530F0004221F00040B7
:1002F00013D090B1C30DD40DC2F31601C0F3160094
:10030000E41A41F4000140F400027D34914201D32B
:10031000641C00E04900002C02DA30BC0020704769
:100320004FF400000023914201D3891A034340088F
:100330004FEA4101F7D151B1914202D14FF0004152
:1003400005E002D24FF0010101E06FF0010103EB83
:10035000C450284430BC00F0C0BA2DE9FE4F80469E
:1003600081EA0300C00F0C46009021F0004123F009
:100370000045B8EB0200A94105D24046214690460F
:100380001C460B46024623F00040104347D0270D81
:10039000C7F30A00C3F30A510290401A01904028A3
:1003A0006BDAC3F3130040F4801B0098924620B12F
:1003B0000023D2EB030A63EB0B0B01985946C0F103
:1003C0004002504600F058FA06460D46504659463F
:1003D000019A00F070FA10EB08006141002487EAEE
:1003E000115284EAE7731A4340D0009A62B3019A2B
:1003F000012A4FEA075215DC001B61EB02014FF0A6
:10040000004202EA0752CDE90042001C41F580118A
:1004100032462B4600F0B3FA03B0BDE8F08F4046F9
:100420002146F9E7001B61EB0201001C41F5801336
:1004300000185B412018A2F5001747EB030140EAC2
:10044000D570B6196D4111E06D084FEA360645EAE0
:10045000C0754FEA0752001B61EB0201001C41F519
:10046000801149084FEA30000019514132462B46AD
:1004700003B0BDE8F04F00F073BA009801224000CD
:100480000023D0EB020263EBE073009821464FEAB1
:10049000E074B8EB000061EB0401E9E783F000438E
:1004A0005BE781F0004158E72DE9FE4F81EA030444
:1004B00004F0004421F0004100944FF0000B23F0C1
:1004C000004350EA01045ED052EA03045BD0C3F358
:1004D0000A54C1F30A552C44A4F2F3340194A0FB4E
:1004E0000254C1F3130141F48011C3F3130343F425
:1004F000801301FB024400FB034E840A970A44EA7E
:10050000815447EA8357A4FB076802958D0A05FBCF
:1005100007854FEA932C04FB0C542705029D4FEAF4
:10052000065847EA1637B5EB08056EEB070C870E41
:10053000920E47EA811742EA8312A7FB0201B6EB4B
:100540000B0164EB00042B0D43EA0C335E1844EB03
:100550001C50DA465146E7FB0201C5F313044FEA8B
:100560000B3343EA14534FEA0432019C43EA060377
:10057000A4F10C040294009CCDE900B400F0FFF952
:1005800003B0BDE8F08F00200146F9E72DE9F04DFA
:1005900081EA030404F0004B21F0004514464FF0BB
:1005A000000A23F0004150EA050220D054EA01027B
:1005B0001DD0C5F30A570246C5F31303C1F3130058
:1005C000C1F30A5640F4801543F48013A7EB0608E4
:1005D000101BD64608F2FD3873EB050002D308F174
:1005E000010801E092185B41B8F1000F03DA002026
:1005F0000146BDE8F08D00204FF480110646844688
:100600000EE0171B73EB050705D3121B63EB050305
:1006100006434CEA010C49084FEA300092185B414E
:1006200050EA0107EDD152EA030012D082EA040039
:1006300083EA0501084305D0101BAB4106D2012215
:10064000002306E000224FF0004302E06FF00102B9
:1006500053101AEB06004CEB085110EB0A0041EB6B
:100660000B01BDE8F04D00F07BB9C10F80EAE070EE
:100670000844CA079623002100F038B996230022C7
:10068000114600F033B930B40446962308002146E1
:1006900004D0B62330BC002200F028B92046002147
:1006A000F8E70EB5C10F80EAE0700844CA070021E0
:1006B00040F233438DE80E000A460B4600F05FF926
:1006C00003B000BD0EB540F2334102910021CDE9E7
:1006D00000110A460B4600F052F903B000BD0EB5FA
:1006E00040F2334202920022CDE90022134600F08C
:1006F00046F903B000BD00F0004220F00040C10DFB
:10070000C0F3160040F400007F2901DA0020704792
:10071000962903DCC1F19601C84001E09639884072
:10072000002AF4D04042704720F00040C10DC0F3D1
:10073000160040F400007F2901DA00207047962956
:1007400003DCC1F19601C840704796398840704774
:1007500070B5C1F30A5201F000450024C1F3130142
:1007600040F2FF3341F480119A4201DA002070BD5B
:1007700040F233439A42A2F2334203DC524200F089
:100780008AF800E090402C43F1D0404270BDC1F3A4
:100790000A5210B5C1F3130140F2FF3341F4801146
:1007A0009A4201DA002010BD40F233439A42A2F28D
:1007B000334203DC524200F06EF810BD904010BD91
:1007C00000F0004230F000400AD0C10D01F5607128
:1007D000C0F3160042EA0151C208400711437047B6
:1007E000002001467047000030B5041E71F100047E
:1007F00004DB4FF00044404264EB0101141E73F12E
:10080000000405DB1C464FF00043524263EB040337
:100810008B4208BF824230BD01F0004330B421F06A
:10082000004150EA010206D00A0DA2F56072C1F340
:100830001301002A02DC30BC00207047440F44EA58
:10084000C104C100E01830BC00EBC25000F045B854
:10085000002801DBC0F10040002901DBC1F10041AB
:1008600081427047002801DBC0F10040002901DB14
:10087000C1F1004188427047202A04DB203A00FA87
:1008800002F1002070479140C2F1200320FA03F3E7
:10089000194390407047202A04DB203A21FA02F0E5
:1008A0000021704721FA02F3D040C2F120029140AA
:1008B000084319467047202A06DBCB17203A41FA35
:1008C00002F043EAE07306E041FA02F3D040C2F1DD
:1008D000200291400843194670470029A8BF70477D
:1008E000401C490008BF20F00100704710B4B0FA66
:1008F00080FC00FA0CF050EA010404BF10BC704701
:1009000049B1CCF1200421FA04F411FA0CF118BF1A
:10091000012121430843A3EB0C01CB1D4FEA0061E9
:100920004FEA102042BF002010BC704700EBC350BC
:1009300010440029A4BF10BC7047401C490008BFE8
:1009400020F0010010BC7047420005D0C0F3C75230
:100950005242914201DC0020704700EBC1507047C9
:1009600010B5141E73F1000408DA401C41F10001B7
:1009700092185B411A4301D120F0010010BD2DE90E
:10098000F04D92469B4611B1B1FA81F202E0B0FA05
:1009900080F220329046FFF76FFF04460F4640EA90
:1009A0000A0041EA0B0153465A46084313D0114648
:1009B00053EA010019D0C8F140025046FFF76BFF1F
:1009C00005460E46504659464246FFF755FF084336
:1009D00005D0012004E020463946BDE8F08D002016
:1009E000054346EAE0762C4337430A986305E40A58
:1009F000A0EB08000022FD0A44EA47540A3002D561
:100A000000200146E9E7010510196941DDE90845C3
:100A100000196941BDE8F04DA2E770B521F000432F
:100A200003430CD0C1F30A550024D5EB040564EB55
:100A30000403D617AD1AB34102DB0020014670BD96
:100A4000201841EB025170BD064C074D06E0E068EE
:100A500040F0010394E8070098471034AC42F6D305
:100A6000FFF76AFB60D8020880D80208F0B40028BB
:100A700002DCF0BC00207047C0F3C751C0F3160081
:100A800040F40000CA0701D14000491E3F2202EB9A
:100A90006105002211464FF4000626FA01F31344C3
:100AA000D418844201D8001B1A464000491C17295B
:100AB000F3DD5100814202D24FF0FF3100E000210E
:100AC00002EBC550F0BCFFF708BF70B58C1810F8EA
:100AD000015B15F0070301D110F8013B2A1106D183
:100AE00010F8012B03E010F8016B01F8016B5B1E9D
:100AF000F9D12B0705D40023521E0DD401F8013B78
:100B0000FAE710F8013BCB1A921C03E013F8015BE3
:100B100001F8015B521EF9D5A142D8D3002070BD67
:100B200008B50121084606F0E5FB01214FF40170EC
:100B300006F010FC4FF4004006F0D0FB1020ADF89A
:100B4000000000208DF803006946024802F05EFDB7
:100B500008BD00000008014010B5FFF7E1FF00F0FC
:100B600001F810BD00B591B0334801F069FB33487E
:100B7000069033480790002008900120099000203B
:100B80000A9080200B9040000C9080000D90202057
:100B90000E9000020F900020109006A9264801F048
:100BA000FEFB0121244801F03FFB002001900120C1
:100BB0008DF808008DF809004FF4602003900020A4
:100BC000049001208DF8140001A91C484C3800F055
:100BD0006FF805230122042118484C3800F090F8E2
:100BE000002116484C3800F043F8012113484C38D6
:100BF00000F033F8012111484C3800F023F80F4879
:100C00004C3800F0D9F800BF0C484C3800F045F8DB
:100C10000028F9D109484C3800F0DEF800BF074839
:100C20004C3800F030F80028F9D1012103484C3845
:100C300000F0C7F811B000BD080002404C2401408C
:100C40003001002021B1826842F00102826003E09D
:100C5000826822F001028260704721B1826842F40A
:100C60008072826003E0826822F480728260704742
:100C700021B1826842F48012826003E0826822F42B
:100C8000801282607047014600208A6802F00402E8
:100C90000AB1012000E000207047014600208A6868
:100CA00002F008020AB1012000E0002070470000B5
:100CB00030B502460020002350680F4C20400D79CB
:100CC0000C6844EA05242043506090680B4C204097
:100CD000D1E902542C434D7944EA45042043906005
:100CE000D06A20F470000C7C641EE4B2234340EA16
:100CF0000350D06230BD0000FFFEF0FFFDF7F1FFB2
:100D0000F0B504460D4600200021092D11DDE068F4
:100D1000A5F10A0606EB4607072606FA07F18843FF
:100D2000A5F10A0606EB460603FA06F10843E06061
:100D30000CE0206905EB4507072606FA07F1884312
:100D400005EB450603FA06F108432061072A0FDA8E
:100D5000606B561E06EB86071F2606FA07F18843CE
:100D6000561E06EB860605FA06F10843606322E08C
:100D70000D2A0FDA206BD61F06EB86071F2606FA10
:100D800007F18843D61F06EB860605FA06F10843ED
:100D9000206310E0E06AA2F10D0606EB86071F262D
:100DA00006FA07F18843A2F10D0606EB860605FA5E
:100DB00006F10843E062F0BD816841F008018160FE
:100DC000704721B1826842F4A002826003E0826829
:100DD00022F4A00282607047816841F004018160C2
:100DE000704700002DE9F04F8FB0934A11691069E8
:100DF000FFF743FA0746904AD168D068FFF73DFAFB
:100E000080468D4A91689068FFF737FA83464146DD
:100E1000FFF7DBF905463946FFF7D7F9064606F036
:100E200083F80890844988680899FFF726FA0E909D
:100E30008149C8680899FFF720FA0D907E49086932
:100E40000899FFF71AFA0C907C4905A806F0FCF9FE
:100E500005AD7B490598086006984860079888604A
:100E6000084641680C98FFF708FA054674488168FF
:100E70000D98FFF702FA06462946FFF7F8F90446EF
:100E80006F4881680E98FFF7F8F905466C480168CD
:100E90000C98FFF7F2F906462946FFF7E8F9814674
:100EA000674801680D98FFF7E8F90546644841680E
:100EB0000E98FFF7E2F906462946FFF7D8F9824671
:100EC00060492046FFF7D9F905465F480168284682
:100ED000FFF77BF95C4908605A494846FFF7CDF9AE
:100EE00005465A4801682846FFF76FF957490860D8
:100EF00054495046FFF7C1F9054655480168284650
:100F0000FFF763F9524908604F480068FFF758FC43
:100F1000CDE90401204609F081F883464D49FFF7E9
:100F2000ACF980462146FFF7A8F90746FFF748FCD1
:100F300005460E464049C86BFFF742FC074606F0DF
:100F400071FC2A463346CDE90001FFF706FACDE9E8
:100F50000201DDE90423FFF700FACDE90601FFF7FE
:100F60005BFC0B9039480068FFF72AFCCDE90401CF
:100F7000484609F053F883463649FFF77EF906469E
:100F80004946FFF77AF90546FFF71AFC07468846F7
:100F90002949086CFFF714FC054606F043FC3A4665
:100FA0004346CDE90001FFF7D8F9CDE90201DDE9BB
:100FB0000423FFF7D2F9CDE90601FFF72DFC0A90D3
:100FC00023480068FFF7FCFBCDE90401504609F017
:100FD00025F820490090FFF750F951460190FFF79E
:100FE0004CF98346FFF7ECFBCDE902011249486C4E
:100FF000FFF7E6FBCDE9000106F014FC0746DDE94A
:101000000223FFF7AAF90546DDE90423FFF7A5F956
:10101000CDE90601FFF700FC09900F480090074852
:10102000DDE909320B9905F0E4FF044805F0A4FF5F
:101030000FB0BDE8F08F0000701E0020F803002004
:10104000E02300206F12033A1C040020200400203B
:1010500024040020CDCC4C3F0AD7A33A2DE9F04F11
:1010600087B000F029F98848FFF7BCFE8749864819
:1010700006F050F885494868FFF7A2FB06460BF0DA
:10108000E7F80446FFF7C8FB059080490868FFF7BA
:1010900097FB06460BF0DCF80446FFF7BDFB069015
:1010A0007A494868FFF78CFB06460AF09BF904462C
:1010B000FFF7B2FB049075490868FFF781FB06460D
:1010C0000AF090F90446FFF7A7FB03907048C07838
:1010D00000287DD16E484078002879D06D49B1F95B
:1010E0000400FFF7C2FA07460499FFF7C6F8064660
:1010F0000699FFF7C2F804466649B1F90200FFF706
:10110000B4FA81460699FFF7B8F880460599FFF7CB
:10111000B4F806465F49B1F90000FFF7A6FA804629
:101120000399FFF7AAF807463146FFF74EF8054640
:101130002146FFF79CF883465649B1F90400FFF7B2
:1011400094FA06460599FFF798F804465149B1F913
:101150000200FFF78AFA06460499FFF78EF8054663
:101160002146FFF732F802905846FFF729FBCDE9F8
:1011700000010298FFF724FB8046DDE9002309F017
:1011800003FF064601F08EFB81F000410446FFF7A5
:1011900043FB82464048C0F800A04049486C4FF0ED
:1011A0008041FFF76AF805463D49FFF766F80446B7
:1011B000364881682046FFF708F834498860394985
:1011C0005046FFF74FFB07D237498868374900E0A0
:1011D00032E0FFF73DFB0AD334495046FFF738FBB6
:1011E00019D2314988682F49FFF73CFB13D23049A7
:1011F0005046FFF742F806462B48806880F00045CD
:101200002C492846FFF739F804463146FEF7DDFF42
:10121000254988600FE026495046FFF72EF804461E
:10122000214988682349FFF728F805462146FEF73B
:10123000CCFF1D4988600BE014498868FFF7C0FAAD
:10124000064601F02FFB0446FFF7E6FA16498860D0
:101250000E494868FFF7B4FA064601F023FB04463E
:10126000FFF7DAFA1049486008490868FFF7A8FA5A
:10127000064601F017FB0446FFF7CEFA0A4908605C
:1012800007B0BDE8F08F0000F8030020C82300205D
:10129000A022002008040020F0030020701E00207F
:1012A0000AD7A33A0000B442D42300200000B4C2FD
:1012B000A69B443C91ED7C3F2DE9FF4104F0CAF828
:1012C0004D4802F03BFC4D49B1F90000FFF7E9F948
:1012D00006460F4605204A494A4BCDE900304A4BA5
:1012E0004A4ACDE902103046394603F0C3FC0446B1
:1012F000FFF792FA41498860B1F90200FFF7D1F98E
:1013000006460F4605203E493E4BCDE900303E4B98
:1013100028333E4A2832CDE902103046394603F0E0
:10132000A9FC0446FFF778FA3449C860B1F9040013
:10133000FFF7B7F906460F4605203149314BCDE995
:101340000030314B5033314A5032CDE90210304633
:10135000394603F08FFC0446FFF75EFA274908611F
:10136000C86DFFF72DFA0746294A2A4BFFF79CF86C
:101370000546FFF751FA0446274A214627480068E8
:1013800003F0D0FF1D49C8630846C06B23490860BD
:101390001A49086EFFF714FA07461D4A1D4BFFF75E
:1013A00083F80546FFF738FA04461B4A21461C48D5
:1013B000006803F0B7FF014610480164006C18494B
:1013C00008600E49486EFFF7FBF90746104A114BBB
:1013D000FFF76AF80546FFF71FFA04460E4A214652
:1013E0001048006803F09EFF014604484164406CC9
:1013F0000C490860BDE8FF8108040020701E002031
:10140000C8030020A003002050230020D822002081
:1014100030689DC8FE3F9F3FCBA1C53E1004002011
:1014200014040020180400202DE9F04100250026B6
:101430000027002400201849088400211648418410
:10144000818400BF0FE01448B0F900000544124841
:10145000B0F9020006441048B0F904000744601CCB
:10146000C4B2601CC4B2C82CEDDB95FBF4F000B232
:101470000949088496FBF4F001B20748418497FBC0
:10148000F4F001B204488184002400200349C871AB
:1014900001F0FAFDBDE8F081701E0020A0220020BE
:1014A00010B509480078012804D1002006490870C9
:1014B00002F0C0F90548C07B012804D1002003498F
:1014C000C87308F0FDFC10BD50050020A0220020CC
:1014D0002DE9FE4F9A4A116C9A4A506AFEF7C7FEF0
:1014E0000290974AD16B974AD06EFEF7C0FE0190EA
:1014F000934A516C934AD2F8B400FEF7B8FE0090BC
:101500009049486B0299FEF760FE01468D484163A1
:101510000146C86F0199FEF758FE01468948C16728
:101520000146D1F8C4000099FEF74FFE01468548F8
:10153000C0F8C4100146844A486B844909F0A0FFF2
:1015400001468048416301467F4AC86F7F4909F0E0
:1015500097FF01467B48C16701467B4AD1F8C4002A
:101560007A4909F08DFF01467648C0F8C41001465B
:10157000886A0299FEF781FE01467248C1630146FE
:10158000086F0199FEF779FE01466E48C0F8841095
:101590000146D1F8B8000099FEF76FFE0146694890
:1015A000C0F8CC100246516BD06AFEF766FE0146C9
:1015B000644801640246D16F506FFEF75EFE01463B
:1015C0006048C0F888100246D2F8C410D2F8BC00B7
:1015D000FEF753FE01465B48C0F8D010584A116C24
:1015E000D06CFEF744FE05465648016B2846FEF7D0
:1015F00044FE04465649FEF740FE01465148416408
:101600004F4AD16B906CFEF732FE05464D48816F14
:101610002846FEF732FE04464D49FEF72EFE0146EF
:101620004848C0F88C10464A516C106DFEF71FFEFA
:1016300005464448D0F8C0102846FEF71EFE044672
:101640004349FEF71AFE01463E48C0F8D4103C4814
:10165000016CC164C16B8164416C0165394A116CD4
:10166000D06BFEF7B2FD04463648416C2046FEF7CB
:10167000ACFD0146334881640246D2F88810D2F8A6
:101680008400FEF7A2FD04462E48D0F88C102046B8
:10169000FEF79BFD01462B48C0F890100246D2F899
:1016A000D410D2F8CC00FEF790FD01462548C0F8D2
:1016B000D8100146486A4FF08041FEF710FE82467E
:1016C000FFF77EF806460F461E49886CFFF778F84C
:1016D0008246204A204BFEF7E7FE804632463B46D4
:1016E000FEF73BFE0446FFF797F801461548816474
:1016F0000146C86E4FF08041FEF7F1FD8046FFF7CE
:101700005FF804460D460F49D1F89000FFF758F8EE
:101710008046104A104BFEF7C7FE064622462B466F
:10172000FEF71BFE8246FFF777F801460548C0F832
:101730009010D0F8D810C0F8D810BDE8FE8F000087
:10174000701E0020EC2400200000A0C10000A04179
:10175000000004429A9999999999E93F2DE9F04737
:1017600004460D4681492846FEF781FD80468049A2
:101770000AF004FD07467F49FEF77FFD06467E49D5
:10178000FEF7ADFD7D4908607D497C480068FFF7A4
:101790005FF801D27A4809E0764978480068FFF797
:1017A00061F801D2734801E0744800687349086029
:1017B000744975480068FFF755F809D200216F4851
:1017C0000068FFF74FF812D200206C4908600EE065
:1017D0006E496D480068FFF73BF808D20021674862
:1017E0000068FFF735F802D20020644908606348BA
:1017F00001682046FEF741FD064663480168304611
:10180000FEF7E3FC60490860614801685E480068D3
:10181000FEF72DFD06465F4801683046FEF72DFDB8
:101820005D490860084600685C4948615A4A116889
:10183000584A9068FEF721FD07462146FEF71DFD38
:1018400006465548C1683046FEF7BFFC5249C8609D
:101850005348006880F0004746493846FEF70DFDC2
:1018600006464D48C1683046FEF7FCFF08D24C489A
:10187000006880F000463F493046FEF7FEFC13E06A
:101880003C4947480068FEF7F8FC06464248C168F4
:101890003046FEF7DDFF05D2364941480068FEF7C5
:1018A000ECFC01E03C48C0683B49C8603B498861AA
:1018B000394A51681068FEF7DAFC06463949FEF7E6
:1018C000DCFC3649C861344A51681068FEF7CFFC29
:1018D00081463449FEF7D1FC07463348006880F062
:1018E000004A21465046FEF7C8FC81462F49FEF7C4
:1018F000C4FC80463946FEF768FC06462548416828
:101900003046FEF7BAFC24498860084680682349BF
:101910000862214AD1681068FEF757FC06461E4847
:1019200081683046FEF751FC1B490861086914497B
:10193000FEF78EFF01D2124809E0174908690D49E8
:10194000FEF790FF01D20B4801E0134800691249ED
:1019500008610846006916490860104948620E4847
:1019600000680D494860BDE8F08700000000FA43B8
:101970000000C842000096430000C84380050020D4
:10198000000096C30000FA458405002000007A4458
:10199000B4050020142A0020002A00207C28002002
:1019A00038050020CDCCCC3E980500209A99193FEF
:1019B000BC050020044805490860002088604FF0FD
:1019C0007F504860704700009A99193E142A002001
:1019D0002DE9F05F0446764805210268022004F0F4
:1019E0002FFB814673494846FEF732FF42D27248C8
:1019F00001684846FEF73BFC06460021FEF732FF31
:101A000005D26D4801684846FEF731FC06E06A4899
:101A100001684846FEF72BFC80F000400546674908
:101A2000FEF716FF27D2644801684846FEF71FFC00
:101A3000824663492046FEF720FC834659464FF014
:101A40007E50FEF74CFC80464FF07E51FEF7BDFB0A
:101A5000074639464FF07E50FEF741FC0646514698
:101A6000FEF70BFC0546544801682846FEF7ADFB1F
:101A7000514908606AE0504801684846FEF7F7FBA4
:101A800006460021FEF7EEFE05D24B4801684846A7
:101A9000FEF7EDFB06E0484801684846FEF7E7FB25
:101AA00080F0004005464749FEF7D2FE27D2424863
:101AB00001684846FEF7DBFB824643492046FEF7B5
:101AC000DCFB834659464FF07E50FEF708FC80460B
:101AD0004FF07E51FEF779FB074639464FF07E50B6
:101AE000FEF7FDFB06465146FEF7C7FB05463248AA
:101AF00001682846FEF769FB2F49086026E02E485A
:101B000001684846FEF7B3FB824630492046FEF79F
:101B1000B4FB834659464FF07E50FEF7E0FB80460B
:101B20004FF07E51FEF751FB074639464FF07E508D
:101B3000FEF7D5FB06465146FEF79FFB05461E48BD
:101B400001682846FEF741FB1B4908601A480068F7
:101B50001F4988600846C1681E480068FEF787FB79
:101B6000824619492046FEF788FB834659464FF0C6
:101B70007E50FEF7B4FB80464FF07E51FEF725FB0A
:101B8000074639464FF07E50FEF7A9FB0546514601
:101B9000FEF773FB06460E48C1683046FEF715FB9C
:101BA0000B49C8600C4800680861BDE8F09F000060
:101BB000A80500200000FA45B40500200000C84236
:101BC000C3F5C8400000FA43C3F54840C3F5C83F19
:101BD0007C2800202C020020C805002008B50648FB
:101BE0000649086040F2055000900122694602480B
:101BF000103805F09DFE08BD0000020808ED00E069
:101C000000BFFEE70146CAB20B1243EA022070474A
:101C10002DE9FF416048007802287DDB5F4A1168AA
:101C20000098FEF724FB06465B4908693146FEF73B
:101C3000CCFA594908610846406980F000450A46D7
:101C4000516910692A4609F01BFC534908610A468C
:101C500011699068FEF711FB05464F494868314607
:101C6000FEF70BFB80462946FEF7AFFA4A49486269
:101C70004A4A51680198FEF7FAFA07464649886DC4
:101C80003946FEF7A2FA444988650846C06D80F0DF
:101C900000450A46D16D906D2A4609F0F1FB3E4998
:101CA00088650A46916D106DFEF7E7FA05463A49D8
:101CB000C86C3946FEF7E1FA80462946FEF785FAF8
:101CC0003549C866354A91680298FEF7D0FA05464C
:101CD0003349FEF7C7FD09D3304A91680298FEF7F1
:101CE000C6FA05462F49FEF7B3FD36D20021029809
:101CF000FEF7B8FD16D2294988680021FEF7A8FD35
:101D000010D227490298FEF7B2FA054623488168A7
:101D10002448FEF7ACFA00E030E080462946FEF7A2
:101D200054FA044600210298FEF792FD1BD21B498B
:101D300088680021FEF796FD15D219490298FEF732
:101D400044FA0546154881681548FEF790FA804622
:101D50002946FEF73AFA044605E0104A91680298CF
:101D6000FEF785FA04460C49D1F894002146FEF7A7
:101D700084FA0949C1F8B4000020087006480078C8
:101D8000401C05490870FFF7A3FB074807F074FAE9
:101D900003F0DCFFBDE8FF81EC240020D423002009
:101DA00000003443000034C30AD7233B08B50020A9
:101DB000009022E19748008800F00F0096490870D3
:101DC0000846007800287CD194480068944908802F
:101DD0000846008800F0300092490880904800884A
:101DE00000F440508E4908808C4909684BF6BF7258
:101DF00001EA020080F4005080F0200040F400412D
:101E000041F08001854A11608248008800F010008E
:101E100090BB1046006848F60F71084011460860F4
:101E200002F0A2FF7D4909684BF6BF7201EA020089
:101E30007B49098801F4805109B180F480507849C8
:101E4000098801F4005109B180F4005075490988EE
:101E500001F0100109B180F010007249098801F009
:101E6000200109B180F0200081B241F4004141F02D
:101E700080016A4A116008BDFFE76848006880B2C7
:101E80000090BDF8000000F40060B0B36348006843
:101E9000C0F30E0048F68F7108406049086005F0F5
:101EA0009BFF5E4909684BF6BF7201EA02005C497C
:101EB000098801F4805109B180F48050584909889B
:101EC00000E056E001F4005109B180F4005055499A
:101ED000098801F0100109B180F01000514909880A
:101EE00001F0200109B180F0200081B241F40041ED
:101EF00041F08001494A1160BDE7FFE7BDF80000ED
:101F000000F40040002878D044480068C0F30E0078
:101F100048F68F7108404149086004F0B3FE3F491C
:101F200009684BF6BF7201EA02003D49098801F4D5
:101F3000805109B180F480503949098801F4005179
:101F400009B180F400503749098801F0100109B146
:101F500080F010003349098801F0200109B180F0B8
:101F6000200081B241F4004141F080012B4A116010
:101F700081E7294800782C4901EB8000D0F8000C5B
:101F800080B20090BDF8000000F40040C0B12248CB
:101F9000007801EB8000D0F8000CC0F30E0048F68A
:101FA0008F7108401C4909781F4A02EB8101C1F872
:101FB000000C19490978491E1C4A52F82100804733
:101FC000BDF8000000F08000B8B113480078164951
:101FD00001EB8000D0F8000C48F60F7108400E4964
:101FE0000978114A02EB8101C1F8000C0A4909780D
:101FF000491E0F4A52F821008047084844300068C3
:1020000080B20449088000F4004000287FF4D2AE7A
:1020100000BF30E75000002018000020005C0040A6
:102020002C0000202E0000200050004070000020F6
:10203000540000202DE9F04100244148B0F912007D
:1020400040F2DC51091A3E48B0F91800C0EBC0005C
:10205000143091FBF0F52846FEF707FB394908607C
:102060003748B0F91000A0F2DC503549B1F918102A
:10207000C1EBC101143190FBF1F52846FEF7F5FAEA
:10208000304948602E48B0F9140040F27E41884241
:102090000BDD2D48807901280ED001202A49887156
:1020A0002A4880682749886006E000202649887110
:1020B00026488068234988602148B0F9160040F21C
:1020C000FA51884206DC1E48B0F9160040F2BE51B3
:1020D000884232DA1A48C08A40F2DC51081A04B247
:1020E0002046FEF7C2FA07461949FEF7F8F80646F9
:1020F0001849FEF7C2F80546124881682846FEF7DF
:1021000064F81049886088681349FEF7ABFB07D272
:102110000C4988681149FEF7AAF80A4988600CE062
:10212000084988680E49FEF793FB06D2054988687E
:102130000A49FEF74AF803498860BDE8F0810000CB
:1021400010220020C8250020A0220020D423002037
:1021500000004843CDCCCC3D000034430000B443E4
:10216000000034C30B4A02EB8001D1F8001C01F4DB
:10217000804171B102EB8001D1F8001C48F68F72EA
:1021800011404CF280021143024B03EB8002C2F873
:10219000001C7047005000400B4A02EB8001D1F850
:1021A000001C01F0400171B102EB8001D1F8001C6C
:1021B00048F68F72114048F2C0021143024B03EB04
:1021C0008002C2F8001C704700500040084A02EB31
:1021D0008001D1F8001C48F68F62114048F280025D
:1021E0001143034B03EB8002C2F8001C7047000050
:1021F0000050004010B54FF4005000F007F80020E8
:102200000149087010BD00007804002000F08051E2
:1022100011B10349086001E00249486070470000BD
:10222000040402400000024021B1026842F00102B1
:10223000026004E002684FF6FE731A4002607047C5
:1022400001684FF6FE72114001600021016041609B
:102250008160C1604B49884208D14A4908394968C0
:1022600041F00F01474A083A51608AE0454914316C
:10227000884208D143490839496841F0F001414A90
:10228000083A51607DE03F492831884208D13D49F4
:102290000839496841F470613A4A083A516070E07F
:1022A00038493C31884208D136490839496841F4F7
:1022B0007041344A083A516063E0324950318842F3
:1022C00008D130490839496841F470212D4A083A4B
:1022D000516056E02B496431884208D129490839B8
:1022E000496841F47001274A083A516049E025499C
:1022F0007831884208D123490839496841F0706132
:10230000204A083A51603CE01F49884206D1011F2B
:10231000096841F00F01021F116032E01A491431BF
:10232000884208D11849091F096841F0F001164A8E
:10233000121F116025E014492831884208D1124942
:10234000091F096841F470610F4A121F116018E0FB
:102350000D493C31884208D10B49091F096841F4F5
:102360007041094A121F11600BE007495031884241
:1023700007D10549091F096841F47021024A121F5B
:102380001160704708000240080402401AB1036857
:102390000B43036002E003688B430360704710B592
:1023A0000022026847F6F0739A430C6A8B68234355
:1023B0000C6923434C6923438C692343CC69234331
:1023C0004C6A23438C6A23431A430260CB68436000
:1023D0000B6883604B68C36010BD000000B58BB014
:1023E0001448FFF72DFF1448009014480190102066
:1023F00002901348007803900020049080200590FC
:1024000000200690079008904FF48050099000201B
:102410000A9069460748FFF7C2FF012202210548DA
:10242000FFF7B4FF012280210348001F07F04BF99A
:102430000BB000BD440002400438014032010020CE
:10244000370100202DE9F0472848006800F1100509
:102450002E8826480068077AD6B9042F18D1244858
:10246000007801280FD100212248006880B2801C2A
:10247000214A42F8101030202049088000BF002077
:102480001B49087003E0072710201C49088027E03B
:10249000AC88A64201D8042000E002200746B442DE
:1024A00000D93446A0B2A96888478046002001F0D0
:1024B000B1F98146A2B24946404607F093FDA1B268
:1024C000002005F0BBFB2888001B2880688820447A
:1024D000688030200949088000020949088000BF4F
:1024E000024909680F72BDE8F08700001C00002057
:1024F00016000020505C0040006000402E000020CC
:102500002C0000202DE9F0412848006800F110045B
:102510002688A068C0B1BEB1A588B54200D93546AD
:10252000A8B2A168884707462088401B20806088A1
:1025300028446080002001F04BF98046AAB2414651
:10254000384604F0C7FB00BF208850B14FF440501C
:10255000174908800021084605F070FB3020154916
:1025600008802088A188884204DB03200F4909687D
:10257000087218E02088002804DD05200B4909684E
:10258000087210E0208870B90620084909680872AE
:1025900000210948006880B2801C084A42F81010E7
:1025A000302004490880BDE8F08100001C000020B4
:1025B0002C0000202E000020505C004000600040F5
:1025C00010490978E9B90188FE291AD141880729FB
:1025D00017D18188EA2914D1C188EE2911D1018946
:1025E000AA290ED1418961B98189012909D1054AF8
:1025F00011700021018041808180C1800181418171
:1026000081817047790400202DE9F84F9B480068CC
:1026100045780027BA46062D1BD1984800680078F7
:1026200000F07F00002813D19449096888780128B8
:1026300003D193490968CF690AE0022803D1904980
:1026400009680F6A04E0032802D18D4909684F6ABE
:1026500094E0002D64D189480068408800285FD14B
:1026600086480068C08802285AD1844800680079EA
:10267000002855D181480068007800F07F0028B913
:102680007E480068808808B97E4F77E07B48006804
:10269000007800F07F00012810D178490968487956
:1026A000774909688A6900219047002866D17348F4
:1026B0000068807A002861D0724F5FE06F48006840
:1026C000007800F07F00022858D16C4800684079FB
:1026D00000F00F0669480068407900F0700967480B
:1026E0000068407900F0800038B1674901EB86004E
:1026F000D0F8000C00F0300806E0634901EB8600DA
:10270000D0F8000C00F4405860480078B04235D949
:10271000B9F1000F32D1B8F1000F2FD0594F2DE091
:10272000082D07D155480068007800F07F0028BBCD
:10273000574F23E00A2D21D150480068007800F05F
:102740007F0001281AD14D480068807AB0B14B480B
:102750000068408890B949480068007970B94748D6
:102760000068C088012809D144490968487944496A
:1027700009688A690021904700B9464F57B13F4820
:102780000068A0F812A03D48006887610020B847A3
:1027900000240FE0394A12685078394A12681169EA
:1027A00088470446032C05D109203449096808727A
:1027B000BDE8F88F31480068008A4FF6FF71884203
:1027C00004D109202D4909680872F1E7022C03D0D1
:1027D0002A480068008A20B9082028490968087238
:1027E000E6E726480068007800F08000E0B3234860
:1027F0000068C088009021480068008A00998842DB
:1028000004D91E4900980968088223E01B48006823
:10281000008A1A490968C98888421BDA1748006883
:10282000008A1749096891F82C10884203DA0020C1
:10283000194908700EE011480068008A10490968BB
:1028400091F82C1090FBF1F201FB120010B901205D
:10285000114908700A48006890F82C100748006871
:102860008182FFF7EFFD07E0FFE7032003490968D6
:10287000087200030949088000BF99E71C00002086
:102880002000002011810208005000409800002024
:1028900095800208E5800208160000202C00002028
:1028A000704700002DE9F04104460D464FF0C0424C
:1028B000054B20462946FDF769FE06460022034BDC
:1028C000FDF7F2FDBDE8F081FB2109400080664084
:1028D0002DE9FF5F86B014461D464FF0010A002027
:1028E0000390049005904FF00109002600BF834635
:1028F0000022134620462946FDF776FF09D285F0CF
:102900000040CDE9004020460199FDF721FF064631
:1029100004E020462946FDF71BFF06463046FDF73A
:10292000C0FE22462B46CDE90001FDF7BAFD074661
:1029300088460022544B38464146FDF7B5FDCDE9A7
:102940000001FDF724FF834607E009EB89004FEA09
:1029500040090AF1010000F0FF0A0A2096FBF0F09E
:1029600090FBF9F00028F0D142F2107096FBF0F0E5
:102970000A2190FBF1F201FB1200C0B28DF80C00AD
:102980004FF47A7096FBF0F090FBF1F201FB12002D
:10299000C0B28DF80D00642096FBF0F090FBF1F2D0
:1029A00001FB1200C0B28DF80E000A2096FBF0F079
:1029B00090FBF1F201FB1200C0B28DF80F000A206B
:1029C00096FBF0F100FB1160C0B28DF810002E20D4
:1029D0008DF811004FF47A70BBFBF0F00A21B0FBC8
:1029E000F1F201FB12008DF812006420BBFBF0F045
:1029F000B0FBF1F201FB12008DF813000A20BBFBC3
:102A0000F0F0B0FBF1F201FB12008DF814000A2087
:102A1000BBFBF0F100FB11B08DF8150000211498FC
:102A2000801D03AA1154894608E003A810F8090084
:102A3000303003A901F8090009F10109B9F10A0FC1
:102A4000F3DB0022134620462946FDF7CDFE08D2CF
:102A50000AF1010000F0FF0A2D20CAF1050103AAC6
:102A600050542E208DF8110000211498801D03AAC7
:102A70001154CAF1050003A94218DDE9061003F05C
:102A8000BDFF0AB0BDE8F09F0088C34070B50026C6
:102A9000002411E02146002004F058F8002507E04A
:102AA0003146761C064A505C04F0BEF8681CC5B27C
:102AB000802DF5DB601CC4B2082CEBDB70BD000080
:102AC0009DD2020810B501E004F0A2FE1849B1F948
:102AD0000000411E09B2164A11800028F4D11AE004
:102AE0000721144800F06FFE13A20621232003F0F3
:102AF000FBFF01201349087004F08AFE1248808A07
:102B0000A0F57A7080B21149C8808880488008801A
:102B1000084609F0EFFA0C48B0F9140040F23A7197
:102B20008842DDDA074800780028D9D110BD0000BE
:102B30008603002000140140B5E7B5F7D0A3D7BC49
:102B40000000000085030020102200202405002042
:102B50000346062106221248018812480288ABB1BA
:102B6000012B1BD13AB94EF6EE60814201D1002013
:102B700070470120FCE739B94EF6EE60824201D180
:102B80000120F5E70020F3E7AB20F1E709B90020C9
:102B9000EEE70AB90120EBE7AB20E9E70020E7E721
:102BA000000001080008010810B504240B4800F0DB
:102BB0006FFC0446042C01D0204610BD00210748BC
:102BC00000F0B0FC0446042C01D02046F5E7044890
:102BD00000F05EFC04462046EFE70000000001081C
:102BE0000008010810B507F0DBFB044602F026F9E7
:102BF000204610BD2DE9F84F074689460425DFF829
:102C0000D4A0354800904FF00008002400264FF073
:102C1000000B0020FFF79CFF8046B8F1010F04D1A4
:102C2000DFF8B4A02D4800900AE0B8F1000F04D1FD
:102C3000DFF8A8A02848009002E0AB20BDE8F88F9C
:102C40004EF6EE61504600F06DFC0546042D01D0B5
:102C50002846F3E702F0F2F84946384600F08CFBCC
:102C60000646042E01D03046E8E700241DE01C484B
:102C700030F81400B84216D0194931F81400194937
:102C800000F0D0F98346BBF1010F0CD0154A128831
:102C900091B2134A32F8140000F06EFB0646042E7F
:102CA00001D03046CAE7601C84B24B2CDFDB0098B1
:102CB00000F0EEFB0546042D01D02846BEE70021BA
:102CC000504600F02FFC0546042D01D02846B5E7FC
:102CD0002846B3E7FF0301080000010800080108C7
:102CE000E00200203C01002010B50949088809498C
:102CF00000F098F9064948880649891C00F092F9C5
:102D0000034988880349091D00F08CF910BD0000B3
:102D1000E0020020901E002038B5A549488A694687
:102D200000F080F9BDF8000000B938BDBDF9000021
:102D3000FDF79BFC04469F49FDF7D1FA9E49886246
:102D40009B49888A694600F06DF9BDF90000FDF7DE
:102D50008CFC04469949FDF7C2FA01469648C162C7
:102D60009349C88A694600F05DF9BDF90000FDF796
:102D70007CFC04468F49FDF7B2FA01468E48016398
:102D80008B49088B694600F04DF9BDF90000FDF74D
:102D90006CFC04468749FDF7A2FA87490867844915
:102DA000488B694600F03EF9BDF90000FDF75DFC77
:102DB00004468249FDF793FA01467F4841677C4902
:102DC000888B694600F02EF9BDF90000FDF74DFC37
:102DD00004467849FDF783FA0146774881677449CC
:102DE000C88B694600F01EF9BDF90000FDF73DFCF7
:102DF00004467049FDF773FA6F49C1F8B8006C4991
:102E0000088C694600F00EF9BDF90000FDF72DFCB5
:102E100004466A49FDF763FA01466748C0F8BC10EA
:102E20006349488C694600F0FDF8BDF90000FDF7E4
:102E30001CFC04465F49FDF752FA01465E48C0F8A3
:102E4000C0105B49088D694600F0ECF8BDF9000040
:102E5000FDF70BFC04465749FDF741FA5849086055
:102E60005349488D694600F0DDF8BDF90000FDF7D3
:102E7000FCFB04465149FDF732FA514988604C4940
:102E8000888D694600F0CEF8BDF90000FDF7EDFB36
:102E900004464849FDF723FA494948604449C88D2A
:102EA000694600F0BFF8BDF90000FDF7DEFB0446FF
:102EB0004049FDF714FA434908603D49088E6946C8
:102EC00000F0B0F8BDF90000FDF7CFFB04463B4928
:102ED000FDF705FA3B4988603549488E694600F0A0
:102EE000A1F8BDF90000FDF7C0FB04463149FDF72C
:102EF000F6F9344948602E49888E694600F092F808
:102F0000BDF90000FDF7B1FB04462A49FDF7E7F9DA
:102F10002D4908602649C88E694600F083F8BDF93E
:102F20000000FDF7A2FB04462449FDF7D8F9264925
:102F300088601F49088F694600F074F8BDF90000E9
:102F4000FDF793FB04461B49FDF7C9F91E4948608C
:102F50001749488F694600F065F8BDF90000FDF794
:102F600084FB04461349FDF7BAF918490860104973
:102F7000888F694600F056F8BDF90000FDF775FB33
:102F800004460E49FDF7ABF9104988600849C88F1F
:102F9000694600F047F8BDF90000FDF766FB0446FE
:102FA0000449FDF79CF90949486000BFBDE60000EF
:102FB000E00200200000C842EC24002000007A4417
:102FC000F0280020C4280020142A0020FC2800201B
:102FD00010B51249C888124900F024F80F49088931
:102FE0000F49891C00F01EF80C4948890C49091D3D
:102FF00000F018F8094988890949891D00F012F87C
:103000000649C8890649083100F00CF80349088AC6
:1030100003490A3100F006F810BD0000E00200206C
:10302000D81E00202DE9F04706460F46002545F240
:1030300055584FF00109124CA2460020FFF788FDB9
:103040000546AB2D01D1BDE8F0870D4800EBC52A40
:103050000C480068841E0BE0B4F80080B04506D12F
:1030600034F8020C00B238804FF0000904E0241F4D
:103070000AF102008442EFD800BF4846E3E70000AF
:10308000000001084001002010B50B4AB2F92010E1
:103090000A4A108800F0B4F9074AB2F92210074A28
:1030A000508800F0ADF9044AB2F92410034A908820
:1030B00000F0A6F910BD0000701E0020E002002004
:1030C00070B59948C07A00287ED000209649C87211
:1030D0009649886A9649FDF7D0F80546FDF724FB26
:1030E00084B29449488A21B200F08AF98F49C86AAB
:1030F0009149FDF7C2F80546FDF716FB84B28D49EC
:10310000888A21B200F07CF98849086B8849FDF76C
:10311000B4F80546FDF708FB84B28649C88A21B297
:1031200000F06EF98149086F8149FDF7A6F8054660
:10313000FDF7FAFA84B27F49088B21B200F060F9FA
:103140007A49486F7C49FDF798F80546FDF7ECFA97
:1031500084B27849488B21B200F052F97349886FE4
:103160007349FDF78AF80546FDF7DEFA84B2714926
:10317000888B21B200F044F96C49D1F8B8006C4951
:10318000FDF77BF80546FDF7CFFA84B26949C88B95
:1031900021B200F035F96549D1F8BC006649FDF768
:1031A0006CF80546FDF7C0FA84B26249088C21B27A
:1031B00000F026F95D49D1F8C0005D49FDF75DF8E2
:1031C0000546FDF7B1FA00E0ADE084B25949488CFC
:1031D00021B200F015F9594908685549FDF74DF835
:1031E0000546FDF7A1FA84B25249088D21B200F0DC
:1031F00007F9524988685049FDF73FF80546FDF741
:1032000093FA84B24B49488D21B200F0F9F84B494A
:1032100048684749FDF731F80546FDF785FA84B25D
:103220004449888D21B200F0EBF8454908684049CF
:10323000FDF723F80546FDF777FA84B23D49C88DBE
:1032400021B200F0DDF83E4988683B49FDF715F8EA
:103250000546FDF769FA84B23649088E21B200F0BE
:10326000CFF8374948683249FDF707F80546FDF7BA
:103270005BFA84B22F49488E21B200F0C1F831497F
:1032800008682B49FCF7F9FF0546FDF74DFA84B2B3
:103290002849888E21B200F0B3F82A498868264967
:1032A000FCF7EBFF0546FDF73FFA84B22149C88ED3
:1032B00021B200F0A5F8234948681D49FCF7DDFF5D
:1032C0000546FDF731FA84B21A49088F21B200F0A1
:1032D00097F81D4908681649FCF7CFFF0546FDF72A
:1032E00023FA84B21349488F21B200F089F81649B5
:1032F00088681149FCF7C1FF0546FDF715FA84B24D
:103300000C49888F21B200F07BF80F4948680849C2
:10331000FCF7B3FF0546FDF707FA84B20549C88FED
:1033200021B200F06DF870BDA0220020EC24002036
:103330000000C842E002002000007A44F02800208B
:10334000C4280020142A0020FC28002010B50024E6
:103350000BE0074A126832F91410E21C054B33F8EF
:10336000120000F04DF8601CC4B2062CF1DB10BD59
:103370007C010020E00200202DE9F04104460F46C8
:1033800004250026DFF86C800120FFF7E1FB0646EC
:10339000AB2E01D1BDE8F081701C174901EBC028AC
:1033A00021E0164800680068401CB8B93946134847
:1033B000006800F0B7F80546042D01D02846E9E77B
:1033C00021460E480068801C00F0ACF805460B480A
:1033D0000068001D094908602846DBE707480068C7
:1033E000001D06490860054800684045D9D3802083
:1033F000D0E70000FF070108FEFF000840010020A1
:1034000070B506460C460025A1B23046FFF7B4FF62
:103410000546802D04D1A1B23046FFF7EBFB0546EF
:10342000284670BDF8B50026104D002710E068460C
:1034300009F024F804469DF8000000B90AE09DF860
:103440000000304486B225F8024BAD1C781C87B2D0
:10345000202FECDB00BF06B9F8BD3146012004F097
:10346000EDFB012004F018FC00BFF5E7806100408F
:1034700010B590B06946032006F01EFA84B22146CA
:10348000684609F093F8032004F0AEFB10B010BDBD
:1034900030B5044604254FF4302000F06FF805469F
:1034A000042D17D10C48006940F002000A49086158
:1034B00008464461006940F0400008614FF4302044
:1034C00000F05CF805460448006941F6FD710840CB
:1034D00001490861284630BD0020024004200B4904
:1034E000C96801F0010109B101200EE00749C9686E
:1034F00001F0040109B1022007E00449C96801F0A4
:10350000100109B1032000E00420704700200240B0
:103510000348006940F080000149086170470000DD
:103520000020024070B504460D460426F00200F06B
:1035300025F80646042E11D10948006940F0010023
:10354000074908612580F00200F018F80646044893
:10355000006941F6FE71084001490861304670BDBE
:103560000020024002480349486003484860704711
:103570002301674500200240AB89EFCD00B502462C
:103580000423FFF7ABFF034603E0FFF7A7FF034663
:10359000521E012B01D1002AF7D102B9052318468A
:1035A00000BD000010B51748407910B10020164941
:1035B00008701448407910B9012013490870114867
:1035C000C07910B10220104908700E48007AA8B1E5
:1035D0000C48007A012804D0022806D003280CD118
:1035E00007E004200849087007E005200649087034
:1035F00003E006200449087000BF00BF01F0B2FDDF
:1036000010BD0000A0220020280100202DE9F0417B
:10361000024600250026002000230024002791F800
:1036200003C00CF00F0591F803C00CF0100CBCF1B6
:10363000000F03D091F802C04CEA050591F800C0D4
:10364000BCF1000F31D0146800202BE04FF0010CCA
:103650000CFA00F3B1F800C00CEA03069E4220D138
:1036600083004FF00F0C0CFA03F7BC4305FA03FC80
:103670004CEA040491F803C0BCF1280F06D14FF0C6
:10368000010C0CFA00FCC2F814C00AE091F803C067
:10369000BCF1480F05D14FF0010C0CFA00FCC2F848
:1036A00010C0401C0828D1D31460B1F800C0BCF190
:1036B000FF0F34DD546800202EE000F1080C4FF0BD
:1036C000010808FA0CF3B1F800C00CEA03069E42A8
:1036D00021D183004FF00F0C0CFA03F7BC4305FA1D
:1036E00003FC4CEA040491F803C0BCF1280F05D197
:1036F00000F1080C08FA0CF8C2F8148091F803C025
:10370000BCF1480F07D100F1080C4FF0010808FA8E
:103710000CF8C2F81080401C0828CED35460BDE8D5
:10372000F0810000F0B50A460023002400210025A6
:1037300000F00046B6F1004F02D11D4EF16901E0E4
:103740001B4E7168C0F3034583B200F44016B6F512
:10375000401F08D121F07061154E766826F0706622
:10376000134F7E6012E000F48016B6F5801F06D17C
:10377000032606FA05F4A14341F0706106E0460D08
:10378000360103FA06F6B14341F0706122B1460DED
:10379000360103FA06F6314300F00046B6F1004F59
:1037A00002D1034EF16101E0014E7160F0BD0000F5
:1037B000000001400246002093680B400BB101203D
:1037C00000E00020704741617047016170470000D0
:1037D00001460548006880B200EBC100001D034AA5
:1037E00032F8100080B27047505C0040006000402A
:1037F00001460648006880B200EBC100801D044A03
:1038000032F81000C0F3090070470000505C00401F
:103810000060004001460548006880B200EBC1002E
:10382000034A32F8100080B270470000505C00403C
:103830000060004010B513480078012802D002282B
:1038400017D10BE01048007808B101F0F5FE5820C0
:1038500002F0DEF802200B49087011E002F06CF86B
:10386000482002F0D5F80120074908700549087082
:1038700006E001200349087000200349087000BFDA
:1038800000BF10BD3E0200203F0200202DE9F041A4
:1038900004460A480568001D0668001D07683D4487
:1038A00055B10822A11C284601F03BFB042204F17B
:1038B0001201304601F035FBBDE8F081E8F7FF1F4B
:1038C0002DE9F04707460C4615461E463046FCF7E4
:1038D000D5FE814649463846FCF701FD8046FCF797
:1038E0000AFF01B21148A0F854103046FCF7C6FE9A
:1038F000814649462046FCF7F2FC8046FCF7FBFE79
:1039000001B20A48A0F856103046FCF7B7FE8146CF
:1039100049462846FCF7E3FC8046FCF7ECFE01B282
:103920000248A0F85810BDE8F0870000701E002083
:103930002DE9F04F85B04FF0000800250026002744
:103940000020039004900090019002906D4908704F
:1039500002F00AFF6CA200211E2003F0C5F86DA240
:103960000221182003F0C0F86EA204211E2003F0EB
:10397000BBF840F2DC5007F0C9FD40F2DC5007F024
:10398000C5FDACE0B8F1C80F73DA01F0C7FD6848B7
:10399000407A6749097A40EA012000B26549888681
:1039A0006348C07A6249897A40EA012001B26148DD
:1039B000C1865F48407B5E49097B40EA012001B235
:1039C0005C4801875B49B1F93410009808440090C5
:1039D0005848B0F936000199084401905548B0F9AB
:1039E0003800029908440290BDF90C105148B0F912
:1039F0003400281A04D54F48B0F93400401B03E0C6
:103A00004C48B0F93400281A084400B2ADF80C0054
:103A1000BDF90E104748B0F93600301A04D54548B4
:103A2000B0F93600801B03E04248B0F93600301A86
:103A3000084400B2ADF80E00BDF910103D48B0F9D1
:103A40003800381A04D53B48B0F93800C01B03E0F1
:103A50003848B0F93800381A084400B2ADF8100000
:103A60003448B0F93450B0F93660B0F9387032E00B
:103A7000FFE7BDF90C001E2807DABDF90E001E286D
:103A800003DABDF910001E280EDB4FF000080024F9
:103A900007E0002003A921F814004DF82400601C61
:103AA000C4B2032CF5DB16E00298FCF7DEFD81467C
:103AB0000198FCF7DAFD82460098FCF7D6FD8346B4
:103AC000C8234A465146FFF7FBFE01200D49087006
:103AD00000201949887208F1010000F0FF08094828
:103AE000007800283FF44EAF1348C07908B1FDF7C5
:103AF0009BFC002002F038FE02F0ACFD05B0BDE8F2
:103B0000F08F00007B010020C7EBBDABB7C9D0D060
:103B1000C6F70000D6C3D3DACBAEC6BDD7B4CCACA3
:103B200000000000C7D2B1A3B3D6BEB2D6B9000020
:103B3000601E0020701E0020A02200202DE9FF4101
:103B40000546002602AB062203213C2000F09AFF26
:103B5000594800680A2190FBF1F057490968081A92
:103B6000554908609DF809009DF8081040EA0120B9
:103B700000B25149096808444F4908600846006886
:103B80000A2190FBF1F000B2ADF800004A4840680D
:103B900090FBF1F048494968081A474948609DF888
:103BA0000D009DF80C1040EA012000B2424949681E
:103BB000084441494860084640680A2190FBF1F0FA
:103BC00000B2ADF802003C48806890FBF1F03A4941
:103BD0008968081A384988609DF80B009DF80A101A
:103BE00040EA012000B234498968084432498860BB
:103BF000084680680A2190FBF1F000B2ADF804009D
:103C0000BDF804002D4908809DF80A0048809DF801
:103C10000B0088802A48007A40B1012029490870A9
:103C200000202749C870684601F04AFF25480078FF
:103C300008B3002023490870002415E022480068DA
:103C400030F91400002805DA1F48006830F9140024
:103C5000404203E01C48006830F91400142801DADF
:103C6000701CC6B2601CC4B2062CE7DB022E02DB5D
:103C700001201349C87000241AE01349096801EBB8
:103C80004401B1F90610104A126832F914208F1855
:103C900007EBD7713DF91420A2EB6100FCF7E5FCBE
:103CA0008046FCF728FD00B225F81400601CC4B261
:103CB000032CE2DBBDE8FF81F01E0020E41E0020A3
:103CC000A0220020800100207C01002010B52748A0
:103CD000007858B100F02CFD25490860012400202F
:103CE000224908700120234908702FE021480078FC
:103CF00060B321480068082821D2DFE800F02004E2
:103D00000A101620201C00F061FC194908600124EB
:103D100016E000F0D7FA16490860012410E000F020
:103D20006BFB1349086001240AE000F0C3FB104953
:103D30000860012404E000200F49086000E000BF93
:103D400000BF0D480068401C0B490860012C0BD1D6
:103D500000240748008881B2084808F099FC04480C
:103D60000178064806F0BEF810BD00007904002076
:103D70002C0400207A04002030040020EC230020D2
:103D800000BFFEE72DE9FC5F83468A46FE480078C7
:103D900010B101287ED109E0FC490869FC49FCF713
:103DA00061FD02D20120F849087077E2F948006805
:103DB00001F0D2FAF848C07C022806D1F748007812
:103DC000012802D1F648007850B1F348C07C03289E
:103DD0001FD1F448007801281BD1F1480078C0B900
:103DE000EC480068F04908600020F0490860F0499C
:103DF00008600860EF490860EF4948600860C860E3
:103E00000220E6490870E74908700120E44908707B
:103E10000AE0E148C07C012806D10020DF49087093
:103E2000E0490870DE49087000215046FCF710FD9B
:103E300001D2002007E0E1495046FCF713FD01D212
:103E4000DE4800E05046DE490860D2480168DC48A0
:103E50000068FCF70CFA8046DA495846FCF70DFA80
:103E6000814649464FF07E50FCF739FA07464FF03D
:103E70007E51FCF7AAF9064631464FF07E50FCF71A
:103E80002EFA05464146FCF7F8F90446C148016898
:103E9000204600E001E2FCF798F9BE4908600846B8
:103EA0000068C9490860B94AD168C84A5068FCF737
:103EB000E4F90746B54A9168C44A1068FCF7DDF991
:103EC0008046B249B1F92400FCF7CFFB8146AF48E8
:103ED00001694846FCF7CEF90446BC488168204693
:103EE000FCF7CBF906464146FCF76FF90546394623
:103EF000FCF76BF9B6490860B648B74B3222B749B0
:103F00000090B348006802F065F84FF08C41B1486A
:103F10000068FCF7E4F90446B149FCF7AEF9B14991
:103F2000086008460068FCF7E6FB041E01DB20463B
:103F300000E06042322802DA0020AA490860A9485D
:103F40000068A1498860A74801685846FCF795F9C0
:103F50000446964801682046FCF737F99349086003
:103F6000A1480078012805D1A04805F0FFFD0220F6
:103F70009D4908709E48007801282AD19D48FDF788
:103F800027FD9D4800689D4988629D4801689A48C0
:103F90000068FCF76CF99B490860974800689849ED
:103FA000086098480068FCF70BFC8046964A974BDF
:103FB000FCF77AFA0646964A964BFCF7E7FA04466F
:103FC000FCF72AFC944908607F49C86202208849AE
:103FD00008707148C07C022823D19048006890493D
:103FE000086008460068FCF7EBFB0646884A8D4BE4
:103FF000FCF75AFA04460D466C480068FCF7E0FBF3
:104000000646894A894BFCF74FFA804622462B46E2
:10401000FCF7A3F9CDE90001FCF7FEFB634908605A
:1040200026E05D48C07C032822D17B4800687C499B
:10403000086008460068FCF7C3FB0646744A794BE3
:10404000FCF732FA8046894658480068FCF7B8FB0E
:104050000646754A754BFCF727FA42464B46CDE9B2
:104060000001FCF77AF90446FCF7D6FB4F490860DB
:104070006B4800685449C8604C48006808614D4866
:10408000016867480068FCF7F2F805466849584639
:10409000FCF7F3F806462946FCF7EFF804464448D7
:1040A00001682046FCF791F84149086061494048A1
:1040B0000068FCF7CDFB01D25E4809E05E493C4850
:1040C0000068FCF7CFFB01D25B4801E0384800688C
:1040D00037490860084600683B4948613348016831
:1040E0004F480068FCF7C3F8804654495846FCF72F
:1040F000C4F8814649464FF07E50FCF7F0F8074679
:104100004FF07E51FCF761F8064631464FF07E5085
:10411000FCF7E5F805464146FCF7AFF804462348AE
:1041200001682046FCF751F82049086020480168E2
:104130001E480068FCF749F81E490860224988615A
:104140001548C07C032814D129480078022807D1DB
:10415000FF20274908700F4801682648FDF7FEFA3E
:104160002D480368364802680F480168584607F032
:1041700023FA0948C07C022876D1284803683148D0
:1041800002680948016860E0D4050020701E002024
:1041900000C0DA45D8050020A02200207C050020C0
:1041A000A4050020B005002078050020EC050020C3
:1041B000E805002098050020D028002000002F44AA
:1041C000DC050020C3F5C84048280020E02300207B
:1041D000E0050020E4050020C4050020342900206B
:1041E00000201946A00500205C0100209A99193D85
:1041F000380200200AD7A33CA80500207C28002014
:1042000030020020340200209A9999999999D93F57
:104210007B14AE47E17A943FCC050020880500204E
:10422000F0050020E17A843FAE47E17A14AEEF3F1B
:10423000CDCCCC3E0000FAC30000FA439CC4A03EA3
:10424000BC050020940500200EE0584607F0B4F9A4
:1042500014480078022807D113480168134805F074
:1042600043FBFF200F4908701148C07C022807D08B
:104270000F48C07C032803D00D48C07C062804D119
:104280000C4800690C49086002E00B48C0F800A027
:104290000A4800680A49086000E000BF00BFBDE8A6
:1042A000FC9F00005C010020D80500209A99193D70
:1042B000A0220020D02800207005002084050020C6
:1042C0007C280020F8B50024FE222146641C4348C7
:1042D00042540C222146641C425401222146641C93
:1042E00042543F4948683F49FBF7C7FF0646FCF781
:1042F00002FA00B200909DF801202146641C374864
:1043000042549DF800202146641C42543448006801
:1043100080F0004733493846FBF7AFFF0646FCF70D
:10432000EAF900B200909DF801202146641C2B4858
:1043300042549DF800202146641C42542849886854
:104340002949FBF742FF07462649FBF796FF064639
:10435000FCF7D1F900B200909DF801202046611CC5
:10436000CCB21E490A549DF800202046611CCCB2F4
:104370001A490A541D491E480068FBF7B0FF06465B
:10438000FCF7B9F900B200909DF801202046611CAD
:10439000CCB212490A549DF800202046611CCCB2D0
:1043A0000E490A54002013490860002508E00B4814
:1043B000405D1049096808440E490860681CC5B290
:1043C000A542F4DB0B48007800F001022046611C96
:1043D000CCB202490A542046F8BD0000EC2300206C
:1043E000D42300200000C8420000344300002041D4
:1043F000A80500207404002018B50020FE24034600
:10440000401C294AD4540B240346401CD454022493
:104410000346401CD454254A147D0346401C224ABE
:10442000D454224A54790346401C1F4AD4540124D0
:104430000346401CD454002200929DF801400346DC
:10444000401C194AD4549DF800400246431CD8B27F
:10445000154B9C54002200929DF801400246431CDB
:10446000D8B2114B9C549DF800400246431CD8B270
:104470000D4B9C5400220E4B1A60002108E00A4AA2
:10448000525C0B4B1B681A44094B1A604A1CD1B290
:104490008142F4DB064A127802F001040246431C12
:1044A000D8B2014B9C5418BDEC230020A022002060
:1044B0007404002010B50020FE240346401C404A2E
:1044C000D45414240346401CD45406240346401CF0
:1044D000D4543C4A54780346401C394AD454394A8F
:1044E00014780346401C364AD454364AD4780346DE
:1044F000401C334AD454334A94780346401C304A13
:10450000D454304A54790246431CD8B22C4B9C54A4
:104510002C4A14790246431CD8B2294B9C54294A90
:10452000D4790246431CD8B2254B9C54254A947931
:104530000246431CD8B2224B9C5400240246431C22
:10454000D8B21F4B9C540246431CD8B21C4B9C54FF
:104550000246431CD8B21A4B9C540246431CD8B2A4
:10456000174B9C540246431CD8B2154B9C54024630
:10457000431CD8B2124B9C540246431CD8B2104B79
:104580009C540246431CD8B20D4B9C5400220E4B47
:104590001A60002108E00A4A525C0B4B1B681A445F
:1045A000094B1A604A1CD1B28142F4DB064A1278E8
:1045B00002F001040246431CD8B2014B9C5410BDCA
:1045C000EC230020240500207404002010B50020F6
:1045D000FE240346401C524AD45418240346401C6F
:1045E000D45403240346401CD4544E4A5478034602
:1045F000401C4B4AD4544B4A14780346401C484A4A
:10460000D454484AD4780346401C454AD454454AB9
:1046100094780346401C424AD454424A5479024694
:10462000431CD8B23E4B9C543E4A14790246431C6C
:10463000D8B23B4B9C543B4AD4790246431CD8B277
:10464000374B9C54374A94790246431CD8B2344BBA
:104650009C54344A547A0246431CD8B2304B9C5482
:10466000304A147A0246431CD8B22D4B9C542D4A32
:10467000D47A0246431CD8B2294B9C54294A947AD6
:104680000246431CD8B2264B9C54264A547B024611
:10469000431CD8B2224B9C54224A147B0246431C32
:1046A000D8B21F4B9C54204A54780246431CD8B2BF
:1046B0001B4B9C541C4A14780246431CD8B2184B1E
:1046C0009C5400240246431CD8B2154B9C5402460D
:1046D000431CD8B2124B9C540246431CD8B2104B18
:1046E0009C540246431CD8B20D4B9C5400220F4BE5
:1046F0001A60002108E00A4A525C0C4B1B681A44FD
:104700000A4B1A604A1CD1B28142F4DB074A127884
:1047100002F001040246431CD8B2014B9C5410BD68
:10472000EC2300203E1600204401002074040020E9
:1047300018B50020FE240346401C1A4AD45407240E
:104740000346401CD45408240346401CD45401247E
:104750000346401CD454EB2200929DF801400346CE
:10476000401C104AD4549DF800400346401CD454C9
:1047700000220D4B1A60002108E00A4A525C0A4BE5
:104780001B681A44084B1A604A1CD1B28142F4DB00
:10479000054A127802F001040246431CD8B2014BCC
:1047A0009C5418BDEC2300207404002010B507F0C1
:1047B000D3F810BD10B507F035F910BD10B507F0EE
:1047C000CBF810BD10B507F02DF910BD00B54FF4B2
:1047D00080600C49086000F04BFA4FF40060094912
:1047E000086000F045FA4FF480600649091F086030
:1047F00000F03EFA4FF480600249086000F038FA99
:1048000000BD0000140C014021B1028842F4806216
:10481000028004E002884FF6FF331A40028070479E
:1048200021B1028842F00102028004E002884FF6C2
:10483000FE731A400280704710B504460B4884424C
:1048400009D10121480502F075FD00214FF4001047
:1048500002F070FD08E00121880502F06BFD0021E7
:104860004FF4800002F066FD10BD000000540040CF
:1048700021B1028842F48072028004E002884FF67F
:10488000FF631A400280704721B1028842F400722F
:10489000028004E002884FF6FF531A4002807047FE
:1048A00008B50121082002F055FD4FF48060ADF8F5
:1048B000000003208DF8020014208DF803006946E3
:1048C0000A48FEF7A3FE4FF40060ADF80000032095
:1048D0008DF8020014208DF8030069460348FEF7A6
:1048E00095FE40F6FF7006F0DEFD08BD000C0140AD
:1048F0001AB183880B43838002E083888B438380D3
:10490000704700002DE9F04385B004460D460026AF
:10491000B1460427DFF8CC80A6884FF6C070064069
:10492000684602F037FDDDF808802F48B8FBF0F04C
:104930001FFA80F946EA0906A68020884FF6FE7124
:104940000840208000262949286888420CD8286819
:104950004000B8FBF0F087B2042F00DA04273E4392
:1049600009F10100208427E0E8884BF6FF718842B6
:1049700006D1286800EB4000B8FBF0F087B209E0F0
:10498000286800EBC00101EB0010B8FBF0F087B223
:1049900047F48047C7F30B0008B947F0010747F415
:1049A000004006434FF4967009FB00F04FF47A7113
:1049B00090FBF1F0401C2084A683208840F0010089
:1049C000208026884FF6F5300640A888698908437C
:1049D00006432680A88929890843208105B0BDE8BF
:1049E000F083000000127A0040420F00A086010010
:1049F00000B54FF480600C49086000F039F94FF4BD
:104A000000600949091F086000F032F94FF4806026
:104A10000549091F086000F02BF94FF48060024936
:104A2000086000F025F900BD140C014000B5082114
:104A300000200A02124B1A6016E04206100E4FF4D4
:104A400080620F4B1B1D1A6000F012F94FF4806258
:104A50000B4B1A6000F00CF9094A083A126802F48C
:104A600000620AB140F001000A00A1F10103D9B2CD
:104A7000E3D14FF48062024B1B1D1A6000BD0000A1
:104A8000100C01402DE9F04107460E4615469846A8
:104A900000F062F8384600F031F800F0BBF830461C
:104AA00000F02CF800F0B6F800F056F8791CC8B207
:104AB00000F024F800F0AEF800240DE0FFF7B6FF98
:104AC00008F80400681EA04202D1FFF791FF01E040
:104AD000FFF77CFE601CC4B2AC42EFDB00F06CF868
:104AE00000F0C6F8BDE8F08112B141F0010102E02A
:104AF0004FF6FE73194001827047000000B508218F
:104B00001DE04FF48062134B1A6000F0B1F800F022
:104B100080022AB14FF400620E4B1B1F1A6003E0A3
:104B20004FF400620B4B1A604206100E00F0A0F822
:104B30004FF48062074B1B1F1A6000F099F80A00BF
:104B4000A1F10103D9B2DCD14FF48062014B1A60AC
:104B500000BD0000140C014000B54FF40060154981
:104B600008604010086000F083F8124808380068B8
:104B700008B9012000E0002000F4006008B1002026
:104B800000BD4FF400600B49091D086000F070F88B
:104B900008480838006800F4006008B10020EFE71A
:104BA0004FF400600349091D086000F061F801201E
:104BB000E6E70000100C014000B54FF480600C499E
:104BC000086000F055F84FF400600949086000F0F3
:104BD0004FF84FF480600649091F086000F048F85C
:104BE0004FF400600249091F086000F041F800BD61
:104BF000140C014041F288310160002181804BF6A4
:104C0000FF71C1800021018141814FF48041818188
:104C10007047000000B54FF480601449086000F050
:104C200027F84FF400601149091F086000F020F8D0
:104C30004FF480600D49091F086000F019F80B4817
:104C40000C38006800F4006038B14FF48060074908
:104C5000086000F00DF8002000BD4FF480600349AB
:104C6000086000F005F80120F6E70000140C014090
:104C700000BF70472DE9FF5F88B092469946DDF886
:104C80005CB0ABF1010004B208E0601E0AEBC001A9
:104C900003C90AEBC40203C2601E04B2002CF4DC98
:104CA000DDE90801CAE9000100252E46002418E0CC
:104CB000169800EBC40003C8CDE902010AEBC4005A
:104CC00003C8CDE90001DDE90223FBF7EDFB2A462D
:104CD0003346CDE90401FBF740FB05460E46601C58
:104CE00004B25C45E4DB1998401E04B208E0601E83
:104CF00009EBC00103C909EBC40203C2601E04B280
:104D0000002CF4DC0027B846012418E0189800EBCA
:104D1000C40103C9CDE9020109EBC40003C8CDE910
:104D20000001DDE90223FBF7BFFB3A464346CDE92C
:104D30000401FBF712FB07468846601C04B2199871
:104D40008442E3DB3A46434628463146FBF7A6FB5E
:104D5000C9E90001D9E90001CDE90601DDE9060153
:104D60000CB0BDE8F09F000010B518480068047A48
:104D7000022C01D0042C05D1FDF764FB1348006818
:104D8000047A1CE0062C19D11048006840780528E8
:104D90000ED10E480068007800F07F0040B90B4942
:104DA0000968C87802F0A0FE09490968086A8047C6
:104DB0000849096888688047082400E008240349F6
:104DC00009680C7202F08CF810BD00001C00002075
:104DD000280000202000002010B5482006F076FBB7
:104DE00001F072FB06F0BEFAFBF7B6FE01F0DAFC4A
:104DF000FDF74CFE0EA20621232001F075FEFFF701
:104E00004FFD00F00BFA04F0CFFB03F031FE02F08F
:104E100037F801F073FFFDF755FE05F037F800F0A5
:104E200049FA00F0CDF8FEF79DFBFDF7DBFE10BD63
:104E3000BAE3CDD8BFC6BCBC0000000070B50426E4
:104E400000240120FDF784FE0446AB2C06D1124855
:104E500000EBC42011490860AB2070BD0E4800EB88
:104E6000C4200E490860601C0B49891E01EBC02557
:104E70000CE00A4800680068401C10B9042630465F
:104E8000EBE706480068001D044908600348006815
:104E9000A842EED38020E0E7000001084001002096
:104EA00010B57521D02002F0F3FF04460CB90020A4
:104EB00010BD00226B21D02003F012F80722192127
:104EC000D02003F00DF803221A21D02003F008F8B7
:104ED00010221B21D02003F003F809221C21D0202E
:104EE00002F0FEFF0120E3E710B50A213C2002F0AA
:104EF000CFFF04460CB9002010BD782200213C20D1
:104F000002F0EEFF202201213C2002F0E9FF002206
:104F100002213C2002F0E4FF642006F0C4FA0120E4
:104F2000EAE730B50B46002100BF16E00A24B4EBD7
:104F3000107F05D9302404EB107403F8114005E00C
:104F4000412404EB10740A3C03F8114000010025D1
:104F50004C00641C1D554C1CE1B29142E6DB30BD97
:104F600010B51548007800F0010020B10121134868
:104F7000FEF729FC03E001211048FEF726FC0E484D
:104F80000078C0F3400020B102210C48FEF71BFC62
:104F900003E002210948FEF718FC07480078C0F337
:104FA000800020B104210548FEF70DFC03E0042138
:104FB0000248FEF70AFC10BD2C010020001401403D
:104FC00010B5002430E04FF480516448FEF7FBFB3D
:104FD0004FF480616148FEF7F6FB4FF48041604872
:104FE000FEF7F1FB4FF400415C48FEF7ECFBC820F4
:104FF00006F059FA4FF480515848FEF7E6FB4FF49B
:1050000080615648FEF7E1FB4FF480415448FEF7BB
:10501000DCFB4FF400415148FEF7D7FB4FF47A70A8
:1050200006F041FA601CC4B2052CCCDB002491E0F0
:1050300040F2DC5006F037FA4FF480514748FEF753
:10504000C2FB40F2DC5006F02EFA4FF48051434888
:10505000FEF7BBFB4FF4967006F025FA4FF4806123
:105060003E48FEF7B0FB40F2DC5006F01CFA4FF46D
:1050700080613A48FEF7A9FB4FF4967006F013FAE8
:105080004FF400413548FEF79EFB40F2DC5006F03D
:105090000AFA4FF400413148FEF797FB4FF496703F
:1050A00006F001FA4FF480412D48FEF78CFB40F2E8
:1050B000DC5006F0F8F94FF480412948FEF785FBF3
:1050C00040F2DC5006F0EFF94FF480412448FEF73F
:1050D0007AFB40F2DC5006F0E6F94FF480412048BC
:1050E000FEF773FB4FF4967006F0DDF94FF40041C4
:1050F0001A48FEF768FB40F2DC5006F0D4F94FF492
:1051000000411648FEF761FB4FF4967006F0CBF9AC
:105110004FF480611148FEF756FB40F2DC5006F078
:10512000C2F94FF480610D48FEF74FFB4FF49670C3
:1051300006F0B9F94FF480510848FEF744FB40F2FD
:10514000DC5006F0B0F94FF480510448FEF73DFB07
:10515000601CC4B2022CFFF66BAF10BD00180140FA
:10516000000C014010B52B48007807284ED2DFE82C
:1051700000F0042339493D41450026484088401C41
:1051800080B224494880B0F5967F01DB002048803A
:10519000204840880A2807DB1E484088282807DD69
:1051A0001C484088322803DA06201B49087002E0B8
:1051B00000201949087029E016484088401C80B238
:1051C00014494880C82801DB0020488011484088E5
:1051D000642803DC04201049087002E000200E4916
:1051E000087013E004200C4908700FE001200A4900
:1051F00008700BE002200849087007E00420064907
:10520000087003E001200449087000BF00BFFFF7E9
:10521000A7FE10BD280100202C01002008B50121A7
:10522000202002F097F80121402002F093F801219C
:10523000084602F08FF801211948FEF773FA0121A0
:105240001848FEF76FFA0720ADF8000010208DF81F
:10525000030003208DF8020069461348FEF7D6F9D3
:1052600007211148FEF7B1FA4FF41440ADF80000E1
:1052700069460E48FEF7CAF94FF414410B48FEF791
:10528000A4FA4FF48040ADF8000069460848FEF7E4
:10529000BDF94FF480410648FEF797FA08BD0000BB
:1052A00000043000000230000014014000180140EA
:1052B000000C014010B507211948FEF784FA4FF49D
:1052C000617006F0F0F807211548FEF77EFA4FF4FA
:1052D0007A5006F0E8F807211148FEF774FA4FF407
:1052E000617006F0E0F807210D48FEF76EFA4FF402
:1052F0007A5006F0D8F807210948FEF764FA4FF40F
:10530000617006F0D0F807210548FEF75EFA4FF409
:105310007A5006F0C8F807210148FEF754FA10BD8C
:10532000001401402DE9F04704460D46164631466B
:105330002846FAF7A2FF804631464FF07E50FAF732
:1053400096FF81462146FAF798FF07464146FAF74D
:105350003CFFBDE8F08700002E49C97C02291ED120
:105360002D490978D9B92D4909682D4A11602B4971
:10537000896891602949496851602A4909682A4A1F
:1053800011600021294A1160294AD160294A11601F
:10539000294AD160516001211F4A11700AE01D495C
:1053A000C97C012903D01B49C97C032902D10021F2
:1053B000194A11701749C97C03291ED11F49097860
:1053C000D9B91F490968164A11601D498968916059
:1053D0001B49496851601B490968134A1160002143
:1053E000124A1160184A1160184A1160184AD160B7
:1053F00051600121114A11700AE00649C97C012956
:1054000003D00449C97C022902D100210B4A117042
:1054100070470000A02200207C050020F02800201A
:10542000E428002090050020840500207405002059
:10543000D028002088050020B0280020B0050020DA
:10544000FC280020B4050020C8050020CC05002061
:10545000002A002010B500F061F82E4840782D4950
:10546000097840EA01202C49098C401A00B22A49E7
:1054700008802848C0782749897840EA01212648D1
:10548000408C081A00B224494880224840792149BA
:10549000097940EA012000B21F4988801D48407AFE
:1054A0001C49097A40EA012000B21B498886194844
:1054B000C07A1849897A40EA012001B21648C186AB
:1054C0001448407B1349097B40EA012001B212488D
:1054D00001870146B1F93420B1F95410501AFBF795
:1054E000C4F80D49C865B1F93620B1F95610501A03
:1054F000FBF7BBF80146084801660146B1F93820C0
:10550000B1F95810501AFBF7B0F80146024841664D
:1055100010BD0000601E0020701E002010B53B2151
:10552000D02002F0B5FC224908703C21D02002F0C6
:10553000AFFC1F4948703D21D02002F0A9FC1C4956
:1055400088703E21D02002F0A3FC1949C8703F2189
:10555000D02002F09DFC164908714021D02002F0B5
:1055600097FC134948714321D02002F091FC104967
:1055700008724421D02002F08BFC0D49487245216D
:10558000D02002F085FC0A4988724621D02002F022
:105590007FFC0749C8724721D02002F079FC0449FA
:1055A00008734821D02002F073FC0149487310BDF4
:1055B000601E002010B5FFF7CFFAEE20FFF79EFA2D
:1055C000FFF728FB1E20FFF799FAFFF723FBFFF7F1
:1055D000F3FA10BD2DE9F0410025FFF7BDFAEE20EA
:1055E000FFF78CFAFFF716FB0020FFF787FAFFF7AB
:1055F00011FBFFF7E1FAFFF7AFFAEF20FFF77EFAB2
:10560000FFF708FBFFF712FA0646FFF7DFF8FFF790
:105610000DFA0446FFF7DAF8FFF708FA0746FFF736
:10562000E7F9FFF7C9FAC6EB064000EB0420C519FD
:105630002846BDE8F08100002DE9F04F89B0002434
:105640000025DFF8848200200890079040460690ED
:10565000FFF7C0FF9D490860FFF70AFB9C480069FF
:1056600000239C4AD2E9001CA0FB016B03FB01B1A3
:1056700000FB0C1180223046FAF776FD944A12891D
:10568000120410EB020941F100014846FBF727F82C
:10569000914A03C28E48C06800228E49D1E9003188
:1056A000A0FB036902FB039201FB00214FF480720F
:1056B00000233046FAF758FD854A5268D203801815
:1056C00041F10001854A03C28548D0E900204FF42A
:1056D000FA63D21A70F100004AD28148D0E9001072
:1056E000A1FB012700FB017701FB00711046FAF7CF
:1056F000CAFF7C49086008460068FBF761F88146EC
:105700000022794BFAF7D0FE0646FBF740F87749BE
:10571000086074480068FBF753F881460022744B18
:10572000FAF7C2FE0646FBF732F8724908606C4889
:10573000D0E9003170480068181A61F10001684A28
:1057400003C26A480068FAF7BDFF064662480CC803
:105750003046FAF7A6FE604A03C26048D0E900303E
:1057600064490968591A60F100005C4AC2E90010F6
:105770005648006800225949D1E90031A0FB036B6B
:1057800002FB03B201FB00214FF40012002330465C
:10579000FAF7EAFCCDE90001FAF7A1FFCDE9020131
:1057A0004D480CC80298FAF779FE81460022534B07
:1057B000FAF7ECFECDE90401FAF7E9FF5049086079
:1057C0005049514A127841F822004F480078401C55
:1057D0004D49087008460078142801D1002008704F
:1057E000002016E0474951F82010A94203D9454945
:1057F00051F8205007E0434951F82010414502D2AA
:10580000404951F820803F4951F820100C44411C78
:10581000C8B21428E6DB601BA0EB08001221B0FB25
:10582000F1F03A490860084600683949884202D9CF
:1058300038483649086035480068FAF71FFF0746C0
:10584000354801683846FAF715FD06463349FAF738
:1058500014FD33490860334931480068FAF7F8FF0E
:1058600002D231482E49086025480068FAF706FF41
:105870000746294801683846FAF7FCFC06462749DE
:10588000FAF7FBFC29490860274928480068FAF71D
:10589000DFFF02D224482549086025480088B0F57A
:1058A000967F0ADA22480088401C21490880174860
:1058B0000068FAF7E3FE1849086001201D490870E6
:1058C00009B0BDE8F08F0000400D0300D0010020BA
:1058D000001F0020B0010020A0010020C80100200E
:1058E000B8010020A801002000000440EC010020C5
:1058F0000000F43FF0010020E40100200000E0403F
:10590000E00100201C1F00203A020020D8010020E6
:10591000F0490200A0860100D00500200000AA4244
:10592000A8050020000048C30000C8C22C020020C7
:105930003C020020380200202DE9F0470024002519
:10594000DFF8B080FFF746FE2B492C4A127841F869
:1059500022002A480078401C284908700846007830
:10596000642801D100200870002016E0224951F877
:105970002010A94203D9204951F8205007E01E49C0
:1059800051F82010414502D21B4951F820801A4994
:1059900051F820100C44411CC8B26428E6DB601B9F
:1059A000A0EB08006221B0FBF1F015490860154832
:1059B00040690968A1EB00200021134A03C2114885
:1059C000806900231049D1E9002CA0FB026903FB88
:1059D000029200FB0C214FF400023046FAF7C4FBA0
:1059E0004FF4FA63C01841F10001084A03C2BDE850
:1059F000F087000000C2EB0B6C1F00203902002072
:105A0000D4010020001F0020B0010020B8010020B8
:105A100010B50446FFF7A0F8EE20FFF76FF8FFF788
:105A2000F9F82046FFF76AF8FFF7F4F8FFF7C4F833
:105A300010BD000070B5FFF7BDFD142005F066FD38
:105A4000012432E0FFF788F8EE20FFF757F8FFF760
:105A5000E1F8A02101EB4401C8B2FFF74FF8FFF7CE
:105A6000D9F8FFF7A9F8012005F050FDFFF774F809
:105A7000EF20FFF743F8FFF7CDF8FEF7D7FF054615
:105A8000FEF7A4FEFEF7D2FF0646FEF7B1FFFFF7D2
:105A900093F8FFF7EDF846EA0520084941F824009D
:105AA0000A2005F033FD601CC4B2062CCADD034891
:105AB000006808B1012070BD0020FCE7001F002035
:105AC0002DE9FF5F81469448007898B10020924903
:105AD0000870924908609249086092490860002461
