:020000040802F0
:10000000984B00204501020831540208B536020819
:1000100079500208111B0208A58C0208000000009C
:10002000000000000000000000000000A7680208B7
:100030006927020800000000F16002085D01020863
:100040005F0102085F0102085F0102085F01020808
:100050005F0102085F0102085F0102085F010208F8
:100060005F0102085F0102085F0102085F010208E8
:100070005F0102085F010208052102085F01020812
:100080005F0102085F0102085F0102085F010208C8
:10009000518602085F0102085F0102085F01020841
:1000A0005F0102085F0102085F0102085F010208A8
:1000B0005D740208517602085F010208013C0208E3
:1000C000F93B0208113C0208093C02085F010208E2
:1000D0005F0102083D8402085F0102085F01020817
:1000E0005F0102085F0102085F0102085F01020868
:1000F0005F0102085F0102085F0102085F01020858
:100100005F0102085F010208C17802085F0102086E
:100110005F0102085F0102085F0102085F01020837
:100120005F0102085F0102085F0102085F01020827
:10013000DFF80CD000F024FD004800473DB1020874
:10014000984B00200648804706480047FEE7FEE738
:10015000FEE7FEE7FEE7FEE7FEE7FEE7FEE7FEE777
:10016000BD710208310102082DE9F05F054600204B
:1001700092469B4688460646814640241BE0284618
:1001800041464746224600F0C4FB53465A46C01A31
:10019000914110D311461846224600F0ABFB2D1AB0
:1001A00067EB01084F4622460120002100F0A2FB28
:1001B00017EB00094E41201EA4F10104DFDC484684
:1001C00031462A464346BDE8F09F40EA01039B07BB
:1001D00003D009E008C9121F08C0042AFAD203E0BC
:1001E00011F8013B00F8013B521EF9D27047D2B220
:1001F00001E000F8012B491EFBD270470022F6E710
:1002000010B513460A4604461946FFF7F0FF20468C
:1002100010BDF0B480EA0102D40F4200B2EB410FEE
:1002200002D20246084611464A0042D0C30DDDB252
:10023000C1F3C752AD1A202D35DAC1F3160141F4CE
:10024000000204B15242C5F1200602FA06F12A4129
:100250001044B3EBD05F23D0C4B1012DA0EBC35049
:1002600009DCF0BC4FF0004202EAC352DBB200F5F9
:10027000000000F079BB400000F1807000EBC3503B
:10028000A0F1807040EAD170490009E0490841EAD4
:10029000C071A0EBC35000F50000400800EBC35054
:1002A000F0BC00F058BB6142012202EB4101001B8F
:1002B000F6E7F0BC704781F00041AAE780F000400B
:1002C000A7E780EA010210B502F00043400022D007
:1002D0004A001FD0010E01EB1261C0F35600C2F3B9
:1002E000560240F4000042F40002A0FB0220000489
:1002F0007F39140400D0401C50EA124001D4400061
:10030000491EC2B20C0604EBD010401C4008802AE3
:1003100002D003E0002010BD20F00100002900DA27
:100320000020184310BD30B480EA010202F00045FD
:1003300030F0004221F0004013D090B1C30DD40D35
:10034000C2F31601C0F31600E41A41F4000140F4B0
:1003500000027D34914201D3641C00E04900002C6E
:1003600002DA30BC002070474FF4000000239142B5
:1003700001D3891A034340084FEA4101F7D151B133
:10038000914202D14FF0004105E002D24FF001014D
:1003900001E06FF0010103EBC450284430BC00F0D1
:1003A000DABA2DE9FE4F804681EA0300C00F0C4601
:1003B000009021F0004123F00045B8EB0200A94174
:1003C00005D24046214690461C460B46024623F085
:1003D0000040104347D0270DC7F30A00C3F30A516A
:1003E0000290401A019040286BDAC3F3130040F4E6
:1003F000801B0098924620B10023D2EB030A63EBE6
:100400000B0B01985946C0F14002504600F072FAB9
:1004100006460D4650465946019A00F08AFA10EBFE
:1004200008006141002487EA115284EAE7731A4305
:1004300040D0009A62B3019A012A4FEA075215DCB4
:10044000001B61EB02014FF0004202EA0752CDE9C6
:100450000042001C41F5801132462B4600F0C1FAE3
:1004600003B0BDE8F08F40462146F9E7001B61EB81
:100470000201001C41F5801300185B412018A2F511
:10048000001747EB030140EAD570B6196D4111E042
:100490006D084FEA360645EAC0754FEA0752001B61
:1004A00061EB0201001C41F5801149084FEA300060
:1004B0000019514132462B4603B0BDE8F04F00F021
:1004C00081BA0098012240000023D0EB020263EBC6
:1004D000E073009821464FEAE074B8EB000061EB4E
:1004E0000401E9E783F000435BE781F0004158E74E
:1004F0002DE9FE4F81EA030404F0004421F000419D
:1005000000944FF0000B23F0004350EA01045ED04A
:1005100052EA03045BD0C3F30A54C1F30A552C44D6
:10052000A4F2F3340194A0FB0254C1F3130141F48B
:100530008011C3F3130343F4801301FB024400FB57
:10054000034E840A970A44EA815447EA8357A4FB7E
:10055000076802958D0A05FB07854FEA932C04FB7B
:100560000C542705029D4FEA065847EA1637B5EBAB
:1005700008056EEB070C870E920E47EA811742EAD8
:100580008312A7FB0201B6EB0B0164EB00042B0DF9
:1005900043EA0C335E1844EB1C50DA465146E7FB45
:1005A0000201C5F313044FEA0B3343EA14534FEA35
:1005B0000432019C43EA0603A4F10C040294009C5B
:1005C000CDE900B400F00DFA03B0BDE8F08F0020D3
:1005D0000146F9E72DE9F04D81EA030404F0004BF0
:1005E00021F0004514464FF0000A23F0004150EA84
:1005F000050220D054EA01021DD0C5F30A57024675
:10060000C5F31303C1F31300C1F30A5640F4801578
:1006100043F48013A7EB0608101BD64608F2FD38FA
:1006200073EB050002D308F1010801E092185B4169
:10063000B8F1000F03DA00200146BDE8F08D00207C
:100640004FF48011064684460EE0171B73EB050736
:1006500005D3121B63EB050306434CEA010C490862
:100660004FEA300092185B4150EA0107EDD152EA9F
:10067000030012D082EA040083EA0501084305D092
:10068000101BAB4106D20122002306E000224FF0EE
:10069000004302E06FF0010253101AEB06004CEB2E
:1006A000085110EB0A0041EB0B01BDE8F04D00F0E2
:1006B00089B9C10F80EAE0700844CA079623002177
:1006C00000F052B996230022114600F04DB930B423
:1006D000044696230800214604D0B62330BC0022ED
:1006E00000F042B920460021F8E70EB5C10F80EABC
:1006F000E0700844CA07002140F233438DE80E0041
:100700000A460B4600F06DF903B000BD0EB540F28D
:10071000334102910021CDE900110A460B4600F059
:1007200060F903B000BD0EB540F2334202920022E0
:10073000CDE90022134600F054F903B000BD00F0EB
:10074000004220F00040C10DC0F3160040F400004C
:100750007F2901DA00207047962903DCC1F1960158
:10076000C84001E096398840002AF4D040427047E2
:1007700070B5C1F30A5201F000450024C1F3130122
:1007800040F2FF3341F480119A4201DA002070BD3B
:1007900040F233439A42A2F2334203DC524200F069
:1007A000B8F800E090402C43F1D0404270BDC1F356
:1007B0000A5210B5C1F3130140F2FF3341F4801126
:1007C0009A4201DA002010BD40F233439A42A2F26D
:1007D000334203DC524200F09CF810BD904010BD43
:1007E00000F0004230F000400AD0C10D01F5607108
:1007F000C0F3160042EA0151C20840071143704796
:10080000002001467047000030B5041E71F100045D
:1008100004DB4FF00044404264EB0101141E73F10D
:10082000000405DB1C464FF00043524263EB040317
:100830008B4208BF824230BD30B5041E71F1000406
:1008400004DB4FF00044404264EB0101141E73F1DD
:10085000000405DB1C464FF00043524263EB0403E7
:10086000994208BF904230BD01F0004330B421F0FE
:10087000004150EA010206D00A0DA2F56072C1F3F0
:100880001301002A02DC30BC00207047440F44EA08
:10089000C104C100E01830BC00EBC25000F05BB8EE
:1008A000002801DBC0F10040002901DBC1F100415B
:1008B00081427047002801DBC0F10040002901DBC4
:1008C000C1F100418842704730B50B460146002017
:1008D0002022012409E021FA02F59D4205D303FA02
:1008E00002F5491B04FA02F52844151EA2F1010283
:1008F000F1DC30BD202A04DB203A00FA02F10020AE
:1009000070479140C2F1200320FA03F3194390404D
:100910007047202A04DB203A21FA02F000217047B8
:1009200021FA02F3D040C2F1200291400843194657
:100930007047202A06DBCB17203A41FA02F043EA3F
:10094000E07306E041FA02F3D040C2F12002914088
:100950000843194670470029A8BF7047401C49004A
:1009600008BF20F00100704710B4B0FA80FC00FA14
:100970000CF050EA010404BF10BC704749B1CCF13F
:10098000200421FA04F411FA0CF118BF01212143CB
:100990000843A3EB0C01CB1D4FEA00614FEA102086
:1009A00042BF002010BC704700EBC3501044002928
:1009B000A4BF10BC7047401C490008BF20F00100D4
:1009C00010BC704710B5141E73F1000408DA401C07
:1009D00041F1000192185B411A4301D120F001005E
:1009E00010BD2DE9F04D92469B4611B1B1FA81F24E
:1009F00002E0B0FA80F220329046FFF77BFF044617
:100A00000F4640EA0A0041EA0B0153465A460843A2
:100A100013D0114653EA010019D0C8F140025046E4
:100A2000FFF777FF05460E46504659464246FFF708
:100A300061FF084305D0012004E020463946BDE8A7
:100A4000F08D0020054346EAE0762C4337430A98B0
:100A50006305E40AA0EB08000022FD0A44EA4754BB
:100A60000A3002D500200146E9E701051019694165
:100A7000DDE9084500196941BDE8F04DA2E770B510
:100A800021F0004303430CD0C1F30A550024D5EBF9
:100A9000040564EB0403D617AD1AB34102DB002052
:100AA000014670BD201841EB025170BD2DE9F04D9B
:100AB00000231A461B1A8A4103DB00200146BDE8C9
:100AC000F08DC1F30A52C1F3130141F480154FF0C8
:100AD000000BD10702D100186D41521E00270446B9
:100AE00040F2FF11384601EB620A3E46804602465C
:100AF00000204FF48011FFF70CFFC2197141BB18A1
:100B000046EB0100B4EB030C75EB000C04D3E41AC4
:100B100065EB000517460E46241908F101006D41EA
:100B200080463428E3DDF91946EB0600091BA8418D
:100B300003D24FF0FF32134601E0002213461BEBB5
:100B4000070046EB0A51BDE8F04DFFF73BBFC1F38C
:100B50000A52C1F3130140F2FF3341F480119A426B
:100B600002DA00200146704740F233439A42A2F273
:100B7000334202DC5242FFF7CCBEFFF7BBBE00009F
:100B8000064C074D06E0E06840F0010394E80700DA
:100B900098471034AC42F6D3FFF7CEFA10F30208B0
:100BA00030F3020870B58C1810F8015B15F00703DC
:100BB00001D110F8013B2A1106D110F8012B03E0F6
:100BC00010F8016B01F8016B5B1EF9D12B0705D4FE
:100BD0000023521E0DD401F8013BFAE710F8013B47
:100BE000CB1A921C03E013F8015B01F8015B521E63
:100BF000F9D5A142D8D3002070BD000008B501216D
:100C0000084605F0A7FA01214FF4017005F0D2FA69
:100C10004FF4004005F092FA1020ADF800000020DB
:100C20008DF803006946024802F0E5F908BD0000AE
:100C30000008014010B5FFF7E1FF00F001F810BD1A
:100C400000B591B0334801F083FA33480690334839
:100C50000790002008900120099000200A90802031
:100C60000B9040000C9080000D9020200E90000210
:100C70000F900020109006A9264801F018FB0121D2
:100C8000244801F059FA0020019001208DF8080055
:100C90008DF809004FF4602003900020049001209B
:100CA0008DF8140001A91C484C3800F06FF805239A
:100CB0000122042118484C3800F090F80021164811
:100CC0004C3800F043F8012113484C3800F033F859
:100CD000012111484C3800F023F80F484C3800F03F
:100CE000D9F800BF0C484C3800F045F80028F9D17D
:100CF00009484C3800F0DEF800BF07484C3800F0D7
:100D000030F80028F9D1012103484C3800F0C7F829
:100D100011B000BD080002404C2401402A0100200F
:100D200021B1826842F00102826003E0826822F011
:100D300001028260704721B1826842F48072826051
:100D400003E0826822F480728260704721B1826879
:100D500042F48012826003E0826822F48012826092
:100D60007047014600208A6802F004020AB101209F
:100D700000E000207047014600208A6802F0080267
:100D80000AB1012000E000207047000030B50246A3
:100D90000020002350680F4C20400D790C6844EA75
:100DA00005242043506090680B4C2040D1E9025448
:100DB0002C434D7944EA450420439060D06A20F4E6
:100DC00070000C7C641EE4B2234340EA0350D062FE
:100DD00030BD0000FFFEF0FFFDF7F1FFF0B5044667
:100DE0000D4600200021092D11DDE068A5F10A065D
:100DF00006EB4607072606FA07F18843A5F10A061F
:100E000006EB460603FA06F10843E0600CE02069B1
:100E100005EB4507072606FA07F1884305EB45066B
:100E200003FA06F108432061072A0FDA606B561EA9
:100E300006EB86071F2606FA07F18843561E06EBC7
:100E4000860605FA06F10843606322E00D2A0FDAF0
:100E5000206BD61F06EB86071F2606FA07F188438C
:100E6000D61F06EB860605FA06F10843206310E05C
:100E7000E06AA2F10D0606EB86071F2606FA07F1C7
:100E80008843A2F10D0606EB860605FA06F1084333
:100E9000E062F0BD816841F008018160704721B1D6
:100EA000826842F4A002826003E0826822F4A00219
:100EB00082607047816841F00401816070470000E2
:100EC0002DE9FF4103F05EFC4D4802F02BFB4D493C
:100ED000B1F90000FFF709FC06460F4605204A4914
:100EE0004A4BCDE900304A4B4A4ACDE90210304620
:100EF000394603F0E5F80446FFF7B6FC414988603F
:100F0000B1F90200FFF7F1FB06460F4605203E4906
:100F10003E4BCDE900303E4B28333E4A2832CDE9E6
:100F200002103046394603F0CBF80446FFF79CFC2C
:100F30003449C860B1F90400FFF7D7FB06460F46F5
:100F400005203149314BCDE90030314B5033314A26
:100F50005032CDE902103046394603F0B1F804466C
:100F6000FFF782FC27490861C86DFFF739FC074687
:100F7000294A2A4BFFF7BCFA0546FFF775FC0446E1
:100F8000274A21462748006803F064FB1D49C863CF
:100F90000846C06B234908601A49086EFFF720FC19
:100FA00007461D4A1D4BFFF7A3FA0546FFF75CFCF9
:100FB00004461B4A21461C48006803F04BFB0146CF
:100FC00010480164006C184908600E49486EFFF72C
:100FD00007FC0746104A114BFFF78AFA0546FFF750
:100FE00043FC04460E4A21461048006803F032FBD9
:100FF000014604484164406C0C490860BDE8FF812B
:10100000F0030020C4200020B0030020880300204B
:10101000A02500202825002030689DC8FE3F9F3F66
:10102000CBA1C53EF8030020FC03002000040020F3
:101030001FB5FFF745FF0CF05BFE0E480E490F4A47
:1010400012680F4BCDE90032CDE902100D4B0E4A6C
:101050000E490F480AF0E6FC0CF00AFC0D48006847
:101060000D4948600D48006808600D4800688860B8
:101070001FBD0000E406002020060020800700209D
:101080004027002034270020282700205C0500206E
:101090004005002074070020242600207807002047
:1010A0007C0700202DE9F04F8BB099480068039031
:1010B0000AF0B2FC322009F0CBFBFFF701FF0CF085
:1010C00017FE4FF07E500A9000200990089007907C
:1010D0009048006806908F48006805908D48006829
:1010E000049000240025002631460498FFF7E3F819
:1010F00082460799FFF7E5F881460399FFF7E1F883
:1011000080464FF08041FFF70EF9074629460598C3
:10111000FFF7D1F801900899FFF7D3F883460399B8
:10112000FFF7CFF882464FF08041FFF7FCF880468A
:1011300021460698FFF7BFF800900999FFF7C1F81C
:1011400001900399FFF7BDF883464FF08041FFF708
:10115000EAF882460A99FFF7B1F881464146FFF75F
:10116000AAF839460290FFF7A6F86B4908603146A5
:101170000498FFF7A0F882460899FFF7A2F8814685
:101180000399FFF79EF880464FF08041FFF7CBF8B8
:10119000074629460598FFF78EF883460799FFF71B
:1011A00090F882460399FFF78CF881464FF0804112
:1011B000FFF7B9F8214601900698FFF77CF80090F8
:1011C0000A99FFF77EF883460399FFF77AF882467B
:1011D0004FF08041FFF7A7F881460999FFF719F80A
:1011E00080460199FFF767F839460290FFF711F83A
:1011F0004949486031460498FFF75DF881460999EE
:10120000FFF75FF880460399FFF75BF807464FF05A
:101210008041FFF788F8294602900598FFF74BF8C0
:1012200083460A99FFF74DF882460399FFF749F87C
:1012300081464FF08041FFF776F807462146069831
:10124000FFF739F800900799FFF73BF883460399B9
:10125000FFF737F882464FF08041FFF764F8814688
:101260000899FEF7D6FF80463946FEF7D2FF019077
:101270000299FFF720F82849886031460498FFF763
:101280001AF882460A99FFF71CF881460399FFF77E
:1012900018F880464FF08041FFF745F80746294689
:1012A0000598FFF708F883460999FFF70AF8814681
:1012B0000399FFF706F882464FF08041FFF733F8B5
:1012C000214601900698FEF7F6FF00900899FEF778
:1012D000F8FF83460399FEF7F4FF82464FF0804102
:1012E000FFF721F881460799FEF7E8FF804601994C
:1012F000FEF78FFF39460290FEF78BFF0649C86064
:1013000008460461456186610BB0BDE8F08F0000BE
:101310008007002034270020400500202DE9F041FF
:1013200000250026002700240020184908840021F9
:1013300016484184818400BF0FE01448B0F90000D2
:1013400005441248B0F9020006441048B0F9040000
:101350000744601CC4B2601CC4B2C82CEDDB95FB12
:10136000F4F000B20949088496FBF4F001B2074892
:10137000418497FBF4F001B20448818400240020EA
:101380000349C87101F0F0FCBDE8F081C4200020E1
:10139000F024002010B509480078012804D100206D
:1013A0000649087001F03AFF0548C07B012804D1C6
:1013B00000200349C87307F065FC10BD3805002004
:1013C000F02400202DE9FE4FA14A116CA14A506A79
:1013D000FEF771FF02909E4AD16B9E4AD06EFEF7D7
:1013E0006AFF01909A4A516C9A4AD2F8B400FEF70B
:1013F00062FF00909749486B0299FEF70AFF014689
:10140000944841630146C86F0199FEF702FF014607
:101410009048C1670146D1F8C4000099FEF7F9FE73
:1014200001468C48C0F8C41001468B4A486B8B4972
:1014300009F0C8F90146874841630146864AC86FEA
:10144000864909F0BFF901468248C1670146824AD0
:10145000D1F8C400814909F0B5F901467D48C0F8CA
:10146000C4100146886A0299FEF72BFF01467948AD
:10147000C1630146086F0199FEF723FF01467548D5
:10148000C0F884100146D1F8B8000099FEF719FFA2
:1014900001467048C0F8CC100246516BD06AFEF786
:1014A00010FF01466B4801640246D16F506FFEF792
:1014B00008FF01466748C0F888100246D2F8C410F9
:1014C000D2F8BC00FEF7FDFE01466248C0F8D0101D
:1014D0005F4A116CD06CFEF7EEFE06465D48016B6C
:1014E0003046FEF7EEFE05465D49FEF7EAFE04468D
:1014F0004FF08141FEF717FF014656484164544AB8
:10150000D16B906CFEF7D7FE06465248816F30468D
:10151000FEF7D7FE05465249FEF7D3FE04464FF0CC
:101520008141FEF700FF01464A48C0F88C10484A46
:10153000516C106DFEF7BFFE06464648D0F8C0104D
:101540003046FEF7BEFE05464549FEF7BAFE0446A4
:101550004FF08141FEF7E7FE01463E48C0F8D41047
:101560003B48016CC164C16B8164416C0165394ABF
:10157000116CD06BFEF74DFE04463648416C204698
:10158000FEF747FE0146334881640246D2F88810D0
:10159000D2F88400FEF73DFE04462E48D0F88C10A9
:1015A0002046FEF736FE01462A48C0F89010024653
:1015B000D2F8D410D2F8CC00FEF72BFE0146254815
:1015C000C0F8D8100146486A4FF08041FEF7ABFEE4
:1015D0008046FFF705F906460F461E49886CFFF75F
:1015E000FFF880461F4A204BFEF782FF82463246B4
:1015F0003B46FEF7D6FE0446FFF736F9014615488E
:1016000081640146C86E4FF08041FEF78CFE0646AD
:10161000FFF7E6F8804689460E49D1F89000FFF7BB
:10162000DFF806460F4A104BFEF762FF04464246BB
:101630004B46FEF7B6FE8246FFF716F9014605480F
:10164000C0F89010D0F8D810C0F8D810BDE8FE8FC0
:10165000C42000203C2600200000A0C10000A041C2
:10166000000004429A9999999999E93F2DE9F04728
:1016700004460D4681492846FEF71DFE80468049F6
:1016800009F09EFF07467F49FEF71BFE06467E498E
:10169000FEF749FE7D4908607D497C480068FFF7F8
:1016A000FFF801D27A4809E0764978480068FFF7E8
:1016B00001F901D2734801E0744800687349086079
:1016C000744975480068FFF7F5F809D200216F48A2
:1016D0000068FFF7EFF812D200206C4908600EE0B6
:1016E0006E496D480068FFF7DBF808D200216748B3
:1016F0000068FFF7D5F802D200206449086063480B
:1017000001682046FEF7DDFD064663480168304665
:10171000FEF77FFD60490860614801685E48006827
:10172000FEF7C9FD06465F4801683046FEF7C9FD71
:101730005D490860084600685C4948615A4A11687A
:10174000584A9068FEF7BDFD07462146FEF7B9FDF1
:1017500006465548C1683046FEF75BFD5249C860F1
:101760005348006880F0004746493846FEF7A9FD17
:1017700006464D48C1683046FFF79CF808D24C48F1
:10178000006880F000463F493046FEF79AFD13E0BE
:101790003C4947480068FEF794FD06464248C16848
:1017A0003046FFF77DF805D2364941480068FEF71C
:1017B00088FD01E03C48C0683B49C8603B498861FE
:1017C000394A51681068FEF776FD06463949FEF73A
:1017D00078FD3649C861344A51681068FEF76BFDE0
:1017E00081463449FEF76DFD07463348006880F0B6
:1017F000004A21465046FEF764FD81462F49FEF718
:1018000060FD80463946FEF704FD064625484168DE
:101810003046FEF756FD2449886008468068234913
:101820000862214AD1681068FEF7F3FC06461E489C
:1018300081683046FEF7EDFC1B49086108691449D0
:10184000FFF72EF801D2124809E0174908690D493F
:10185000FFF730F801D20B4801E013480069124944
:1018600008610846006916490860104948620E4838
:1018700000680D494860BDE8F08700000000FA43A9
:101880000000C842000096430000C843D40700206F
:10189000000096C30000FA45D807002000007A44F3
:1018A00008080020882B0020742B0020F02900203D
:1018B00020050020CDCCCC3EEC0700209A99193FA2
:1018C00010080020044805490860002088604FF097
:1018D0007F504860704700009A99193E882B00207D
:1018E0002DE9F05F0446764805210268022003F0E6
:1018F0003FFD814673494846FEF7D2FF42D2724807
:1019000001684846FEF7D7FC06460021FEF7D2FFE5
:1019100005D26D4801684846FEF7CDFC06E06A48EE
:1019200001684846FEF7C7FC80F00040054667495D
:10193000FEF7B6FF27D2644801684846FEF7BBFCB5
:10194000824663492046FEF7BCFC834659464FF069
:101950007E50FEF7E8FC80464FF07E51FEF759FCC2
:10196000074639464FF07E50FEF7DDFC06465146ED
:10197000FEF7A7FC0546544801682846FEF749FCD7
:10198000514908606AE0504801684846FEF793FCF8
:1019900006460021FEF78EFF05D24B4801684846F7
:1019A000FEF789FC06E0484801684846FEF783FCDC
:1019B00080F0004005464749FEF772FF27D24248B3
:1019C00001684846FEF777FC824643492046FEF709
:1019D00078FC834659464FF07E50FEF7A4FC8046C3
:1019E0004FF07E51FEF715FC074639464FF07E500A
:1019F000FEF799FC06465146FEF763FC0546324861
:101A000001682846FEF705FC2F49086026E02E48AD
:101A100001684846FEF74FFC824630492046FEF7F3
:101A200050FC834659464FF07E50FEF77CFC8046C2
:101A30004FF07E51FEF7EDFB074639464FF07E50E2
:101A4000FEF771FC06465146FEF73BFC05461E4874
:101A500001682846FEF7DDFB1B4908601A4800684C
:101A60001F4988600846C1681E480068FEF723FCCD
:101A7000824619492046FEF724FC834659464FF01A
:101A80007E50FEF750FC80464FF07E51FEF7C1FBC2
:101A9000074639464FF07E50FEF745FC0546514655
:101AA000FEF70FFC06460E48C1683046FEF7B1FB54
:101AB0000B49C8600C4800680861BDE8F09F000051
:101AC000FC0700200000FA45080800200000C8427A
:101AD000C3F5C8400000FA43C3F54840C3F5C83F0A
:101AE000F02900202C0200201C08002008B5064820
:101AF0000649086040F205500090012269460248FC
:101B0000103804F049FE08BD0000020808ED00E0AE
:101B100000BFFEE70146CAB20B1243EA022070473B
:101B20002DE9FF416048007802287DDB5F4A11689B
:101B30000098FEF7C0FB06465B4908693146FEF790
:101B400068FB594908610846406980F000450A462B
:101B5000516910692A4608F035FE534908610A4662
:101B600011699068FEF7ADFB05464F49486831465C
:101B7000FEF7A7FB80462946FEF74BFB4A49486221
:101B80004A4A51680198FEF796FB07464649886D18
:101B90003946FEF73EFB444988650846C06D80F033
:101BA00000450A46D16D906D2A4608F00BFE3E496D
:101BB00088650A46916D106DFEF783FB05463A492C
:101BC000C86C3946FEF77DFB80462946FEF721FBAF
:101BD0003549C866354A91680298FEF76CFB0546A0
:101BE0003349FEF767FE09D3304A91680298FEF741
:101BF00062FB05462F49FEF753FE36D200210298BC
:101C0000FEF758FE16D2294988680021FEF748FEE3
:101C100010D227490298FEF74EFB054623488168FB
:101C20002448FEF748FB00E030E080462946FEF7F6
:101C3000F0FA044600210298FEF732FE1BD21B493F
:101C400088680021FEF736FE15D219490298FEF782
:101C5000E0FA0546154881681548FEF72CFB8046DA
:101C60002946FEF7D6FA044605E0104A9168029824
:101C7000FEF721FB04460C49D1F894002146FEF7FB
:101C800020FB0949C1F8B40000200870064800781C
:101C9000401C05490870FFF795FB074806F0ECF972
:101CA00003F0ECF9BDE8FF813C260020242600204B
:101CB00000003443000034C30AD7233B08B500209A
:101CC000009022E19748008800F00F0096490870C4
:101CD0000846007800287CD1944800689449088020
:101CE0000846008800F0300092490880904800883B
:101CF00000F440508E4908808C4909684BF6BF7249
:101D000001EA020080F4005080F0200040F400411D
:101D100041F08001854A11608248008800F010007F
:101D200090BB1046006848F60F71084011460860E5
:101D300002F040FA7D4909684BF6BF7201EA0200E1
:101D40007B49098801F4805109B180F480507849B9
:101D5000098801F4005109B180F4005075490988DF
:101D600001F0100109B180F010007249098801F0FA
:101D7000200109B180F0200081B241F4004141F01E
:101D800080016A4A116008BDFFE76848006880B2B8
:101D90000090BDF8000000F40060B0B36348006834
:101DA000C0F30E0048F68F7108406049086004F0E7
:101DB00013FF5E4909684BF6BF7201EA02005C49F5
:101DC000098801F4805109B180F48050584909888C
:101DD00000E056E001F4005109B180F4005055498B
:101DE000098801F0100109B180F0100051490988FB
:101DF00001F0200109B180F0200081B241F40041DE
:101E000041F08001494A1160BDE7FFE7BDF80000DD
:101E100000F40040002878D044480068C0F30E0069
:101E200048F68F7108404149086004F035F83F4991
:101E300009684BF6BF7201EA02003D49098801F4C6
:101E4000805109B180F480503949098801F400516A
:101E500009B180F400503749098801F0100109B137
:101E600080F010003349098801F0200109B180F0A9
:101E7000200081B241F4004141F080012B4A116001
:101E800081E7294800782C4901EB8000D0F8000C4C
:101E900080B20090BDF8000000F40040C0B12248BC
:101EA000007801EB8000D0F8000CC0F30E0048F67B
:101EB0008F7108401C4909781F4A02EB8101C1F863
:101EC000000C19490978491E1C4A52F82100804724
:101ED000BDF8000000F08000B8B113480078164942
:101EE00001EB8000D0F8000C48F60F7108400E4955
:101EF0000978114A02EB8101C1F8000C0A490978FE
:101F0000491E0F4A52F821008047084844300068B3
:101F100080B20449088000F4004000287FF4D2AE6B
:101F200000BF30E75000002018000020005C004097
:101F30002C0000202E0000200050004070000020E7
:101F4000540000202DE9F04100244148B0F912006E
:101F500040F2DC51091A3E48B0F91800C0EBC0004D
:101F6000143091FBF0F52846FEF7A3FB39490860D1
:101F70003748B0F91000A0F2DC503549B1F918101B
:101F8000C1EBC101143190FBF1F52846FEF791FB3E
:101F9000304948602E48B0F9140040F27E41884232
:101FA0000BDD2D48807901280ED001202A49887147
:101FB0002A4880682749886006E000202649887101
:101FC00026488068234988602148B0F9160040F20D
:101FD000FA51884206DC1E48B0F9160040F2BE51A4
:101FE000884232DA1A48C08A40F2DC51081A04B238
:101FF0002046FEF75EFB07461949FEF794F90646B0
:102000001849FEF75EF90546124881682846FEF732
:1020100000F91049886088681349FEF74BFC07D225
:102020000C4988681149FEF746F90A4988600CE0B6
:10203000084988680E49FEF733FC06D205498868CE
:102040000A49FEF7E6F803498860BDE8F081000020
:102050006024002018270020F024002024260020DF
:1020600000004843CDCCCC3D000034430000B443D5
:10207000000034C30B4A02EB8001D1F8001C01F4CC
:10208000804171B102EB8001D1F8001C48F68F72DB
:1020900011404CF280021143024B03EB8002C2F864
:1020A000001C7047005000400B4A02EB8001D1F841
:1020B000001C01F0400171B102EB8001D1F8001C5D
:1020C00048F68F72114048F2C0021143024B03EBF5
:1020D0008002C2F8001C704700500040084A02EB22
:1020E0008001D1F8001C48F68F62114048F280024E
:1020F0001143034B03EB8002C2F8001C7047000041
:102100000050004010B54FF4005000F007F80020D8
:102110000149087010BD00006004002000F08051EB
:1021200011B10349086001E00249486070470000AE
:10213000040402400000024021B1026842F00102A2
:10214000026004E002684FF6FE731A4002607047B6
:1021500001684FF6FE72114001600021016041608C
:102160008160C1604B49884208D14A4908394968B1
:1021700041F00F01474A083A51608AE0454914315D
:10218000884208D143490839496841F0F001414A81
:10219000083A51607DE03F492831884208D13D49E5
:1021A0000839496841F470613A4A083A516070E070
:1021B00038493C31884208D136490839496841F4E8
:1021C0007041344A083A516063E0324950318842E4
:1021D00008D130490839496841F470212D4A083A3C
:1021E000516056E02B496431884208D129490839A9
:1021F000496841F47001274A083A516049E025498D
:102200007831884208D123490839496841F0706122
:10221000204A083A51603CE01F49884206D1011F1C
:10222000096841F00F01021F116032E01A491431B0
:10223000884208D11849091F096841F0F001164A7F
:10224000121F116025E014492831884208D1124933
:10225000091F096841F470610F4A121F116018E0EC
:102260000D493C31884208D10B49091F096841F4E6
:102270007041094A121F11600BE007495031884232
:1022800007D10549091F096841F47021024A121F4C
:102290001160704708000240080402401AB1036848
:1022A0000B43036002E003688B430360704710B583
:1022B0000022026847F6F0739A430C6A8B68234346
:1022C0000C6923434C6923438C692343CC69234322
:1022D0004C6A23438C6A23431A430260CB684360F1
:1022E0000B6883604B68C36010BD000000B58BB005
:1022F0001448FFF72DFF1448009014480190102057
:1023000002901348007803900020049080200590EC
:1023100000200690079008904FF48050099000200C
:102320000A9069460748FFF7C2FF012202210548CB
:10233000FFF7B4FF012280210348001F06F0C3F815
:102340000BB000BD44000240043801402C010020C5
:10235000310100202DE9F0472848006800F1100500
:102360002E8826480068077AD6B9042F18D1244849
:10237000007801280FD100212248006880B2801C1B
:10238000214A42F8101030202049088000BF002068
:102390001B49087003E0072710201C49088027E02C
:1023A000AC88A64201D8042000E002200746B442CF
:1023B00000D93446A0B2A96888478046002000F0C2
:1023C0001DFF8146A2B24946404606F06DFCA1B20F
:1023D000002004F033FB2888001B288068882044F4
:1023E000688030200949088000020949088000BF40
:1023F000024909680F72BDE8F08700001C00002048
:1024000016000020505C0040006000402E000020BC
:102410002C0000202DE9F0412848006800F110044C
:102420002688A068C0B1BEB1A588B54200D935469E
:10243000A8B2A168884707462088401B2080608892
:1024400028446080002000F0B7FE8046AAB24146D2
:10245000384603F049FD00BF208850B14FF440508A
:10246000174908800021084604F0E8FA3020154991
:1024700008802088A188884204DB03200F4909686E
:10248000087218E02088002804DD05200B4909683F
:10249000087210E0208870B906200849096808729F
:1024A00000210948006880B2801C084A42F81010D8
:1024B000302004490880BDE8F08100001C000020A5
:1024C0002C0000202E000020505C004000600040E6
:1024D0002DE9F84F9B48006845780027BA46062D3D
:1024E0001BD198480068007800F07F00002813D1C5
:1024F000944909688878012803D193490968CF690C
:102500000AE0022803D1904909680F6A04E0032811
:1025100002D18D4909684F6A94E0002D64D1894841
:102520000068408800285FD186480068C08802287B
:102530005AD1844800680079002855D18148006844
:10254000007800F07F0028B97E480068808808B9CC
:102550007E4F77E07B480068007800F07F0001281C
:1025600010D1784909684879774909688A69002152
:102570009047002866D173480068807A002861D0AF
:10258000724F5FE06F480068007800F07F0002281B
:1025900058D16C480068407900F00F06694800681F
:1025A000407900F0700967480068407900F08000C9
:1025B00038B1674901EB8600D0F8000C00F0300814
:1025C00006E0634901EB8600D0F8000C00F44058A7
:1025D00060480078B04235D9B9F1000F32D1B8F176
:1025E000000F2FD0594F2DE0082D07D15548006816
:1025F000007800F07F0028BB574F23E00A2D21D13F
:1026000050480068007800F07F0001281AD14D483A
:102610000068807AB0B14B480068408890B949485A
:102620000068007970B947480068C088012809D15E
:10263000444909684879444909688A6900219047F2
:1026400000B9464F57B13F480068A0F812A03D4876
:10265000006887610020B84700240FE0394A1268FB
:102660005078394A1268116988470446032C05D10D
:102670000920344909680872BDE8F88F31480068BC
:10268000008A4FF6FF71884204D109202D4909685C
:102690000872F1E7022C03D02A480068008A20B9AA
:1026A0000820284909680872E6E72648006800788B
:1026B00000F08000E0B323480068C0880090214803
:1026C0000068008A0099884204D91E490098096868
:1026D000088223E01B480068008A1A490968C988F3
:1026E00088421BDA17480068008A1749096891F880
:1026F0002C10884203DA0020194908700EE01148B6
:102700000068008A1049096891F82C1090FBF1F2DA
:1027100001FB120010B90120114908700A48006835
:1027200090F82C10074800688182FFF713FE07E03D
:10273000FFE703200349096808720003094908807C
:1027400000BF99E71C00002020000020116F020844
:102750000050004098000020956E0208E56E0208C7
:10276000160000202C0000207047000070B50026E5
:10277000002411E02146002003F0F2FA002507E0D2
:102780003146761C064A505C03F058FB681CC5B203
:10279000802DF5DB601CC4B2082CEBDB70BD0000A3
:1027A000C9EC020810B501E003F07CFF1849B1F94B
:1027B0000000411E09B2164A11800028F4D11AE027
:1027C0000721144800F0F3FC13A20621232003F094
:1027D00095FA01201349087003F064FF1248808ABB
:1027E000A0F57A7080B21149C8808880488008803E
:1027F000084608F005FD0C48B0F9140040F23A71A3
:102800008842DDDA074800780028D9D110BD0000E1
:102810008603002000140140B5E7B5F7D0A3D7BC6C
:102820000000000085030020602400200C0500202B
:102830000346062106221248018812480288ABB1DD
:10284000012B1BD13AB94EF6EE60814201D1002036
:1028500070470120FCE739B94EF6EE60824201D1A3
:102860000120F5E70020F3E7AB20F1E709B90020EC
:10287000EEE70AB90120EBE7AB20E9E70020E7E744
:10288000000001080008010810B504240B4800F0FE
:1028900029FB0446042C01D0204610BD0021074826
:1028A00000F06AFB0446042C01D02046F5E70448FA
:1028B00000F018FB04462046EFE700000000010886
:1028C0000008010810B506F097FB044601F0DAFC99
:1028D000204610BD2DE9F84F074689460425DFF84C
:1028E000D4A0354800904FF00008002400264FF097
:1028F000000B0020FFF79CFF8046B8F1010F04D1C8
:10290000DFF8B4A02D4800900AE0B8F1000F04D120
:10291000DFF8A8A02848009002E0AB20BDE8F88FBF
:102920004EF6EE61504600F027FB0546042D01D01F
:102930002846F3E701F0A6FC4946384600F046FA7F
:102940000646042E01D03046E8E700241DE01C486E
:1029500030F81400B84216D0194931F8140019495A
:1029600000F0D0F98346BBF1010F0CD0154A128854
:1029700091B2134A32F8140000F028FA0646042EE9
:1029800001D03046CAE7601C84B24B2CDFDB0098D4
:1029900000F0A8FA0546042D01D02846BEE7002124
:1029A000504600F0E9FA0546042D01D02846B5E767
:1029B0002846B3E7FF0301080000010800080108EA
:1029C000E00200203801002010B5094908880949B3
:1029D00000F098F9064948880649891C00F092F9E8
:1029E000034988880349091D00F08CF910BD0000D7
:1029F000E0020020E420002038B5A549488A694655
:102A000000F080F9BDF8000000B938BDBDF9000044
:102A1000FDF74FFE04469F49FDF785FC9E498862FD
:102A20009B49888A694600F06DF9BDF90000FDF701
:102A300040FE04469949FDF776FC01469648C1627E
:102A40009349C88A694600F05DF9BDF90000FDF7B9
:102A500030FE04468F49FDF766FC01468E4801634F
:102A60008B49088B694600F04DF9BDF90000FDF770
:102A700020FE04468749FDF756FC874908678449CC
:102A8000488B694600F03EF9BDF90000FDF711FEE4
:102A900004468249FDF747FC01467F4841677C496F
:102AA000888B694600F02EF9BDF90000FDF701FEA4
:102AB00004467849FDF737FC014677488167744939
:102AC000C88B694600F01EF9BDF90000FDF7F1FD65
:102AD00004467049FDF727FC6F49C1F8B8006C49FE
:102AE000088C694600F00EF9BDF90000FDF7E1FD24
:102AF00004466A49FDF717FC01466748C0F8BC1058
:102B00006349488C694600F0FDF8BDF90000FDF707
:102B1000D0FD04465F49FDF706FC01465E48C0F85B
:102B2000C0105B49088D694600F0ECF8BDF9000063
:102B3000FDF7BFFD04465749FDF7F5FB584908600E
:102B40005349488D694600F0DDF8BDF90000FDF7F6
:102B5000B0FD04465149FDF7E6FB514988604C49F8
:102B6000888D694600F0CEF8BDF90000FDF7A1FDA3
:102B700004464849FDF7D7FB494948604449C88D98
:102B8000694600F0BFF8BDF90000FDF792FD04466C
:102B90004049FDF7C8FB434908603D49088E694636
:102BA00000F0B0F8BDF90000FDF783FD04463B4995
:102BB000FDF7B9FB3B4988603549488E694600F00E
:102BC000A1F8BDF90000FDF774FD04463149FDF799
:102BD000AAFB344948602E49888E694600F092F875
:102BE000BDF90000FDF765FD04462A49FDF79BFB92
:102BF0002D4908602649C88E694600F083F8BDF962
:102C00000000FDF756FD04462449FDF78CFB2649DC
:102C100088601F49088F694600F074F8BDF900000C
:102C2000FDF747FD04461B49FDF77DFB1E49486043
:102C30001749488F694600F065F8BDF90000FDF7B7
:102C400038FD04461349FDF76EFB1849086010492A
:102C5000888F694600F056F8BDF90000FDF729FDA0
:102C600004460E49FDF75FFB104988600849C88F8C
:102C7000694600F047F8BDF90000FDF71AFD04466B
:102C80000449FDF750FB0949486000BFBDE600005C
:102C9000E00200200000C8423C26002000007A44E8
:102CA000642A0020382A0020882B0020702A002067
:102CB00010B51249C888124900F024F80F49088954
:102CC0000F49891C00F01EF80C4948890C49091D60
:102CD00000F018F8094988890949891D00F012F89F
:102CE0000649C8890649083100F00CF80349088AEA
:102CF00003490A3100F006F810BD0000E002002090
:102D00002C2100202DE9F04706460F46002545F20C
:102D100055584FF00109124CA2460020FFF788FDDC
:102D20000546AB2D01D1BDE8F0870D4800EBC52A63
:102D30000C480068841E0BE0B4F80080B04506D152
:102D400034F8020C00B238804FF0000904E0241F70
:102D50000AF102008442EFD800BF4846E3E70000D2
:102D6000000001083C01002010B50B4AB2F9201008
:102D70000A4A108800F06EF8074AB2F92210074A92
:102D8000508800F067F8044AB2F92410034A90888A
:102D900000F060F810BD0000C4200020E002002018
:102DA00010B500240BE0074A126832F91410E21C37
:102DB000054B33F8120000F04DF8601CC4B2062C2D
:102DC000F1DB10BD78010020E00200202DE9F04188
:102DD00004460F4604250026DFF86C800120FFF72B
:102DE00027FD0646AB2E01D1BDE8F081701C1749C6
:102DF00001EBC02821E0164800680068401CB8B903
:102E000039461348006800F0B7F80546042D01D094
:102E10002846E9E721460E480068801C00F0ACF81F
:102E200005460B480068001D094908602846DBE795
:102E300007480068001D06490860054800684045CD
:102E4000D9D38020D0E70000FF070108FEFF00086B
:102E50003C01002070B506460C460025A1B2304664
:102E6000FFF7B4FF0546802D04D1A1B23046FFF72D
:102E700031FD0546284670BDF8B50026104D0027E7
:102E800010E068460BF034F804469DF8000000B9E5
:102E90000AE09DF80000304486B225F8024BAD1CD4
:102EA000781C87B2202FECDB00BF06B9F8BD314695
:102EB000012003F0C3FD012003F0EEFD00BFF5E7A4
:102EC0008061004010B590B06946032005F0D6FB44
:102ED00084B2214668460BF0A3F8032003F084FD7A
:102EE00010B010BD30B5044604254FF4302000F07A
:102EF0006FF80546042D17D10C48006940F0020018
:102F00000A49086108464461006940F040000861D0
:102F10004FF4302000F05CF805460448006941F6A3
:102F2000FD71084001490861284630BD002002407B
:102F300004200B49C96801F0010109B101200EE02C
:102F40000749C96801F0040109B1022007E00449FA
:102F5000C96801F0100109B1032000E004207047A6
:102F6000002002400348006940F0800001490861E8
:102F7000704700000020024070B504460D4604264C
:102F8000F00200F025F80646042E11D10948006928
:102F900040F00100074908612580F00200F018F8B0
:102FA00006460448006941F6FE710840014908617F
:102FB000304670BD00200240024803494860034883
:102FC000486070472301674500200240AB89EFCD80
:102FD00000B502460423FFF7ABFF034603E0FFF70B
:102FE000A7FF0346521E012B01D1002AF7D102B9D7
:102FF0000523184600BD2DE9F041024600250026B4
:10300000002000230024002791F803C00CF00F05D6
:1030100091F803C00CF0100CBCF1000F03D091F834
:1030200002C04CEA050591F800C0BCF1000F31D098
:10303000146800202BE04FF0010C0CFA00F3B1F8FB
:1030400000C00CEA03069E4220D183004FF00F0C13
:103050000CFA03F7BC4305FA03FC4CEA040491F8AC
:1030600003C0BCF1280F06D14FF0010C0CFA00FC94
:10307000C2F814C00AE091F803C0BCF1480F05D1B2
:103080004FF0010C0CFA00FCC2F810C0401C0828DC
:10309000D1D31460B1F800C0BCF1FF0F34DD546827
:1030A00000202EE000F1080C4FF0010808FA0CF3A4
:1030B000B1F800C00CEA03069E4221D183004FF014
:1030C0000F0C0CFA03F7BC4305FA03FC4CEA0404AA
:1030D00091F803C0BCF1280F05D100F1080C08FAE3
:1030E0000CF8C2F8148091F803C0BCF1480F07D166
:1030F00000F1080C4FF0010808FA0CF8C2F8108033
:10310000401C0828CED35460BDE8F081F0B50A46D3
:10311000002300240021002500F00046B6F1004FF6
:1031200002D11D4EF16901E01B4E7168C0F30345E9
:1031300083B200F44016B6F5401F08D121F070614B
:10314000154E766826F07066134F7E6012E000F42C
:103150008016B6F5801F06D1032606FA05F4A143B2
:1031600041F0706106E0460D360103FA06F6B14300
:1031700041F0706122B1460D360103FA06F6314383
:1031800000F00046B6F1004F02D1034EF16101E0BC
:10319000014E7160F0BD00000000014002460020B9
:1031A00093680B400BB1012000E0002070474161A3
:1031B000704701617047000001460548006880B211
:1031C00000EBC100001D034A32F8100080B27047C6
:1031D000505C00400060004001460648006880B234
:1031E00000EBC100801D044A32F81000C0F3090052
:1031F00070470000505C00400060004001460548F8
:10320000006880B200EBC100034A32F8100080B2BF
:1032100070470000505C00400060004010B513484B
:103220000078012802D0022817D10BE0104800785E
:1032300008B101F099FB582001F082FD02200B49F2
:10324000087011E001F010FD482001F079FD012027
:10325000074908700549087006E001200349087015
:1032600000200349087000BF00BF10BD3E020020CF
:103270003F0200202DE9F04104460A480568001D80
:103280000668001D07683D4455B10822A11C284668
:1032900001F06BF8042204F11201304601F065F8E8
:1032A000BDE8F081E8F7FF1F2DE9F04707460C461F
:1032B00015461E463046FDF705FA81464946384612
:1032C000FDF731F88046FDF73AFA01B21148A0F84F
:1032D00054103046FDF7F6F9814649462046FDF781
:1032E00022F88046FDF72BFA01B20A48A0F85610E2
:1032F0003046FDF7E7F9814649462846FDF713F8C1
:103300008046FDF71CFA01B20248A0F85810BDE84B
:10331000F0870000C42000202DE9F04F85B04FF069
:10332000000800250026002700200390049000904C
:10333000019002906D49087002F040FB6CA20021E0
:103340001E2002F0DBFC6DA20221182002F0D6FC48
:103350006EA204211E2002F0D1FC40F2DC5007F0E6
:1033600077FA40F2DC5007F073FAACE0B8F1C80F1E
:1033700073DA01F06BFA6848407A6749097A40EAE3
:10338000012000B2654988866348C07A6249897A1B
:1033900040EA012001B26148C1865F48407B5E4936
:1033A000097B40EA012001B25C4801875B49B1F921
:1033B00034100098084400905848B0F9360001993C
:1033C000084401905548B0F9380002990844029029
:1033D000BDF90C105148B0F93400281A04D54F48F3
:1033E000B0F93400401B03E04C48B0F93400281A0F
:1033F000084400B2ADF80C00BDF90E104748B0F912
:103400003600301A04D54548B0F93600801B03E079
:103410004248B0F93600301A084400B2ADF80E0048
:10342000BDF910103D48B0F93800381A04D53B48B2
:10343000B0F93800C01B03E03848B0F93800381A3A
:10344000084400B2ADF810003448B0F93450B0F977
:103450003660B0F9387032E0FFE7BDF90C001E2885
:1034600007DABDF90E001E2803DABDF910001E2888
:103470000EDB4FF00008002407E0002003A921F82C
:1034800014004DF82400601CC4B2032CF5DB16E0D8
:103490000298FDF70EF981460198FDF70AF9824678
:1034A0000098FDF706F98346C8234A465146FFF7C0
:1034B000FBFE01200D49087000201949887208F1AF
:1034C000010000F0FF080948007800283FF44EAFE3
:1034D0001348C07908B1FDF721FF002002F06EFA11
:1034E00002F0E2F905B0BDE8F08F0000770100209E
:1034F000C7EBBDABB7C9D0D0C6F70000D6C3D3DA8F
:10350000CBAEC6BDD7B4CCAC00000000C7D2B1A3CF
:10351000B3D6BEB2D6B90000B4200020C42000202B
:10352000F02400202DE9FF410546002602AB0622CB
:1035300003213C2000F0CCFC594800680A2190FB94
:10354000F1F057490968081A554908609DF80900C3
:103550009DF8081040EA012000B25149096808446A
:103560004F490860084600680A2190FBF1F000B25C
:10357000ADF800004A48406890FBF1F048494968BE
:10358000081A474948609DF80D009DF80C1040EA64
:10359000012000B242494968084441494860084650
:1035A00040680A2190FBF1F000B2ADF802003C48FF
:1035B000806890FBF1F03A498968081A38498860B8
:1035C0009DF80B009DF80A1040EA012000B2344932
:1035D0008968084432498860084680680A2190FB5F
:1035E000F1F000B2ADF80400BDF804002D490880E8
:1035F0009DF80A0048809DF80B0088802A48007AD0
:1036000040B101202949087000202749C870684648
:1036100001F0EEFB2548007808B30020234908702C
:10362000002415E02248006830F91400002805DA6B
:103630001F48006830F91400404203E01C4800684D
:1036400030F91400142801DA701CC6B2601CC4B230
:10365000062CE7DB022E02DB01201349C870002490
:103660001AE01349096801EB4401B1F90610104A48
:10367000126832F914208F1807EBD7713DF9142026
:10368000A2EB6100FDF715F88046FDF758F800B28F
:1036900025F81400601CC4B2032CE2DBBDE8FF81F6
:1036A0004421002038210020F02400207C0100204B
:1036B0007801002000BFFEE72DE9FC5F83468A46C3
:1036C000FE48007810B101287ED109E0FC49086964
:1036D000FC49FDF7EFF802D20120F849087077E2C3
:1036E000F948006800F0D0FFF848C07C022806D1F5
:1036F000F7480078012802D1F648007850B1F34825
:10370000C07C03281FD1F448007801281BD1F14860
:103710000078C0B9EC480068F04908600020F04922
:103720000860F04908600860EF490860EF494860A8
:103730000860C8600220E6490870E7490870012067
:10374000E44908700AE0E148C07C012806D1002065
:10375000DF490870E0490870DE49087000215046D2
:10376000FDF79EF801D2002007E0E1495046FDF741
:10377000A1F801D2DE4800E05046DE490860D24898
:103780000168DC480068FCF796FD8046DA49584637
:10379000FCF797FD814649464FF07E50FCF7C3FD8C
:1037A00007464FF07E51FCF734FD064631464FF098
:1037B0007E50FCF7B8FD05464146FCF782FD044605
:1037C000C1480168204600E001E2FCF722FDBE4945
:1037D000086008460068C9490860B94AD168C84A03
:1037E0005068FCF76EFD0746B54A9168C44A1068F8
:1037F000FCF767FD8046B249B1F92400FCF759FF98
:103800008146AF4801694846FCF758FD0446BC486C
:1038100081682046FCF755FD06464146FCF7F9FC59
:1038200005463946FCF7F5FCB6490860B648B74B83
:103830003222B7490090B348006801F063FD4FF0B1
:103840008C41B1480068FCF76EFD0446B149FCF7B5
:1038500038FDB149086008460068FCF770FF041E97
:1038600001DB204600E06042322802DA0020AA494B
:103870000860A9480068A1498860A74801685846BF
:10388000FCF71FFD0446964801682046FCF7C1FC82
:1038900093490860A1480078012805D1A04805F0A7
:1038A00047F802209D4908709E48007801282AD1D7
:1038B0009D48FEF715F89D4800689D4988629D481F
:1038C00001689A480068FCF7F6FC9B490860974835
:1038D00000689849086098480068FCF781FF8046B6
:1038E000964A974BFCF704FE0646964A964BFCF721
:1038F00071FE0446FCF7B8FF944908607F49C8622E
:103900000220884908707148C07C022823D1904861
:1039100000689049086008460068FCF761FF0646A9
:10392000884A8D4BFCF7E4FD04460D466C48006860
:10393000FCF756FF0646894A894BFCF7D9FD8046BD
:1039400022462B46FCF72DFDCDE90001FCF78CFF4C
:103950006349086026E05D48C07C032822D17B488B
:1039600000687C49086008460068FCF739FF064695
:10397000744A794BFCF7BCFD80468946584800687C
:10398000FCF72EFF0646754A754BFCF7B1FD424623
:103990004B46CDE90001FCF704FD0446FCF764FF4B
:1039A0004F4908606B4800685449C8604C4800683B
:1039B00008614D48016867480068FCF77CFC0546D3
:1039C00068495846FCF77DFC06462946FCF779FC19
:1039D0000446444801682046FCF71BFC4149086046
:1039E000614940480068FCF75BFF01D25E4809E08E
:1039F0005E493C480068FCF75DFF01D25B4801E08E
:103A00003848006837490860084600683B49486103
:103A1000334801684F480068FCF74DFC8046544924
:103A20005846FCF74EFC814649464FF07E50FCF765
:103A30007AFC07464FF07E51FCF7EBFB0646314619
:103A40004FF07E50FCF76FFC05464146FCF739FC11
:103A50000446234801682046FCF7DBFB2049086048
:103A6000204801681E480068FCF7D3FB1E49086027
:103A7000224988611548C07C032814D12948007860
:103A8000022807D1FF20274908700F4801682648FF
:103A9000FDF7ECFD2D480368364802680F480168C1
:103AA000584606F02BFF0948C07C022876D12848EA
:103AB0000368314802680948016860E0280800206E
:103AC000C420002000C0DA452C080020F02400208B
:103AD000D0070020F807002004080020CC070020B1
:103AE000400800203C080020EC070020442A002069
:103AF00000002F4430080020C3F5C840BC29002036
:103B00003026002034080020380800201808002043
:103B1000A82A002000201946F407002058010020A0
:103B20009A99193D380200200AD7A33CFC070020CF
:103B3000F029002030020020340200209A9999993F
:103B40009999D93F7B14AE47E17A943F2008002031
:103B5000DC07002044080020E17A843FAE47E17A88
:103B600014AEEF3FCDCCCC3E0000FAC30000FA43C8
:103B70009CC4A03E10080020E80700200EE0584634
:103B800006F0BCFE14480078022807D113480168EB
:103B9000134804F08BFDFF200F4908701148C07CCA
:103BA000022807D00F48C07C032803D00D48C07CF2
:103BB000062804D10C4800690C49086002E00B4853
:103BC000C0F800A00A4800680A49086000E000BF89
:103BD00000BFBDE8FC9F0000580100202C08002019
:103BE0009A99193DF0240020442A0020C40700209F
:103BF000D8070020F029002010B507F04FF810BDBD
:103C000010B507F0B1F810BD10B507F047F810BDBA
:103C100010B507F0A9F810BD00B54FF480600C494D
:103C2000086000F04BFA4FF400600949086000F0AA
:103C300045FA4FF480600649091F086000F03EFA1B
:103C40004FF480600249086000F038FA00BD0000BF
:103C5000140C014021B1028842F48062028004E029
:103C600002884FF6FF331A400280704721B1028864
:103C700042F00102028004E002884FF6FE731A400F
:103C80000280704710B504460B48844209D10121D7
:103C9000480502F07FFA00214FF4001002F07AFA92
:103CA00008E00121880502F075FA00214FF4800038
:103CB00002F070FA10BD00000054004021B10288EB
:103CC00042F48072028004E002884FF6FF631A40DB
:103CD0000280704721B1028842F40072028004E041
:103CE00002884FF6FF531A400280704708B5012141
:103CF000082002F05FFA4FF48060ADF80000032066
:103D00008DF8020014208DF8030069460A48FFF779
:103D100072F94FF40060ADF8000003208DF8020046
:103D200014208DF8030069460348FFF764F940F654
:103D3000FF7006F05AFD08BD000C01401AB18388DF
:103D40000B43838002E083888B43838070470000AD
:103D50002DE9F04385B004460D460026B146042700
:103D6000DFF8CC80A6884FF6C0700640684602F0A7
:103D700041FADDF808802F48B8FBF0F01FFA80F90F
:103D800046EA0906A68020884FF6FE71084020808A
:103D900000262949286888420CD828684000B8FBCA
:103DA000F0F087B2042F00DA04273E4309F1010046
:103DB000208427E0E8884BF6FF71884206D1286806
:103DC00000EB4000B8FBF0F087B209E0286800EB98
:103DD000C00101EB0010B8FBF0F087B247F4804758
:103DE000C7F30B0008B947F0010747F4004006434A
:103DF0004FF4967009FB00F04FF47A7190FBF1F0EC
:103E0000401C2084A683208840F001002080268862
:103E10004FF6F5300640A888698908430643268096
:103E2000A88929890843208105B0BDE8F0830000F6
:103E300000127A0040420F00A086010000B54FF446
:103E400080600C49086000F039F94FF400600949BE
:103E5000091F086000F032F94FF480600549091F1E
:103E6000086000F02BF94FF480600249086000F010
:103E700025F900BD140C014000B5082100200A02FC
:103E8000124B1A6016E04206100E4FF480620F4B80
:103E90001B1D1A6000F012F94FF480620B4B1A6080
:103EA00000F00CF9094A083A126802F400620AB1FB
:103EB00040F001000A00A1F10103D9B2E3D14FF4AF
:103EC0008062024B1B1D1A6000BD0000100C0140F7
:103ED0002DE9F04107460E461546984600F062F877
:103EE000384600F031F800F0BBF8304600F02CF80E
:103EF00000F0B6F800F056F8791CC8B200F024F8CB
:103F000000F0AEF800240DE0FFF7B6FF08F804005B
:103F1000681EA04202D1FFF791FF01E0FFF77CFE8F
:103F2000601CC4B2AC42EFDB00F06CF800F0C6F8E5
:103F3000BDE8F08112B141F0010102E04FF6FE73DD
:103F4000194001827047000000B508211DE04FF4C0
:103F50008062134B1A6000F0B1F800F080022AB1C1
:103F60004FF400620E4B1B1F1A6003E04FF4006217
:103F70000B4B1A604206100E00F0A0F84FF480625E
:103F8000074B1B1F1A6000F099F80A00A1F101030A
:103F9000D9B2DCD14FF48062014B1A6000BD000041
:103FA000140C014000B54FF4006015490860401042
:103FB000086000F083F812480838006808B901204A
:103FC00000E0002000F4006008B1002000BD4FF4C4
:103FD00000600B49091D086000F070F808480838B7
:103FE000006800F4006008B10020EFE74FF40060C3
:103FF0000349091D086000F061F80120E6E70000B0
:10400000100C014000B54FF480600C49086000F0CE
:1040100055F84FF400600949086000F04FF84FF47C
:1040200080600649091F086000F048F84FF40060FE
:104030000249091F086000F041F800BD140C01405E
:1040400041F288310160002181804BF6FF71C1800F
:104050000021018141814FF480418181704700003E
:1040600000B54FF480601449086000F027F84FF461
:1040700000601149091F086000F020F84FF48060CB
:104080000D49091F086000F019F80B480C3800684A
:1040900000F4006038B14FF480600749086000F018
:1040A0000DF8002000BD4FF480600349086000F067
:1040B00005F80120F6E70000140C014000BF70472E
:1040C0002DE9FF5F88B092469946DDF85CB0ABF110
:1040D000010004B208E0601E0AEBC00103C90AEB4C
:1040E000C40203C2601E04B2002CF4DCDDE9080146
:1040F000CAE9000100252E46002418E0169800EBBE
:10410000C40003C8CDE902010AEBC40003C8CDE92D
:104110000001DDE90223FCF7EBF92A463346CDE93D
:104120000401FCF73EF905460E46601C04B25C45EE
:10413000E4DB1998401E04B208E0601E09EBC001E0
:1041400003C909EBC40203C2601E04B2002CF4DCF4
:104150000027B846012418E0189800EBC40103C9F1
:10416000CDE9020109EBC40003C8CDE90001DDE996
:104170000223FCF7BDF93A464346CDE90401FCF7BA
:1041800010F907468846601C04B219988442E3DBA4
:104190003A46434628463146FCF7A4F9C9E90001EE
:1041A000D9E90001CDE90601DDE906010CB0BDE861
:1041B000F09F000010B518480068047A022C01D066
:1041C000042C05D1FEF7C6F813480068047A1CE0F9
:1041D000062C19D110480068407805280ED10E48E9
:1041E0000068007800F07F0040B90B490968C87882
:1041F00002F07AFB09490968086A8047084909689A
:1042000088688047082400E00824034909680C7284
:1042100001F070FF10BD00001C00002028000020ED
:104220002000002010B5482006F0F2FA01F0E4FA70
:10423000FCF700FD01F0E0FBFEF798FA0EA2062164
:10424000232001F05BFDFFF751FD00F07FF904F042
:10425000ABF803F00DFB01F01DFF01F059FEFEF776
:10426000A1FA04F0F5FC00F0BDF900F09DF8FEF7AE
:10427000A3FEFEF727FB10BDBAE3CDD8BFC6BCBC7A
:104280000000000070B5042600240120FEF7D0FADB
:104290000446AB2C06D1124800EBC420114908603B
:1042A000AB2070BD0E4800EBC4200E490860601CB6
:1042B0000B49891E01EBC0250CE00A480068006824
:1042C000401C10B904263046EBE706480068001D84
:1042D0000449086003480068A842EED38020E0E764
:1042E000000001083C01002010B57521D02002F02B
:1042F000CFFC04460CB9002010BD00226B21D02059
:1043000002F0EEFC07221921D02002F0E9FC032282
:104310001A21D02002F0E4FC10221B21D02002F050
:10432000DFFC09221C21D02002F0DAFC0120E3E7A7
:1043300010B50A213C2002F0ABFC04460CB9002069
:1043400010BD782200213C2002F0CAFC202201216D
:104350003C2002F0C5FC002202213C2002F0C0FCFF
:10436000642006F042FA0120EAE730B50B4600214E
:1043700000BF16E00A24B4EB107F05D9302404EB0B
:10438000107403F8114005E0412404EB10740A3C5A
:1043900003F81140000100254C00641C1D554C1C05
:1043A000E1B29142E6DB30BD10B5002430E04FF4BD
:1043B00080516448FEF7FBFE4FF480616148FEF7D0
:1043C000F6FE4FF480416048FEF7F1FE4FF40041E5
:1043D0005C48FEF7ECFEC82006F007FA4FF4805167
:1043E0005848FEF7E6FE4FF480615648FEF7E1FEBE
:1043F0004FF480415448FEF7DCFE4FF40041514831
:10440000FEF7D7FE4FF47A7006F0EFF9601CC4B2E5
:10441000052CCCDB002491E040F2DC5006F0E5F9FD
:104420004FF480514748FEF7C2FE40F2DC5006F0E0
:10443000DCF94FF480514348FEF7BBFE4FF4967011
:1044400006F0D3F94FF480613E48FEF7B0FE40F22B
:10445000DC5006F0CAF94FF480613A48FEF7A9FE35
:104460004FF4967006F0C1F94FF400413548FEF75D
:104470009EFE40F2DC5006F0B8F94FF4004131489E
:10448000FEF797FE4FF4967006F0AFF94FF48041B7
:104490002D48FEF78CFE40F2DC5006F0A6F94FF4F2
:1044A00080412948FEF785FE40F2DC5006F09DF978
:1044B0004FF480412448FEF77AFE40F2DC5006F0CB
:1044C00094F94FF480412048FEF773FE4FF4967044
:1044D00006F08BF94FF400411A48FEF768FE40F2EF
:1044E000DC5006F082F94FF400411648FEF761FEF9
:1044F0004FF4967006F079F94FF480611148FEF799
:1045000056FE40F2DC5006F070F94FF480610D4821
:10451000FEF74FFE4FF4967006F067F94FF48051A6
:104520000848FEF744FE40F2DC5006F05EF94FF416
:1045300080510448FEF73DFE601CC4B2022CFFF619
:104540006BAF10BD00180140000C014008B50121FF
:10455000202001F02FFE0121402001F02BFE01213F
:10456000084601F027FE01211948FEF7CFFD012181
:104570001848FEF7CBFD0720ADF8000010208DF89D
:10458000030003208DF8020069461348FEF733FD4F
:1045900007211148FEF70DFE4FF41440ADF800005E
:1045A00069460E48FEF727FD4FF414410B48FEF70D
:1045B00000FE4FF48040ADF8000069460848FEF761
:1045C0001AFD4FF480410648FEF7F3FD08BD0000D8
:1045D00000043000000230000014014000180140C7
:1045E000000C014010B507211948FEF7E0FD4FF41B
:1045F000617006F0FAF807211548FEF7DAFD4FF46E
:104600007A5006F0F2F807211148FEF7D0FD4FF47A
:10461000617006F0EAF807210D48FEF7CAFD4FF475
:104620007A5006F0E2F807210948FEF7C0FD4FF482
:10463000617006F0DAF807210548FEF7BAFD4FF47D
:104640007A5006F0D2F807210148FEF7B0FD10BD00
:10465000001401402DE9F04704460D461646314648
:104660002846FBF72EFE804631464FF07E50FBF782
:1046700022FE81462146FBF724FE07464146FBF712
:10468000C8FDBDE8F08700002E49C97C02291ED173
:104690002D490978D9B92D4909682D4A11602B494E
:1046A000896891602949496851602A4909682A4AFC
:1046B00011600021294A1160294AD160294A1160FC
:1046C000294AD160516001211F4A11700AE01D4939
:1046D000C97C012903D01B49C97C032902D10021CF
:1046E000194A11701749C97C03291ED11F4909783D
:1046F000D9B91F490968164A11601D498968916036
:104700001B49496851601B490968134A116000211F
:10471000124A1160184A1160184A1160184AD16093
:1047200051600121114A11700AE00649C97C012932
:1047300003D00449C97C022902D100210B4A11701F
:1047400070470000F0240020D0070020642A0020D9
:10475000582A0020E4070020D8070020C8070020BE
:10476000442A0020DC070020242A0020040800201E
:10477000702A0020080800201C08002020080020C3
:10478000742B002010B500F061F82E4840782D49B8
:10479000097840EA01202C49098C401A00B22A49C4
:1047A00008802848C0782749897840EA01212648AE
:1047B000408C081A00B22449488022484079214997
:1047C000097940EA012000B21F4988801D48407ADB
:1047D0001C49097A40EA012000B21B498886194821
:1047E000C07A1849897A40EA012001B21648C18688
:1047F0001448407B1349097B40EA012001B212486A
:1048000001870146B1F93420B1F95410501AFBF771
:1048100050FF0D49C865B1F93620B1F95610501A4C
:10482000FBF747FF0146084801660146B1F9382009
:10483000B1F95810501AFBF73CFF01460248416697
:1048400010BD0000B4200020C420002010B53B2182
:10485000D02002F01DFA224908703C21D02002F03D
:1048600017FA1F4948703D21D02002F011FA1C4967
:1048700088703E21D02002F00BFA1949C8703F2100
:10488000D02002F005FA164908714021D02002F02C
:10489000FFF9134948714321D02002F0F9F910497A
:1048A00008724421D02002F0F3F90D4948724521E5
:1048B000D02002F0EDF90A4988724621D02002F09A
:1048C000E7F90749C8724721D02002F0E1F904490D
:1048D00008734821D02002F0DBF90149487310BD6C
:1048E000B420002010B5FFF75DFBEE20FFF72CFB96
:1048F000FFF7B6FB1E20FFF727FBFFF7B1FBFFF723
:1049000081FB10BD2DE9F0410025FFF74BFBEE20A8
:10491000FFF71AFBFFF7A4FB0020FFF715FBFFF7DB
:104920009FFBFFF76FFBFFF73DFBEF20FFF70CFB53
:10493000FFF796FBFFF7A0FA0646FFF76DF9FFF7C2
:104940009BFA0446FFF768F9FFF796FA0746FFF768
:1049500075FAFFF757FBC6EB064000EB0420C519BC
:104960002846BDE8F08100002DE9F04F89B0002411
:104970000025DFF8848200200890079040460690CA
:10498000FFF7C0FF9D490860FFF798FB9C4800694E
:1049900000239C4AD2E9001CA0FB016B03FB01B180
:1049A00000FB0C1180223046FBF7DEFB944A128993
:1049B000120410EB020941F100014846FBF7B3FE77
:1049C000914A03C28E48C06800228E49D1E9003165
:1049D000A0FB036902FB039201FB00214FF48072EC
:1049E00000233046FBF7C0FB854A5268D20380188B
:1049F00041F10001854A03C28548D0E900204FF407
:104A0000FA63D21A70F100004AD28148D0E900104E
:104A1000A1FB012700FB017701FB00711046FBF7AA
:104A200056FE7C49086008460068FBF7D9FE8146BF
:104A30000022794BFBF75CFD0646FBF7B8FE774991
:104A4000086074480068FBF7CBFE81460022744B77
:104A5000FBF74EFD0646FBF7AAFE724908606C485C
:104A6000D0E9003170480068181A61F10001684A05
:104A700003C26A480068FBF749FE064662480CC854
:104A80003046FBF732FD604A03C26048D0E900308F
:104A900064490968591A60F100005C4AC2E90010D3
:104AA0005648006800225949D1E90031A0FB036B48
:104AB00002FB03B201FB00214FF400120023304639
:104AC000FBF752FBCDE90001FBF72DFECDE902011A
:104AD0004D480CC80298FBF705FD81460022534B58
:104AE000FBF778FDCDE90401FBF761FE5049086052
:104AF0005049514A127841F822004F480078401C32
:104B00004D49087008460078142801D1002008702B
:104B1000002016E0474951F82010A94203D9454921
:104B200051F8205007E0434951F82010414502D286
:104B3000404951F820803F4951F820100C44411C55
:104B4000C8B21428E6DB601BA0EB08001221B0FB02
:104B5000F1F03A490860084600683949884202D9AC
:104B600038483649086035480068FBF7ABFD074612
:104B7000354801683846FBF7A1FB06463349FBF789
:104B8000A0FB33490860334931480068FBF788FED1
:104B900002D231482E49086025480068FBF792FD93
:104BA0000746294801683846FBF788FB064627492F
:104BB000FBF787FB29490860274928480068FBF76D
:104BC0006FFE02D224482549086025480088B0F5C8
:104BD000967F0ADA22480088401C2149088017483D
:104BE0000068FBF76FFD1849086001201D49087037
:104BF00009B0BDE8F08F0000400D0300D001002097
:104C000050210020B0010020A0010020C801002098
:104C1000B8010020A801002000000440EC010020A1
:104C20000000F43FF0010020E40100200000E0401B
:104C3000E00100206C2100203A020020D801002071
:104C4000F0490200A0860100240800200000AA42CA
:104C5000FC070020000048C30000C8C22C0200204E
:104C60003C020020380200202DE9F04700240025F6
:104C7000DFF8B080FFF746FE2B492C4A127841F846
:104C800022002A480078401C28490870084600780D
:104C9000642801D100200870002016E0224951F854
:104CA0002010A94203D9204951F8205007E01E499D
:104CB00051F82010414502D21B4951F820801A4971
:104CC00051F820100C44411CC8B26428E6DB601B7C
:104CD000A0EB08006221B0FBF1F01549086015480F
:104CE00040690968A1EB00200021134A03C2114862
:104CF000806900231049D1E9002CA0FB026903FB65
:104D0000029200FB0C214FF400023046FBF72CFA14
:104D10004FF4FA63C01841F10001084A03C2BDE82C
:104D2000F087000000C2EB0BBC21002039020020FC
:104D3000D401002050210020B0010020B801002043
:104D400010B50446FFF72EF9EE20FFF7FDF8FFF748
:104D500087F92046FFF7F8F8FFF782F9FFF752F9D5
:104D600010BD000070B5FFF7BDFD142005F070FD0B
:104D7000012432E0FFF716F9EE20FFF7E5F8FFF720
:104D80006FF9A02101EB4401C8B2FFF7DDF8FFF78E
:104D900067F9FFF737F9012005F05AFDFFF702F92F
:104DA000EF20FFF7D1F8FFF75BF9FFF765F805464D
:104DB000FEF732FFFFF760F80646FFF73FF8FFF710
:104DC00021F9FFF77BF946EA0520084941F824005C
:104DD0000A2005F03DFD601CC4B2062CCADD034864
:104DE000006808B1012070BD0020FCE750210020C0
:104DF0002DE9FF5F81469448007898B100209249E0
:104E0000087092490860924908609249086000243D
:104E100006E000209049096821F81400601CC4B223
:104E2000062CF6DB002421E08B48006830F91400E2
:104E300039F91410884206DD39F8140086490968EA
:104E400021F8140010E08448006800EB4400B0F939
:104E5000060039F91410884206DA39F814007E4940
:104E6000096801EB4401C880601CC4B2032CDBDB81
:104E70007A48007A012847D1794908690021FBF76F
:104E80000FFD04D27648006980F0004001E07448CC
:104E9000006905467349FBF70DFD35D27049486E30
:104EA000FBF79EFC704A714BCDE90001FBF720FB3C
:104EB00007464FF060426E4BFBF71AFB05460E4665
:104EC00062480068FBF78CFC82462A463346FBF7B3
:104ED00068FACDE90201FBF7C7FC5C4908600021D4
:104EE0005A480068FBF7DCFC04D25848006880F0A0
:104EF000004001E05548006805465E49FBF7DAFCD2
:104F000002D20220554908725448007A022847D13B
:104F1000534988680021FBF7C3FC04D250488068DD
:104F200080F0004001E04E48806805464D49FBF79F
:104F3000C1FC35D24A49C86DFBF752FC07464A4AC4
:104F40004A4BFBF7D5FA05464FF06042484BFBF75A
:104F5000CFFA82468B463F480068FBF741FC524639
:104F60005B46CDE90001FBF71CFACDE90201FBF736
:104F70007BFC38490860002136480068FBF790FC4C
:104F800004D23448006880F0004001E031480068F5
:104F900005463849FBF78EFC02D203202F490872E0
:104FA0002E48007A03284CD12D49C8680021FBF710
:104FB00077FC04D22A48C06880F0004001E028480D
:104FC000C06805462749FBF775FC3AD22449086EAC
:104FD000FBF706FC0746244A244BFBF789FA4FF0FF
:104FE0006042234BCDE90001FBF782FA05460E46ED
:104FF00017480068FBF7F4FB82462A463346FBF766
:10500000D0F9CDE90201FBF72FFC1149086000211E
:105010000F480068FBF744FC04D20D48006880F09C
:10502000004001E00A48006805461249FBF742FCCF
:1050300007D2012004490870002008490872FDF7D2
:10504000AFFEBDE8FF9F00007D0100208801002029
:10505000840100208001002078010020F02400203D
:10506000C420002000409C4530689DC8FE3F9F3F03
:105070004D62603F0000B44300BFFEE72DE9F04FF2
:105080008BB09649886CFBF75AFB04B29349D1F870
:105090009000FBF754FB0FFA80F99048D0F8D80045
:1050A00080F000452846FBF74AFB0FFA80FA8C484F
:1050B000C07C02280BD08A48C07C042807D08848CE
:1050C000C07C062803D08648C07C03287DD150468A
:1050D000FBF7EFFA80464846FBF7EBFA834620469B
:1050E000FBF7E7FA09907F4801680998FBF7E6F8B3
:1050F00007465946FBF7DFF806464146FBF789F8B5
:105100000546FBF71CFB00B2774908805046FBF7C9
:10511000D0FA80464846FBF7CCFA09902046FBF7C8
:10512000C8FA83466F4801685846FBF7C7F8074638
:105130000999FBF76EF806464146FBF7BCF80546B1
:10514000FBF7FDFA00B2684948805046FBF7B1FA18
:1051500009904846FBF7ADFA80462046FBF7A9FACE
:105160008346604801685846FBF753F807464146B6
:10517000FBF74FF806460999FBF74BF80546FBF796
:10518000DEFA00B2584988805046FBF792FA09903F
:105190004846FBF78EFA80462046FBF78AFA83469C
:1051A000504801685846FBF734F807464146FBF77C
:1051B00082F806460999FBF77EF80546FBF7BFFA29
:1051C00000B24949C8806AE0FFE74848B0F91400D6
:1051D00040F27E4188425BDD45490868FBF700FBF1
:1051E0000746444A444BFBF7F5F9054605F09CFA9F
:1051F000CDE906013E494868FBF7F2FA3D4A3E4BCD
:10520000CDE90001FBF7E6F9CDE9020105F08CFAE2
:1052100005460E463549B1F91410A1F24C40FBF792
:1052200064FA07462A463346FBF7D4F9CDE9040170
:10523000DDE90623FBF7CEF9CDE90801FBF798FA83
:105240002E49086008460088001BA0EB0900504466
:10525000C83000B22449088028480088001B484410
:10526000A0EB0A00C83000B24880244800882044DF
:1052700048445044C83000B2888020480088204408
:10528000A0EB0900A0EB0A00C83000B2C88006E01D
:105290000422C821144804F033FF01F00DFA10482D
:1052A000407980B110480088154908800E48408830
:1052B00048800D48808888800B48C088C880084690
:1052C00005F09EFF06E0042200210D4804F018FFBF
:1052D00005F0CCFF0BB0BDE8F08F00003C260020AD
:1052E000F024002024050020140500206024002064
:1052F0002426002031B3CF6394A94C402C05002014
:105300000C0500202DE9F84F80460D4616461C4638
:10531000DDF8289037462088401C80B22080B842B3
:1053200004DD002020800120608007E02088B84252
:1053300001D1002001E02088401C6080208845F8D1
:1053400020803846FBF7BEF98346608855F8201068
:105350004046FAF7B0FF59460090FAF7E4FF82465C
:10536000D9F80010FAF755FFC9F80000BDE8F88F2A
:105370002DE9F0438BB004460D469046042C01DA2B
:105380000B2D03DB00200BB0BDE8F0832648005D49
:10539000401CC0B224490855A84201DB0020085532
:1053A00004EB440000EBC400204901EB80001E49DF
:1053B000095D40F8218000260CE004EB440000EB7E
:1053C000C4001A4901EB800050F826004DF8260071
:1053D000701CC6B2AE42F0DB00261BE0002713E0D3
:1053E0007A1C5DF822105DF82700FBF763FA09D2FA
:1053F0005DF82790781C5DF820004DF82700781C98
:105400004DF82090781CC7B2681E801BB842E7DCBC
:10541000701CC6B2681EB042E0DC294605EBD170B4
:1054200040105DF82000AEE788020020A023002095
:10543000704770471CB512A103C9CDE900010522D0
:105440006946302000F0C0F805226946102000F0BF
:1054500099F89DF801000C490870002406E01DF839
:105460000400A52800D003E0601CC4B2052CF6DBC4
:1054700000BF052C01D000201CBD0120FCE700006E
:10548000A5A5A5A5A50000002801002010B504468B
:1054900008213948FDF78BFE05223849302000F0FD
:1054A00093F8052236492A2000F08EF801212120A8
:1054B00000F0ACF80121222000F0A8F81A212420E5
:1054C00000F0A4F87321252000F0A0F80F21262079
:1054D00000F09CF8012C08D12021312000F096F832
:1054E0000F21202000F092F841E0022C08D1202169
:1054F000312000F08BF80E21202000F087F836E0F4
:10550000032C1AD1FF21E12000F080F8FF21E220D6
:1055100000F07CF83F21202000F078F8502001F0C6
:10552000EFF8732001F0ECF801213C2000F06EF858
:1055300007213D2000F06AF819E02E21202000F01C
:1055400065F8FF21E12000F061F8FF21E22000F082
:105550005DF8502001F0D4F8732001F0D1F801215A
:105560003C2000F053F807213D2000F04FF80821BF
:105570000148FDF71EFE10BD001401408C01002003
:10558000910100202DE9F04107460D4616464FF4E3
:1055900000410C48FDF70BFE384601F0B1F880469B
:1055A000002405E0FF2001F0ABF82855601CC4B2D0
:1055B000B442F7DB4FF400410248FDF7FAFD4046E4
:1055C000BDE8F081000801402DE9F04107460C4696
:1055D00015464FF400410C48FDF7E9FD384601F04F
:1055E0008FF88046002605E014F8010B01F088F8DA
:1055F000701CC6B2AE42F7DB4FF400410248FDF723
:10560000D8FD4046BDE8F0810008014070B5054670
:105610000C464FF400410848FDF7C9FD284601F04B
:105620006FF80646204601F06BF84FF4004102483F
:10563000FDF7BFFD304670BD0008014070B5002188
:1056400000230F22C47804B3154C246804F4E064EA
:10565000C4F5E064210AC1F10403CA40447804FAA5
:1056600003F184781440214309010E4C0678A155BA
:10567000047804F01F050124AC4005786D11AD00DD
:1056800005F1E025C5F8004109E0047804F01F05A4
:105690000124AC40044D0678761145F8264070BDD3
:1056A0000CED00E000E400E080E100E0024901438D
:1056B000024A1160704700000000FA050CED00E09E
:1056C00070B502264748006844784648006800786C
:1056D00000F07F00002844D1092C03D101F098FC90
:1056E00006465FE0052C14D13E480068C0787F284C
:1056F0000BDC3C480068807838B93A4800688088FC
:1057000018B938480068807A08B1082565E0002695
:1057100048E0032C0ED133480068C078012807D137
:1057200030480068808818B901F096FC064639E0D8
:10573000022637E0012C35D12A480068C0780128BC
:105740000DD128480068808848B926480068407A0A
:1057500000F0200018B101F0E7FA064622E0022628
:1057600020E020480068007800F07F00012805D183
:105770000B2C17D101F0ECFC064613E01948006829
:10578000007800F07F0002280BD1012C03D101F03A
:10579000CBFA064606E0032C04D101F071FC064664
:1057A00000E002264EB1E0B20F4A12685169884704
:1057B0000646032E01D109250FE00EB108250CE0A5
:1057C000062500210948006880B2801C084A42F87A
:1057D000101030200749088000BF024909680D7287
:1057E00070BD00001C00002020000020505C004024
:1057F000006000402E00002008B54FF4A060FFF7C5
:1058000055FF32208DF8000001208DF801008DF841
:1058100002008DF803006846FFF710FF1C208DF88A
:10582000000000208DF8010001208DF802008DF8A5
:1058300003006846FFF702FF1D208DF800000020DE
:105840008DF8010002208DF8020001208DF8030080
:105850006846FFF7F3FE25208DF8000000208DF844
:1058600001008DF8020001208DF803006846FFF763
:10587000E5FE0E208DF8000002208DF801000120C9
:105880008DF802008DF803006846FFF7D7FE08BDCB
:1058900007E040F2375100BF0A00A1F10101FBD13E
:1058A000401E0028F5D1704710B52848807801289F
:1058B0000AD127A20121502000F0AAF90420FFF705
:1058C000E5FD04202349087023A20021084600F0CA
:1058D0009FF923A20021462000F09AF923A201217A
:1058E000002000F095F923A20221002000F090F999
:1058F00022A20321002000F08BF922A20421002023
:1059000000F086F921A20321462000F081F921A2AE
:105910000421382000F07CF914A20521002000F0B9
:1059200077F91EA20621002000F072F91DA20521C0
:10593000382000F06DF91DA20621382000F068F92A
:105940001CA20721002000F063F910BDF024002004
:105950004E5246009701002076322E332E3500003D
:1059600051554144524F544F520000005941573A4B
:10597000000000005049543A00000000524F4C3AD9
:105980000000000054494D3A00000000554C543AC4
:10599000000000004241523A000000005448523AD0
:1059A00000000000524F4C4C203A00005049544334
:1059B000483A00004D4F544F3A00000070B506467B
:1059C000002415E004F1B001C8B200F00BFA012088
:1059D00000F008FA102000F005FA002504E0304637
:1059E00000F02CFA681CC5B2802DF8DB601CC4B234
:1059F000082CE7DB70BD000008B50121102000F085
:105A0000D9FB0F20ADF8000003208DF80200102014
:105A10008DF8030069463D48FDF7EDFA08213B4843
:105A2000FDF7C7FB02213948FDF7C1FB3220FFF724
:105A30002FFF02213548FDF7BCFB0021AE2000F00E
:105A4000A1F90021D52000F09DF90021802000F06F
:105A500099F90021A82000F095F900213F2000F0DD
:105A600091F90021D32000F08DF90021084600F0C3
:105A700089F90021402000F085F900218D2000F0F7
:105A800081F90021142000F07DF90021202000F090
:105A900079F90021022000F075F90021A12000F021
:105AA00071F90021C82000F06DF90021DA2000F022
:105AB00069F90021122000F065F90021812000F031
:105AC00061F90021EF2000F05DF90021D92000F0FC
:105AD00059F90021F12000F055F90021DB2000F0F8
