:020000040802F0
:10000000B0550020450102089197020811740208BA
:10001000D99302089152020871D50208000000002D
:10002000000000000000000000000000CFB0020847
:10003000315F0208000000006DA502085D010208A2
:100040005F0102085F0102085F0102085F01020808
:100050005F0102085F0102085F0102085F010208F8
:100060005F0102085F0102085F0102085F010208E8
:100070005F0102085F010208855802085F0102085B
:100080005F0102085F0102085F0102085F010208C8
:100090001DCF02085F0102085F0102085F0102082C
:1000A0005F0102085F0102085F0102085F010208A8
:1000B000EDBC0208E1BE02085F010208457E0208AD
:1000C0003D7E0208557E02084D7E02085F0102084F
:1000D0005F010208CDCC02085F0102085F0102083F
:1000E0005F0102085F0102085F0102085F01020868
:1000F0005F0102085F0102085F0102085F01020858
:100100005F0102085F01020851C102085F01020895
:100110005F0102085F0102085F0102085F01020837
:100120005F0102085F0102085F0102085F01020827
:10013000DFF80CD000F0FEFC004800471100030877
:10014000B05500200648804706480047FEE7FEE716
:10015000FEE7FEE7FEE7FEE7FEE7FEE7FEE7FEE777
:100160004DBA0208310102082DE9F05F0546002072
:1001700092469B4688460646814640241BE0284618
:1001800041464746224600F0AAFB53465A46C01A4B
:10019000914110D311461846224600F091FB2D1ACA
:1001A00067EB01084F4622460120002100F088FB42
:1001B00017EB00094E41201EA4F10104DFDC484684
:1001C00031462A464346BDE8F09F40EA01039B07BB
:1001D00003D009E008C9121F08C0042AFAD203E0BC
:1001E00011F8013B00F8013B521EF9D27047D2B220
:1001F00001E000F8012B491EFBD270470022F6E710
:1002000010B513460A4604461946FFF7F0FF20468C
:1002100010BDF0B480EA0102D40F4200B2EB410FEE
:1002200002D20246084611464A0042D0C30DDDB252
:10023000C1F3C752AD1A202D35DAC1F3160141F4CE
:10024000000204B15242C5F1200602FA06F12A4129
:100250001044B3EBD05F23D0C4B1012DA0EBC35049
:1002600009DCF0BC4FF0004202EAC352DBB200F5F9
:10027000000000F05FBB400000F1807000EBC35055
:10028000A0F1807040EAD170490009E0490841EAD4
:10029000C071A0EBC35000F50000400800EBC35054
:1002A000F0BC00F03EBB6142012202EB4101001BA9
:1002B000F6E7F0BC704781F00041AAE780F000400B
:1002C000A7E780EA010210B502F00043400022D007
:1002D0004A001FD0010E01EB1261C0F35600C2F3B9
:1002E000560240F4000042F40002A0FB0220000489
:1002F0007F39140400D0401C50EA124001D4400061
:10030000491EC2B20C0604EBD010401C4008802AE3
:1003100002D003E0002010BD20F00100002900DA27
:100320000020184310BD30B480EA010202F00045FD
:1003300030F0004221F0004013D090B1C30DD40D35
:10034000C2F31601C0F31600E41A41F4000140F4B0
:1003500000027D34914201D3641C00E04900002C6E
:1003600002DA30BC002070474FF4000000239142B5
:1003700001D3891A034340084FEA4101F7D151B133
:10038000914202D14FF0004105E002D24FF001014D
:1003900001E06FF0010103EBC450284430BC00F0D1
:1003A000C0BA2DE9FE4F804681EA0300C00F0C461B
:1003B000009021F0004123F00045B8EB0200A94174
:1003C00005D24046214690461C460B46024623F085
:1003D0000040104347D0270DC7F30A00C3F30A516A
:1003E0000290401A019040286BDAC3F3130040F4E6
:1003F000801B0098924620B10023D2EB030A63EBE6
:100400000B0B01985946C0F14002504600F058FAD3
:1004100006460D4650465946019A00F070FA10EB18
:1004200008006141002487EA115284EAE7731A4305
:1004300040D0009A62B3019A012A4FEA075215DCB4
:10044000001B61EB02014FF0004202EA0752CDE9C6
:100450000042001C41F5801132462B4600F0B3FAF1
:1004600003B0BDE8F08F40462146F9E7001B61EB81
:100470000201001C41F5801300185B412018A2F511
:10048000001747EB030140EAD570B6196D4111E042
:100490006D084FEA360645EAC0754FEA0752001B61
:1004A00061EB0201001C41F5801149084FEA300060
:1004B0000019514132462B4603B0BDE8F04F00F021
:1004C00073BA0098012240000023D0EB020263EBD4
:1004D000E073009821464FEAE074B8EB000061EB4E
:1004E0000401E9E783F000435BE781F0004158E74E
:1004F0002DE9FE4F81EA030404F0004421F000419D
:1005000000944FF0000B23F0004350EA01045ED04A
:1005100052EA03045BD0C3F30A54C1F30A552C44D6
:10052000A4F2F3340194A0FB0254C1F3130141F48B
:100530008011C3F3130343F4801301FB024400FB57
:10054000034E840A970A44EA815447EA8357A4FB7E
:10055000076802958D0A05FB07854FEA932C04FB7B
:100560000C542705029D4FEA065847EA1637B5EBAB
:1005700008056EEB070C870E920E47EA811742EAD8
:100580008312A7FB0201B6EB0B0164EB00042B0DF9
:1005900043EA0C335E1844EB1C50DA465146E7FB45
:1005A0000201C5F313044FEA0B3343EA14534FEA35
:1005B0000432019C43EA0603A4F10C040294009C5B
:1005C000CDE900B400F0FFF903B0BDE8F08F0020E2
:1005D0000146F9E72DE9F04D81EA030404F0004BF0
:1005E00021F0004514464FF0000A23F0004150EA84
:1005F000050220D054EA01021DD0C5F30A57024675
:10060000C5F31303C1F31300C1F30A5640F4801578
:1006100043F48013A7EB0608101BD64608F2FD38FA
:1006200073EB050002D308F1010801E092185B4169
:10063000B8F1000F03DA00200146BDE8F08D00207C
:100640004FF48011064684460EE0171B73EB050736
:1006500005D3121B63EB050306434CEA010C490862
:100660004FEA300092185B4150EA0107EDD152EA9F
:10067000030012D082EA040083EA0501084305D092
:10068000101BAB4106D20122002306E000224FF0EE
:10069000004302E06FF0010253101AEB06004CEB2E
:1006A000085110EB0A0041EB0B01BDE8F04D00F0E2
:1006B0007BB9C10F80EAE0700844CA079623002185
:1006C00000F038B996230022114600F033B930B457
:1006D000044696230800214604D0B62330BC0022ED
:1006E00000F028B920460021F8E70EB5C10F80EAD6
:1006F000E0700844CA07002140F233438DE80E0041
:100700000A460B4600F05FF903B000BD0EB540F29B
:10071000334102910021CDE900110A460B4600F059
:1007200052F903B000BD0EB540F2334202920022EE
:10073000CDE90022134600F046F903B000BD00F0F9
:10074000004220F00040C10DC0F3160040F400004C
:100750007F2901DA00207047962903DCC1F1960158
:10076000C84001E096398840002AF4D040427047E2
:1007700020F00040C10DC0F3160040F400007F29B6
:1007800001DA00207047962903DCC1F19601C840C8
:10079000704796398840704770B5C1F30A5201F02E
:1007A00000450024C1F3130140F2FF3341F48011EE
:1007B0009A4201DA002070BD40F233439A42A2F21D
:1007C000334203DC524200F08AF800E090402C43B0
:1007D000F1D0404270BDC1F30A5210B5C1F313010C
:1007E00040F2FF3341F480119A4201DA002010BD3B
:1007F00040F233439A42A2F2334203DC524200F009
:100800006EF810BD904010BD00F0004230F0004086
:100810000AD0C10D01F56071C0F3160042EA015122
:10082000C20840071143704700200146704700008E
:1008300030B5041E71F1000404DB4FF00044404267
:1008400064EB0101141E73F1000405DB1C464FF03C
:100850000043524263EB04038B4208BF824230BD27
:1008600001F0004330B421F0004150EA010206D00B
:100870000A0DA2F56072C1F31301002A02DC30BC3C
:1008800000207047440F44EAC104C100E01830BCA6
:1008900000EBC25000F045B8002801DBC0F1004079
:1008A000002901DBC1F1004181427047002801DBD2
:1008B000C0F10040002901DBC1F1004188427047CE
:1008C000202A04DB203A00FA02F100207047914010
:1008D000C2F1200320FA03F3194390407047202A05
:1008E00004DB203A21FA02F00021704721FA02F3DA
:1008F000D040C2F120029140084319467047202A97
:1009000006DBCB17203A41FA02F043EAE07306E037
:1009100041FA02F3D040C2F1200291400843194647
:1009200070470029A8BF7047401C490008BF20F04D
:100930000100704710B4B0FA80FC00FA0CF050EAE5
:10094000010404BF10BC704749B1CCF1200421FA66
:1009500004F411FA0CF118BF012121430843A3EB61
:100960000C01CB1D4FEA00614FEA102042BF00206E
:1009700010BC704700EBC35010440029A4BF10BC4A
:100980007047401C490008BF20F0010010BC7047B0
:10099000420005D0C0F3C7525242914201DC002010
:1009A000704700EBC150704710B5141E73F100047E
:1009B00008DA401C41F1000192185B411A4301D151
:1009C00020F0010010BD2DE9F04D92469B4611B17B
:1009D000B1FA81F202E0B0FA80F220329046FFF7DD
:1009E0006FFF04460F4640EA0A0041EA0B015346F6
:1009F0005A46084313D0114653EA010019D0C8F1F2
:100A000040025046FFF76BFF05460E4650465946DA
:100A10004246FFF755FF084305D0012004E0204679
:100A20003946BDE8F08D0020054346EAE0762C43C8
:100A300037430A986305E40AA0EB08000022FD0A88
:100A400044EA47540A3002D500200146E9E701058F
:100A500010196941DDE9084500196941BDE8F04D0B
:100A6000A2E770B521F0004303430CD0C1F30A554F
:100A70000024D5EB040564EB0403D617AD1AB3418B
:100A800002DB0020014670BD201841EB025170BD11
:100A90002DE9F04D00231A461B1A8A4103DB002082
:100AA0000146BDE8F08DC1F30A52C1F3130141F4D0
:100AB00080154FF0000BD10702D100186D41521E76
:100AC0000027044640F2FF11384601EB620A3E4619
:100AD0008046024600204FF48011FFF700FFC21944
:100AE0007141BB1846EB0100B4EB030C75EB000C35
:100AF00004D3E41A65EB000517460E46241908F1E5
:100B000001006D4180463428E3DDF91946EB06000B
:100B1000091BA84103D24FF0FF32134601E0002227
:100B200013461BEB070046EB0A51BDE8F04DFFF7FB
:100B30003BBF0000064C074D06E0E06840F00103B3
:100B400094E8070098471034AC42F6D3FFF7F4FA64
:100B50003022030850220308F0B4002802DCF0BC65
:100B600000207047C0F3C751C0F3160040F40000E6
:100B7000CA0701D14000491E3F2202EB6105002255
:100B800011464FF4000626FA01F31344D4188442A8
:100B900001D8001B1A464000491C1729F3DD5100FB
:100BA000814202D24FF0FF3100E0002102EBC5503C
:100BB000F0BCFFF7B6BE70B58C1810F8015B15F0ED
:100BC000070301D110F8013B2A1106D110F8012BBF
:100BD00003E010F8016B01F8016B5B1EF9D12B07E4
:100BE00005D40023521E0DD401F8013BFAE710F89A
:100BF000013BCB1A921C03E013F8015B01F8015B87
:100C0000521EF9D5A142D8D3002070BD08B50121EC
:100C1000084609F0B7FE01214FF4017009F0E2FE29
:100C20004FF4004009F0A2FE1020ADF800000020B3
:100C30008DF803006946024806F030F808BD000050
:100C40000008014010B5FFF7E1FF00F001F810BD0A
:100C500000B591B0334804F03BFE3348069033486A
:100C60000790002008900120099000200A90802021
:100C70000B9040000C9080000D9020200E90000200
:100C80000F900020109006A9264804F0D0FE012104
:100C9000244804F011FE0020019001208DF8080086
:100CA0008DF809004FF4602003900020049001208B
:100CB0008DF8140001A91C484C3800F06FF805238A
:100CC0000122042118484C3800F090F80021164801
:100CD0004C3800F043F8012113484C3800F033F849
:100CE000012111484C3800F023F80F484C3800F02F
:100CF000D9F800BF0C484C3800F045F80028F9D16D
:100D000009484C3800F0DEF800BF07484C3800F0C6
:100D100030F80028F9D1012103484C3800F0C7F819
:100D200011B000BD080002404C24014030010020F9
:100D300021B1826842F00102826003E0826822F001
:100D400001028260704721B1826842F48072826041
:100D500003E0826822F480728260704721B1826869
:100D600042F48012826003E0826822F48012826082
:100D70007047014600208A6802F004020AB101208F
:100D800000E000207047014600208A6802F0080257
:100D90000AB1012000E000207047000030B5024693
:100DA0000020002350680F4C20400D790C6844EA65
:100DB00005242043506090680B4C2040D1E9025438
:100DC0002C434D7944EA450420439060D06A20F4D6
:100DD00070000C7C641EE4B2234340EA0350D062EE
:100DE00030BD0000FFFEF0FFFDF7F1FFF0B5044657
:100DF0000D4600200021092D11DDE068A5F10A064D
:100E000006EB4607072606FA07F18843A5F10A060E
:100E100006EB460603FA06F10843E0600CE02069A1
:100E200005EB4507072606FA07F1884305EB45065B
:100E300003FA06F108432061072A0FDA606B561E99
:100E400006EB86071F2606FA07F18843561E06EBB7
:100E5000860605FA06F10843606322E00D2A0FDAE0
:100E6000206BD61F06EB86071F2606FA07F188437C
:100E7000D61F06EB860605FA06F10843206310E04C
:100E8000E06AA2F10D0606EB86071F2606FA07F1B7
:100E90008843A2F10D0606EB860605FA06F1084323
:100EA000E062F0BD816841F008018160704721B1C6
:100EB000826842F4A002826003E0826822F4A00209
:100EC00082607047816841F00401816070470000D2
:100ED0002DE9F04F8FB0934A11691069FFF7F1F9CE
:100EE0000746904AD168D068FFF7EBF980468D4AF3
:100EF00091689068FFF7E5F983464146FFF789F965
:100F000005463946FFF785F9064609F055FB089076
:100F1000844988680899FFF7D4F90E908149C86818
:100F20000899FFF7CEF90D907E4908690899FFF7F7
:100F3000C8F90C907C4905A809F0CEFC05AD7B49A9
:100F400005980860069848600798886008464168D8
:100F50000C98FFF7B6F90546744881680D98FFF7BD
:100F6000B0F906462946FFF7A6F904466F4881689E
:100F70000E98FFF7A6F905466C4801680C98FFF734
:100F8000A0F906462946FFF796F9814667480168A9
:100F90000D98FFF796F90546644841680E98FFF7EB
:100FA00090F906462946FFF786F9824660492046B1
:100FB000FFF787F905465F4801682846FFF729F9DA
:100FC0005C4908605A494846FFF77BF905465A488C
:100FD00001682846FFF71DF95749086054495046F3
:100FE000FFF76FF90546554801682846FFF711F9E4
:100FF000524908604F480068FFF706FCCDE904013C
:1010000020460CF053FB83464D49FFF75AF98046C2
:101010002146FFF756F90746FFF7F6FB05460E4651
:101020004049C86BFFF7F0FB074609F043FF2A462B
:101030003346CDE90001FFF7B4F9CDE90201DDE95E
:101040000423FFF7AEF9CDE90601FFF709FC0B9089
:1010500039480068FFF7D8FBCDE9040148460CF099
:1010600025FB83463649FFF72CF906464946FFF72C
:1010700028F90546FFF7C8FB074688462949086C4A
:10108000FFF7C2FB054609F015FF3A464346CDE996
:101090000001FFF786F9CDE90201DDE90423FFF73E
:1010A00080F9CDE90601FFF7DBFB0A9023480068D1
:1010B000FFF7AAFBCDE9040150460CF0F7FA2049EE
:1010C0000090FFF7FEF851460190FFF7FAF88346CB
:1010D000FFF79AFBCDE902011249486CFFF794FB38
:1010E000CDE9000109F0E6FE0746DDE90223FFF73E
:1010F00058F90546DDE90423FFF753F9CDE9060168
:10110000FFF7AEFB09900F4800900748DDE9093270
:101110000B9909F0B6FA044809F076FA0FB0BDE869
:10112000F08F0000701E0020F8030020702F0020B8
:101130006F12033A1C040020200400202404002025
:10114000CDCC4C3F0AD7A33A2DE9F04F87B000F041
:1011500029F98848FFF7BCFE8749864809F022FB39
:1011600085494868FFF750FB06460FF075FA0446BC
:10117000FFF776FB059080490868FFF745FB0646B8
:101180000FF06AFA0446FFF76BFB06907A4948684D
:10119000FFF73AFB06460DF055FF0446FFF760FBEC
:1011A000049075490868FFF72FFB06460DF04AFFCB
:1011B0000446FFF755FB03907048C07800287DD1A6
:1011C0006E484078002879D06D49B1F90400FFF7E6
:1011D00070FA07460499FFF774F806460699FFF778
:1011E00070F804466649B1F90200FFF762FA8146D9
:1011F0000699FFF766F880460599FFF762F80646FC
:101200005F49B1F90000FFF754FA80460399FFF7F0
:1012100058F807463146FEF7FCFF05462146FFF722
:101220004AF883465649B1F90400FFF742FA0646E8
:101230000599FFF746F804465149B1F90200FFF756
:1012400038FA06460499FFF73CF805462146FEF7B2
:10125000E0FF02905846FFF7D7FACDE90001029867
:10126000FFF7D2FA8046DDE900230DF00DFB0646BC
:1012700004F060FE81F000410446FFF7F1FA824677
:101280004048C0F800A04049486C4FF08041FFF74B
:1012900018F805463D49FFF714F8044636488168BA
:1012A0002046FEF7B6FF3449886039495046FFF7BB
:1012B000FDFA07D237498868374900E032E0FFF786
:1012C000EBFA0AD334495046FFF7E6FA19D231490E
:1012D00088682F49FFF7EAFA13D230495046FEF7E3
:1012E000F0FF06462B48806880F000452C492846D0
:1012F000FEF7E7FF04463146FEF78BFF254988607D
:101300000FE026495046FEF7DCFF04462149886875
:101310002349FEF7D6FF05462146FEF77AFF1D4911
:1013200088600BE014498868FFF76EFA064604F0FF
:1013300001FE0446FFF794FA164988600E49486892
:10134000FFF762FA064604F0F5FD0446FFF788FA57
:101350001049486008490868FFF756FA064604F045
:10136000E9FD0446FFF77CFA0A49086007B0BDE8CA
:10137000F08F0000F8030020582F0020302E0020AE
:1013800008040020F0030020701E00200AD7A33AB2
:101390000000B442642F00200000B4C2A69B443C6D
:1013A00091ED7C3F2DE9FF4107F09CFB4D4805F096
:1013B0000DFF4D49B1F90000FFF797F906460F46BA
:1013C00005204A494A4BCDE900304A4B4A4ACDE90B
:1013D00002103046394606F095FF0446FFF740FA02
:1013E00041498860B1F90200FFF77FF906460F46D0
:1013F00005203E493E4BCDE900303E4B28333E4A66
:101400002832CDE902103046394606F07BFF04460B
:10141000FFF726FA3449C860B1F90400FFF765F90F
:1014200006460F4605203149314BCDE90030314B9E
:101430005033314A5032CDE902103046394606F079
:1014400061FF0446FFF70CFA27490861C86DFFF7F2
:10145000DBF90746294A2A4BFFF74AF80546FFF70A
:10146000FFF90446274A21462748006807F0A2FAF8
:101470001D49C8630846C06B234908601A49086EB5
:10148000FFF7C2F907461D4A1D4BFFF731F8054625
:10149000FFF7E6F904461B4A21461C48006807F09E
:1014A00089FA014610480164006C184908600E4929
:1014B000486EFFF7A9F90746104A114BFFF718F8D5
:1014C0000546FFF7CDF904460E4A2146104800684C
:1014D00007F070FA014604484164406C0C4908600A
:1014E000BDE8FF8108040020701E0020C803002012
:1014F000A0030020E02E0020682E002030689DC848
:10150000FE3F9F3FCBA1C53E1004002014040020E5
:10151000180400202DE9F0410025002600270024B2
:10152000002018490884002116484184818400BFA6
:101530000FE01448B0F9000005441248B0F9020069
:1015400006441048B0F904000744601CC4B2601C93
:10155000C4B2C82CEDDB95FBF4F000B20949088455
:1015600096FBF4F001B20748418497FBF4F001B216
:1015700004488184002400200349C87105F0CCF898
:10158000BDE8F081701E0020302E002010B5094803
:101590000078012804D100200649087005F092FC6B
:1015A0000548C07B012804D100200349C8730BF013
:1015B000CFFF10BD50050020302E00200FB5ADF636
:1015C0000C3DFE48007838B9FD49DDF8400B0EF0BF
:1015D00043FA0120F94908700020CDF8080B0BE010
:1015E0000022DDF8541BDDF8080B41F82020DDF85F
:1015F000080B401CCDF8080BDDF8080B0428EFDBC6
:10160000DDF8100B01287DD1EE48C168CDF8FC1A39
:101610000169CDF8001B4169CDF8041B0020CDF80D
:10162000F80A3FE000210DF6EC22DDF8F80A42F856
:101630002010CDF8081B2CE00DF6FC21DDF8080B7E
:1016400051F8201006910322DDF8F81A02FB001170
:10165000DDF8400B50F821100591DDE90501FEF79A
:1016600030FE0DF6EC220790DDF8F80A52F8200063
:10167000014606900798FEF7CCFD01460DF6EC22D8
:10168000DDF8F80A42F82010DDF8080B401CCDF810
:10169000080BDDF8080B0328CEDBDDF8F80A401C48
:1016A000CDF8F80ADDF8F80A0328BBDBC548C168A5
:1016B000CDF8E01A0169CDF8E41A4169CDF8E81ACD
:1016C000DDF8F01A059141690491DDE90401FEF7A6
:1016D000F8FD0790DDF8F40A0590BA480069049017
:1016E0000599FEF7EEFD06900799FEF7E4FDCDF8AB
:1016F000D40ADDF8F41AB3480591C1680491DDE914
:10170000040100E0B6E0FEF7DCFD0790DDF8EC0A2E
:101710000590AC48406904900599FEF7D2FD06900B
:101720000799FEF7C8FDCDF8D80ADDF8EC1AA548F0
:10173000059101690491DDE90401FEF7C2FD0790FE
:10174000DDF8F00A05909F48C06804900599FEF7FF
:10175000B8FD06900799FEF7AEFDCDF8DC0A002132
:10176000CDF8F81A12E00DF6D421DDF8F80A51F898
:10177000200080F000410DF6C822DDF8F80A42F89A
:101780002010DDF8F80A401CCDF8F80ADDF8F80A58
:101790000328E8DB8B48C168CDF8BC1A0169CDF895
:1017A000C01A4169CDF8C41A0021CDF8F81A5CE0DE
:1017B00000210DF6FC22DDF8F80A42F82010CDF8E1
:1017C000081B2BE00DF6C821DDF8080B51F820109E
:1017D00006910322DDF8F81A02FB0010784951F84F
:1017E00020100591DDE90501FEF76BFD0DF6FC22E9
:1017F0000790DDF8F80A52F8200001460690079895
:10180000FEF707FD01460DF6FC22DDF8F80A42F866
:101810002010DDF8080B401CCDF8080BDDF8080B94
:101820000328CFDB0DF6FC21DDF8F80A51F8201073
:101830000691DDF8181B0698FEF743FD0DF6BC2156
:101840000790DDF8F80A51F8201006910798FEF786
:10185000E0FC01460DF52B62DDF8F80A42F8201095
:10186000DDF8F80A401CCDF8F80ADDF8F80A03287C
:101870009EDB09E05348C168CDF8B01A0169CDF884
:10188000B41A4169CDF8B81A0021CDF88C1A4D4828
:10189000806880F00041CDF8901A4A484168CDF840
:1018A000941A8168CDF8981A0021CDF89C1A006826
:1018B00080F00041CDF8A01A4248406880F0004115
:1018C000CDF8A41A3F480168CDF8A81A0021CDF838
:1018D000AC1ADDF80C0B012878D10020CDF8F80AFD
:1018E0003FE00020CDF8080B32E00322DDF8081BB2
:1018F000DDF8F80A02FB0010334909560846059145
:10190000FEF7D7FE07900322DDF8F81ADDF8080B82
:1019100002FB01000DF68C2151F820000590DDF846
:10192000181BFEF7CEFC06900799FEF772FC0146E5
:101930000323DDF8082BDDF8F80A03FB00200DF681
:10194000682242F82010DDF8080B401CCDF8080B87
:10195000DDF8080B0328C8DBDDF8F80A401CCDF8D9
:10196000F80ADDF8F80A0328BBDB16488169CDF8D0
:101970005C1AC169CDF8601A016ACDF8641A0021B9
:10198000CDF8F81A49E000210DF6EC22DDF8F80A4E
:1019900042F82010CDF8081B36E00DF65C21DDF88A
:1019A000080B51F8201006910322DDF8F81A02FB0B
:1019B00000100DF6682151F8201008E07603002091
:1019C0001022002034220020241B03082AE0059165
:1019D000DDE90501FEF775FC0DF6EC220790DDF858
:1019E000F80A52F82000014606900798FEF711FC0D
:1019F00001460DF6EC22DDF8F80A42F82010DDF879
:101A0000080B401CCDF8080BDDF8080B0328C4DBDD
:101A1000DDF8F80A401CCDF8F80ADDF8F80A0328CA
:101A2000B1DB24E1DDF8181B0846FEF74AFC4FF055
:101A300080410790FEF777FCCDF8580A0020CDF8DA
:101A4000F80A62E00020CDF8080B55E000220323DD
:101A5000DDF8F81ADDF8080B03FB00100DF668211D
:101A600041F820200021CDF8541A3CE00322DDF893
:101A7000541ADDF8080B02FB00100DF68C2151F80A
:101A800020100691DDF8F81ADDF8540A02FB001068
:101A90000DF68C2151F820100591DDE90501FEF7C6
:101AA00010FC07900322DDF8081BDDF8F80A02FBA2
:101AB00001000DF6682151F82000014606900798B4
:101AC000FEF7A7FB01460323DDF8F82ADDF8080B33
:101AD00003FB00200DF6682242F82010DDF8540ABE
:101AE000401CCDF8540ADDF8540A0328BEDBDDF8AB
:101AF000080B401CCDF8080BDDF8080B0328A5DB0C
:101B0000DDF8F80A401CCDF8F80ADDF8F80A0328D9
:101B100098DB0020CDF8F80A53E00020CDF8080B40
:101B200046E00322DDF8081BDDF8F80A02FB00108E
:101B30000DF6682151F820100591DDF8580AFEF7DE
:101B4000C0FB07900322DDF8F81ADDF8080B02FB52
:101B500001000DF68C2151F820000390DDF8181BD0
:101B6000FEF7AFFB05900322DDF8F81ADDF8080B4D
:101B700002FB0100FE4908560390FEF79AFD04900F
:101B80000599FEF746FB06900799FEF742FB0146D2
:101B90000323DDF8082BDDF8F80A03FB00200DF520
:101BA000236242F82010DDF8080B401CCDF8080B2A
:101BB000DDF8080B0328B4DBDDF8F80A401CCDF88B
:101BC000F80ADDF8F80A0328A7DBEA488169CDF8AE
:101BD0005C1AC169CDF8601A016ACDF8641A002157
:101BE000CDF8F81A3FE000210DF6EC22DDF8F80AF6
:101BF00042F82010CDF8081B2CE00DF65C21DDF832
:101C0000080B51F8201006910322DDF8F81A02FBA8
:101C100000100DF5236151F820100591DDE9050153
:101C2000FEF74FFB0DF6EC220790DDF8F80A52F8AC
:101C30002000014606900798FEF7EBFA01460DF6E4
:101C4000EC22DDF8F80A42F82010DDF8080B401C01
:101C5000CDF8080BDDF8080B0328CEDBDDF8F80A19
:101C6000401CCDF8F80ADDF8F80A0328BBDBDDF8E4
:101C70000C0B01287ED10020CDF8F80A3FE00020AF
:101C8000CDF8080B32E00322DDF8081BDDF8F80A76
:101C900002FB0010B649095608460591FEF709FDFA
:101CA00007900322DDF8F81ADDF8080B02FB0100AB
:101CB0000DF68C2151F820000590DDF8181BFEF779
:101CC00000FB06900799FEF7A4FA01460323DDF80E
:101CD000082BDDF8F80A03FB00200DF6682242F815
:101CE0002010DDF8080B401CCDF8080BDDF8080BC0
:101CF0000328C8DBDDF8F80A401CCDF8F80ADDF847
:101D0000F80A0328BBDB9B48416ACDF8241A816A94
:101D1000CDF8281AC16ACDF82C1A0021CDF8F81A8E
:101D200041E000210DF52E62DDF8F80A42F820109E
:101D3000CDF8081B2EE00DF62421DDF8080B51F834
:101D4000201006910322DDF8F81A02FB00100DF6B0
:101D5000682151F820100591DDE90501FEF7B1FA7F
:101D60000DF52E620790DDF8F80A52F820000146C2
:101D7000069000E01CE00798FEF74BFA01460DF5CF
:101D80002E62DDF8F80A42F82010DDF8080B401C3E
:101D9000CDF8080BDDF8080B0328CCDBDDF8F80ADA
:101DA000401CCDF8F80ADDF8F80A0328B9DB27E172
:101DB000DDF8181B0846FEF784FA4FF080410790C3
:101DC000FEF7B1FACDF8580A0021CDF8F81A61E013
:101DD0000020CDF8080B54E000220323DDF8F81AA8
:101DE000DDF8080B03FB00100DF6682141F82020F8
:101DF0000021CDF8541A3BE00322DDF8541ADDF837
:101E0000080B02FB00100DF68C2151F820100691F2
:101E1000DDF8F81ADDF8540A02FB00100DF68C21EB
:101E200051F820100591DDE90501FEF74AFA079007
:101E30000322DDF8F81ADDF8080B02FB00100DF69E
:101E4000682151F8201006910798FEF7E2F9014643
:101E50000323DDF8F82ADDF8080B03FB00200DF65C
:101E6000682242F82010DDF8540A401CCDF8540ACC
:101E7000DDF8540A0328BFDBDDF8080B401CCDF861
:101E8000080BDDF8080B0328A6DBDDF8F80A401C78
:101E9000CDF8F80ADDF8F80A032899DB0020CDF820
:101EA000F80A53E00020CDF8080B46E00322DDF8E5
:101EB000081BDDF8F80A02FB00100DF6682151F846
:101EC00020100591DDF8580AFEF7FBF90790032270
:101ED000DDF8F81ADDF8080B02FB01000DF68C2185
:101EE00051F820000390DDF8181BFEF7EAF9059081
:101EF0000322DDF8F81ADDF8080B02FB01001C498B
:101F000008560390FEF7D5FB04900599FEF781F97A
:101F100006900799FEF77DF901460323DDF8082BAB
:101F2000DDF8F80A03FB00200DF5236242F82010CB
:101F3000DDF8080B401CCDF8080BDDF8080B032872
:101F4000B4DBDDF8F80A401CCDF8F80ADDF8F80A31
:101F50000328A7DB0748416ACDF8241A816ACDF827
:101F6000281AC16ACDF82C1A0021CDF8F81A43E0DE
:101F7000241B03083422002000210DF52E62DDF819
:101F8000F80A42F82010CDF8081B2CE00DF62421A9
:101F9000DDF8080B51F8201006910322DDF8F81A3D
:101FA00002FB00100DF5236151F820100591DDE9C9
:101FB0000501FEF786F90DF52E620790DDF8F80AA7
:101FC00052F82000014606900798FEF722F90146D4
:101FD0000DF52E62DDF8F80A42F82010DDF8080B46
:101FE000401CCDF8080BDDF8080B0328CEDBDDF82C
:101FF000F80A401CCDF8F80ADDF8F80A0328BBDB24
:10200000DDF8B01A0691DDF8180BFEF75AF90790C3
:10201000FE480068014606900798FEF7FAF8CDF8EA
:10202000F409DDF8B41A0691DDF8180BFEF749F94A
:102030000790F6484068014606900798FEF7E9F8D1
:10204000CDF8F809DDF8B81A0691DDF8180BFEF79F
:1020500038F90790ED488068014606900798FEF72A
:10206000D8F8CDF8FC090021CDF8081B0FE00DF5DC
:102070002B61DDF8080B51F820100DF6F412C01C8E
:1020800042F82010DDF8080B401CCDF8080BDDF8F5
:10209000080B0328EBDB0020CDF8080B0FE00DF652
:1020A000EC21DDF8080B51F820100DF6F412801D1C
:1020B00042F82010DDF8080B401CCDF8080BDDF8C5
:1020C000080B0328EBDB0020CDF8080B0FE00DF523
:1020D0002E61DDF8080B51F820100DF6F4120930CE
:1020E00042F82010DDF8080B401CCDF8080BDDF895
:1020F000080B0328EBDB90210DF66410FEF77EF849
:102100000020CDF8080B4BE001220C21DDF8080B74
:1021100001FB00000DF664110A540020CDF8F80A06
:102120001CE00322DDF8F81ADDF8080B02FB0010B2
:10213000B749095608460791FEF7BBFA01460C233A
:10214000DDF8F82ADDF8080B03FB0020B14A42F85D
:102150002010DDF8F80A401CCDF8F80ADDF8F80A7E
:102160000328DEDB0020CDF8F80A10E000220C2363
:10217000DDF8F81ADDF8080B03FB0010C01CA549B8
:1021800041F82020DDF8F80A401CCDF8F80ADDF807
:10219000F80A0328EADBDDF8080B401CCDF8080B31
:1021A000DDF8080B0C28AFDB00209A4988619748BE
:1021B000006AC8619548C06980F000400862934891
:1021C000006A80F0004088640020C8648F488069FD
:1021D00008658E48C06988678C48806980F0004037
:1021E000C8670020C1F88000CDF8F80A1EE0002082
:1021F000CDF8080B11E00022DDF8F80AC01C0C2312
:10220000DDF8081B03FB0010801D824941F82020E7
:10221000DDF8080B401CCDF8080BDDF8080B03288F
:10222000E9DBDDF8F80A401CCDF8F80ADDF8F80A19
:102230000328DCDB0020CDF8F80A28E00020CDF8E8
:10224000080B1BE00322DDF8081BDDF8F80A02FB8F
:1022500000100DF68C2151F82020DDF8F80A801DC1
:102260000C23DDF8081B03FB0010801D694941F8B1
:102270002020DDF8080B401CCDF8080BDDF8080B1A
:102280000328DFDBDDF8F80A401CCDF8F80ADDF89A
:10229000F80A0328D2DB0020CDF8F80A1EE000205F
:1022A000CDF8080B11E00022DDF8F80A09300C2304
:1022B000DDF8081B03FB0010801D564941F8202063
:1022C000DDF8080B401CCDF8080BDDF8080B0328DF
:1022D000E9DBDDF8F80A401CCDF8F80ADDF8F80A69
:1022E0000328DCDB00204B4948624848C06A88620A
:1022F0004648806A80F00040C8624448C06A80F066
:1023000000404865002088654048406AC8653F48ED
:10231000806AC1F884003D48406A80F00040C1F8FE
:1023200088000020C1F88C00CDF8F80A1EE00020DB
:10233000CDF8080B11E00022DDF8F80AC01C0C23D0
:10234000DDF8081B03FB00100930324941F820205A
:10235000DDF8080B401CCDF8080BDDF8080B03284E
:10236000E9DBDDF8F80A401CCDF8F80ADDF8F80AD8
:102370000328DCDB0020CDF8F80A1EE00020CDF8B1
:10238000080B11E00022DDF8F80A801D0C23DDF8AF
:10239000081B03FB001009301E4941F82020DDF81E
:1023A000080B401CCDF8080BDDF8080B0328E9DB0F
:1023B000DDF8F80A401CCDF8F80ADDF8F80A032821
:1023C000DCDB0020CDF8F80A2FE00020CDF8080B68
:1023D0001BE00322DDF8081BDDF8F80A02FB001001
:1023E0000DF68C2151F82020DDF8F80A09300C2375
:1023F000DDF8081B03FB00100930064941F82020D6
:10240000DDF8080B401CCDF8080B05E03422002055
:102410002D1B0308E4260020DDF8080B0328D8DB79
:10242000DDF8F80A401CCDF8F80ADDF8F80A0328B0
:10243000CBDB0020CDF8F80A3EE00020CDF8080BF9
:1024400031E00C22DDF8081BDDF8F80A02FB001071
:10245000FE4951F820100591DDF8181B0598FDF78D
:1024600030FF07900C22DDF8F81ADDF8080B02FBAC
:1024700001000DF6641108560590FEF71AF9069052
:102480000799FDF7C6FE01460C23DDF8082BDDF8A1
:10249000F80A03FB0020EE4A42F82010DDF8080B92
:1024A000401CCDF8080BDDF8080B0C28C9DBDDF863
:1024B000F80A401CCDF8F80ADDF8F80A0C28BCDB55
:1024C000E4480078C0BBDDF8241BCDF83419DDF8F2
:1024D000241BCDF83819DDF8241BCDF83C19DDF8A4
:1024E000281BCDF84019DDF8281BCDF84419DDF87C
:1024F000281BCDF84819DDF82C1BCDF84C19DDF858
:102500002C1BCDF85019DDF82C1BCDF85419DDF833
:10251000301BCDF85819DDF8301BCDF85C19DDF80B
:10252000301BCDF860194FF41071CB48FDF766FEF3
:102530000021CDF8081B11E017E00DF63412DDF88C
:10254000080B52F820200C2101FB0000C24941F881
:102550002020DDF8080B401CCDF8080BDDF8080B37
:102560000C28EADB0120BB4908700020CDF8F80AEE
:102570005CE00020CDF8080B4FE000220C23DDF8D2
:10258000F81ADDF8080B03FB0010B04941F82020D1
:102590000021CDF8541A37E00C22DDF8541ADDF88A
:1025A000080B02FB0010AD4951F820100691DDF830
:1025B000F81ADDF8540A02FB0010A54951F8201062
:1025C0000591DDE90501FDF77CFE07900C22DDF8A1
:1025D000F81ADDF8080B02FB00109C4951F8201096
:1025E00006910798FDF715FE01460C23DDF8F82A41
:1025F000DDF8080B03FB0020944A42F82010DDF8B8
:10260000540A401CCDF8540ADDF8540A0C28C3DBE8
:10261000DDF8080B401CCDF8080BDDF8080B0C2882
:10262000ABDBDDF8F80A401CCDF8F80ADDF8F80A53
:102630000C289EDB0020CDF8F80A5AE00020CDF8E7
:10264000080B4DE00021CDF8581ACDF8541A24E0BB
:102650000C22DDF8081BDDF8540A02FB00107C494F
:1026600051F820100691DDF8F81ADDF8540A02FB43
:102670000010764951F820100591DDE90501FDF7BC
:1026800020FE0790DDF8581AFDF7C3FDCDF8580A73
:10269000DDF8540A401CCDF8540ADDF8540A0C2821
:1026A000D6DB0C22DDF8F81ADDF8080B02FB00106F
:1026B000694951F820100791DDF8580AFDF7A9FD86
:1026C00001460C23DDF8F82ADDF8080B03FB002097
:1026D000634A42F82010DDF8080B401CCDF8080BC7
:1026E000DDF8080B0C28ADDBDDF8F80A401CCDF84E
:1026F000F80ADDF8F80A0C28A0DBDDF8140B0078E6
:10270000012871D1DDF8140B40780128F9D1DDF8EA
:10271000140B80780128F4D10020CDF8F80AD6E017
:102720000020CDF8080B57E000220923DDF8F81A45
:10273000DDF8080B03FB00100DF2847141F8202036
:102740000021CDF8541A3EE00922DDF8F81ADDF830
:10275000540A02FB00104349095608460591FDF74B
:10276000A8FF06900C22DDF8081BDDF8540A02FBD6
:1027700001003B4951F82000014605900698FDF7FD
:10278000A0FD07900922DDF8081BDDF8F80A02FB1E
:1027900001000DF2847151F820000146069007985F
:1027A000FDF737FD01460923DDF8F82ADDF8080BAF
:1027B00003FB00200DF2847242F82010DDF8540A69
:1027C000401CCDF8540ADDF8540A0C28BCDBDDF8B7
:1027D000080B401CCDF8080BDDF8080B0C28A3DB18
:1027E0000020CDF8080B69E0D5E200220923DDF8CE
:1027F000F81ADDF8080B03FB00100DF5C86141F86D
:1028000020200021CDF8541A4FE00C22DDF8541A94
:10281000DDF8080B02FB0010134909560846059124
:10282000FDF747FF06900922DDF8541ADDF8F80A93
:1028300002FB01000DF2847151F820000146059061
:102840000698FDF73EFD079009220FE0E4260020E0
:102850002429002077030020A424002064220020E3
:10286000642B0020511B0308BD1B0308DDF8F81A78
:10287000DDF8080B02FB00100DF5C86151F82010BF
:1028800006910798FDF7C5FC01460923DDF8F82AF3
:10289000DDF8080B03FB00200DF5C86242F820109C
:1028A000DDF8540A401CCDF8540ADDF8540A0C280F
:1028B000ABDBDDF8080B401CCDF8080BDDF8080B8E
:1028C000092892DBDDF8F80A401CCDF8F80ADDF89B
:1028D000F80A0928FFF624AFDDF8341BCDF81C16E2
:1028E000DDF8341BCDF82016DDF8341BCDF82416A6
:1028F000DDF8381BCDF82816DDF8381BCDF82C167E
:10290000DDF8381BCDF83016DDF83C1BCDF8341659
:10291000DDF83C1BCDF83816DDF83C1BCDF83C1635
:102920000021CDF8F81A1EE00DF21C61DDF8F80A5E
:1029300051F8201000EB8000400007910DF5C861B0
:1029400051F820100691DDE90601FDF762FC014611
:102950000DF66822DDF8F80A42F82010DDF8F80AD2
:10296000401CCDF8F80ADDF8F80A0928DCDB002065
:10297000CDF8F80A11E00DF66821DDF8F80A51F8F3
:10298000201000EB800040000DF5C86242F82010D6
:10299000DDF8F80A401CCDF8F80ADDF8F80A092835
:1029A000E9DB0020CDF8F80A63E00020CDF8080B41
:1029B00056E000220C23DDF8F81ADDF8080B03FBC3
:1029C00000100DF2847141F820200021CDF8541A36
:1029D0003DE00C22DDF8541ADDF8080B02FB001074
:1029E000F849095608460591FDF763FE06900C224A
:1029F000DDF8F81ADDF8540A02FB0010F24951F82C
:102A0000201005910698FDF75CFC07900C22DDF87C
:102A1000081BDDF8F80A02FB01000DF2847151F881
:102A20002000014606900798FDF7F3FB01460C23B2
:102A3000DDF8F82ADDF8080B03FB00200DF28472A4
:102A400042F82010DDF8540A401CCDF8540ADDF895
:102A5000540A0C28BDDBDDF8080B401CCDF8080B30
:102A6000DDF8080B0928A4DBDDF8F80A401CCDF8D6
:102A7000F80ADDF8F80A0C2897DB0DF26C420DF528
:102A8000C8610DF284700DF081FB0020CDF8F80ACA
:102A900046E00021CDF8581ACDF8081B24E00922A1
:102AA000DDF8F81ADDF8080B02FB0010C7490956DB
:102AB00008460591FDF7FDFD0DF6F4120690DDF8D0
:102AC000080B52F82000014605900698FDF7F9FB27
:102AD0000790DDF8581AFDF79CFBCDF8580ADDF891
:102AE000080B401CCDF8080BDDF8080B0C28D6DBD2
:102AF000DDF8201BDDF8F80A51F820100791DDF809
:102B0000581A0798FDF7D7FB01460DF66822DDF845
:102B1000F80A42F82010DDF8F80A401CCDF8F80A4F
:102B2000DDF8F80A0928B4DB0020CDF8F80A41E006
:102B30000021CDF8581ACDF8081B20E00DF66821C9
:102B4000DDF8080B51F8201006910C22DDF8F81A78
:102B500002FB00100DF26C4151F820100591DDE9E7
:102B60000501FDF7AEFB0790DDF8581AFDF751FBA4
:102B7000CDF8580ADDF8080B401CCDF8080BDDF83D
:102B8000080B0928DADB0DF6F411DDF8F80A51F824
:102B900020100791DDF8581A0798FDF73AFB014617
:102BA0008B4ADDF8F80A42F82010DDF8F80A401CDC
:102BB000CDF8F80ADDF8F80A0C28B9DB90210DF6FB
:102BC0006410FDF71BFB0020CDF8080B0DE001227F
:102BD0000C21DDF8080B01FB00000DF664110A540E
:102BE000DDF8080B401CCDF8080BDDF8080B0C28AD
:102BF000EDDB0020CDF8F80A62E00020CDF8080BEC
:102C000055E00021CDF8581ACDF8541A28E00922D1
:102C1000DDF8541ADDF8080B02FB00106B49095669
:102C200008460591FDF745FD06900C22DDF8F81ADF
:102C3000DDF8540A02FB00100DF26C4151F820102F
:102C400005910698FDF73DFB0790DDF8581AFDF752
:102C5000E0FACDF8580ADDF8540A401CCDF8540AC1
:102C6000DDF8540A0928D2DB0C22DDF8F81ADDF869
:102C7000080B02FB00100DF6641109560846069178
:102C8000FDF717FD0790DDF8581AFDF714FB014614
:102C90000C23DDF8F82ADDF8080B03FB00204D4A71
:102CA00042F82010DDF8080B401CCDF8080BDDF8C9
:102CB000080B0C28A5DBDDF8F80A401CCDF8F80A53
:102CC000DDF8F80A0C2898DB0020CDF8F80A5CE063
:102CD0000020CDF8080B4FE000220C23DDF8F81A95
:102CE000DDF8080B03FB00103B4941F820200021D0
:102CF000CDF8541A37E00C22DDF8541ADDF8080B31
:102D000002FB0010304951F820100691DDF8F81A46
:102D1000DDF8540A02FB00102E4951F820100591ED
:102D2000DDE90501FDF7CDFA07900C22DDF8F81A70
:102D3000DDF8080B02FB0010274951F8201006911E
:102D40000798FDF766FA01460C23DDF8F82ADDF84E
:102D5000080B03FB0020204A42F82010DDF8540A3B
:102D6000401CCDF8540ADDF8540A0C28C3DBDDF80A
:102D7000080B401CCDF8080BDDF8080B0C28ABDB6A
:102D8000DDF8F80A401CCDF8F80ADDF8F80A0C283E
:102D90009EDB01F0E8BCDDF8140B007801287AD145
:102DA000DDF8140B40780028F9D1DDF8140B807899
:102DB0000028F4D1CDF8F80ACEE00020CDF8080BB9
:102DC00061E00000BD1B0308642B0020511B0308B9
:102DD00034220020E4260020642200200022032365
:102DE000DDF8F81ADDF8080B03FB0010F7A941F82D
:102DF00020200021CDF8541A3CE00322DDF8F81A17
:102E0000DDF8540A02FB0010FE49095608460591F8
:102E1000FDF74FFC06900C22DDF8081BDDF8540A84
:102E200002FB0100F84951F8200001460590069880
:102E3000FDF747FA07900322DDF8081BDDF8F80AD2
:102E400002FB0100F7A951F82000014606900798FF
:102E5000FDF7DFF901460323DDF8F82ADDF8080B5A
:102E600003FB0020F7AA42F82010DDF8540A401CAA
:102E7000CDF8540ADDF8540A0C28BEDBDDF8080B47
:102E8000401CCDF8080BDDF8080B0C28A6DB002051
:102E9000CDF8080B57E0FCE300220323DDF8F81A15
:102EA000DDF8080B03FB00100DF68C2141F8202003
:102EB0000021CDF8541A3DE00C22DDF8541ADDF85B
:102EC000080B02FB0010D149095608460591FDF791
:102ED000F0FB06900322DDF8F81ADDF8540A02FB35
:102EE0000010F7A951F8201005910698FDF7E9F9AF
:102EF00007900322DDF8081BDDF8F80A02FB010049
:102F00000DF68C2151F82000014606900798FDF738
:102F100080F901460323DDF8F82ADDF8080B03FBEE
:102F200000200DF68C2242F82010DDF8540A401CD7
:102F3000CDF8540ADDF8540A0C28BDDBDDF8080B87
:102F4000401CCDF8080BDDF8080B0328A4DBDDF8E6
:102F5000F80A401CCDF8F80ADDF8F80A0328FFF655
:102F60002CAFDDF8341BF491DDF8341BF591DDF85E
:102F7000341BF6910021CDF8F81A1BE0F4A9DDF816
:102F8000F80A51F82010800007910DF68C2151F8B5
:102F900020100691DDE90601FDF73BF901460DF62B
:102FA000D422DDF8F80A42F82010DDF8F80A401CB7
:102FB000CDF8F80ADDF8F80A0328DFDB0020CDF8A9
:102FC000F80A0FE00DF6D421DDF8F80A51F82010C8
:102FD00080000DF68C2242F82010DDF8F80A401C23
:102FE000CDF8F80ADDF8F80A0328EBDB0020CDF86D
:102FF000F80A84E00020CDF8080B1AE00322DDF87F
:10300000F81ADDF8080B02FB00100DF68C2151F8C0
:1030100020200323DDF8081BDDF8F80A03FB00106D
:103020000DF6682141F82020DDF8080B401CCDF892
:10303000080BDDF8080B0328E0DB0020CDF8080BB7
:1030400054E000220323DDF8F81ADDF8080B03FB37
:103050000010D0A941F820200021CDF8541A3CE0FE
:103060000C22DDF8541ADDF8F80A02FB001067495B
:10307000095608460591FDF71CFB06900C22DDF869
:10308000541ADDF8080B02FB01005F4951F82000DB
:10309000014605900698FDF714F907900322DDF824
:1030A000081BDDF8F80A02FB0100D0A951F8200046
:1030B000014606900798FDF7ACF801460323DDF8BA
:1030C000F82ADDF8080B03FB0020D0AA42F82010F4
:1030D000DDF8540A401CCDF8540ADDF8540A0C28D7
:1030E000BEDBDDF8080B401CCDF8080BDDF8080B43
:1030F0000C28A6DBDDF8F80A401CCDF8F80ADDF84C
:10310000F80A0328FFF676AF0021CDF8541A012102
:10311000CDF8F81A0221CF91DDF8681A084605911A
:10312000FDF772FB21F00041CDE90601FDF798FBA8
:10313000CDF8580ADDF86C0A0590FDF765FB21F023
:103140000041CDE90601FDF78BFBCE90DDF8581A62
:10315000CE98FDF7ABFB08D2CE99CDF8581A0121D5
:10316000CDF8541A0021CDF8F81ADDF8701A084687
:103170000391FDF749FB21F00041CDE90401FDF782
:103180006FFB0790DDF8581AFDF790FB07D202217C
:10319000CDF8541A0121CDF8F81A0021CF910DF67F
:1031A0006821DDF8540A51F8201007910DF66821C6
:1031B000DDF8F80A51F820100691DDE90601FDF767
:1031C000B2F801460DF66822DDF8F80A42F8201040
:1031D0001146DDF8540A51F8201007911146CF9896
:1031E00051F820100691DDE90601FDF79CF8014633
:1031F0000DF66822CF9842F82010DDF8540AC01C62
:10320000114605E0291C0308642B00204D1C03080F
:1032100051F8201006911146DDF8F80A51F82010F7
:103220000591DDE90501FDF74CF80790DDF8F80A96
:10323000C01C0DF6682151F8201006910798FDF783
:103240003DF80146DDF8F80AC01C0DF6682242F888
:103250002010DDF8540AC01C114651F820100691C8
:103260001146CF9851F820100591DDE90501FDF7D1
:1032700028F80790CF98C01C0DF6682151F820104F
:1032800006910798FDF71AF80146CF98C01C0DF675
:10329000682242F82010DDF8540A801D114651F8CA
:1032A000201006911146DDF8F80A51F8201005911A
:1032B000DDE90501FDF705F80790DDF8F80A801D46
:1032C0000DF6682151F8201006910798FCF7F6FFDB
:1032D0000146DDF8F80A801D0DF6682242F820103C
:1032E000DDF8540A801D114651F820100691114650
:1032F000CF9851F820100591DDE90501FCF7E1FFB9
:103300000790CF98801D0DF6682151F820000146E6
:1033100006900798FCF7D2FF0146CF98801D0DF666
:10332000682242F82010DDF8F80AC01C114651F856
:10333000201008460391FDF767FA21F00041CDE91E
:103340000401FDF78DFA0790CF98C01C0DF6682197
:1033500051F820000390FDF757FA21F00041CDE924
:103360000401FDF77DFA06900799FDF79FFA09D24F
:10337000DDF8F81ACDF8081BCF99CDF8F81ADDF86A
:10338000080BCF90DDF8F80AC01C0DF6682151F843
:1033900020100791CF98C01C0DF6682151F820101D
:1033A0000691DDE90601FCF7BEFF0146CF98C01C7F
:1033B0000DF6682242F82010DDF8F80A801D11464B
:1033C00051F820100691CF98C01C114651F82010DA
:1033D0000591DDE90501FCF774FF0790CF98801D8A
:1033E0000DF6682151F82000014606900798FCF779
:1033F00065FF0146CF98801D0DF6682242F8201027
:103400000021CDF8081B5CE10322DDF8541ADDF839
:10341000080B02FB0010D0A951F82010DDF8080BB2
:1034200000EB4000AAAA42F820100DF66821DDF852
:10343000F80A51F820100691DDF8080B00EB400067
:10344000AAA951F820100591DDE90501FCF739FF23
:1034500007900322DDF8081BDDF8F80A02FB0100E3
:10346000D0A951F82000014606900798FCF726FFE6
:103470000146DDF8080B00EB4000401CAAAA42F808
:103480002010CF98C01C0DF6682151F8201005912E
:10349000DDF8080B00EB4000401CAAA951F82010F1
:1034A0000491DDE90401FCF70CFF0DF6682107909B
:1034B000CF9851F820100491DDF8080B00EB400084
:1034C000AAA951F820100391DDE90301FCF7F9FEE8
:1034D00005900322DDF8081BCF9802FB0100D0A95C
:1034E00051F82000014604900598FCF7E7FE06908D
:1034F0000799FCF7E0FE0146DDF8080B00EB400001
:10350000801CAAAA42F82010CF98801D0DF66821D1
:1035100051F820100791DDF8080B00EB4000801CEB
:10352000AAA951F820100691DDE90601FCF7FBFE7F
:103530000146DDF8080B00EB4000801CAAAA42F807
:103540002010DDF8540A801D0DF6682151F8201076
:103550000691DDF8080B00EB4000801CAAA951F889
:1035600020100591DDE90501FCF7ABFE0790DDF8C1
:10357000080B00EB4000AAA951F820000146069074
:103580000798FCF79BFE0146DDF8080B00EB4000B6
:10359000AAAA42F82010DDF8F80A801D0DF668216D
:1035A00051F820100691DDF8080B00EB4000801C5C
:1035B000AAA951F820100591DDE90501FCF781FE6B
:1035C0000790DDF8080B00EB4000401CAAA951F859
:1035D0002000014606900798FCF770FE0146DDF8D2
:1035E000080B00EB4000401CAAAA42F82010DDF8AE
:1035F000F80AC01C0DF6682151F820100791DDF87B
:10360000080B00EB4000401CAAA951F820100691BD
:10361000DDE90601FCF787FE0146DDF8080B00EB4B
:103620004000401CAAAA42F82010DDF8540AC01C31
:103630000DF6682151F820100691DDF8080B00EB1B
:103640004000401CAAA951F820100591DDE90501B0
:10365000FCF737FE0790DDF8080B00EB4000AAA945
:1036600051F82000014606900798FCF727FE014616
:10367000DDF8080B00EB4000AAAA42F820100DF676
:103680006821DDF8540A51F820100791DDF8080B85
:1036900000E0CDE100EB4000AAA951F8201006910E
:1036A000DDE90601FCF73FFE0146DDF8080B00EB03
:1036B0004000AAAA42F82010DDF8080B401CCDF803
:1036C000080BDDF8080B0C28FFF69EAE0020CDF8A5
:1036D000F80A25E00020CDF8080B18E00322DDF8F9
:1036E000F81ADDF8080B02FB0010AAA951F82020F7
:1036F0000C23DDF8081BDDF8F80A03FB0010F7A91E
:1037000041F82020DDF8080B401CCDF8080BDDF84F
:10371000080B0C28E2DBDDF8F80A401CCDF8F80AAB
:10372000DDF8F80A0328D5DB0020CDF8F80A46E0DA
:103730000021CDF8581ACDF8081B24E00322DDF84B
:10374000F81ADDF8080B02FB0010FA490956084682
:103750000591FCF7AEFF0DF6F4120690DDF8080BAC
:1037600052F82000014605900698FCF7AAFD079044
:10377000DDF8581AFCF74DFDCDF8580ADDF8080BB6
:10378000401CCDF8080BDDF8080B0C28D6DBDDF863
:10379000201BDDF8F80A51F820100791DDF8581ABF
:1037A0000798FCF788FD01460DF6D422DDF8F80AEB
:1037B00042F82010DDF8F80A401CCDF8F80ADDF8D0
:1037C000F80A0328B4DB0020CDF8F80A40E0002115
:1037D000CDF8581ACDF8081B1FE00DF6D421DDF8FE
:1037E000080B51F8201006910C22DDF8F81A02FBA4
:1037F0000010F7A951F820100591DDE90501FCF74B
:1038000060FD0790DDF8581AFCF703FDCDF8580A63
:10381000DDF8080B401CCDF8080BDDF8080B032879
:10382000DBDB0DF6F411DDF8F80A51F820100791F2
:10383000DDF8581A0798FCF7ECFC0146BE4ADDF8A3
:10384000F80A42F82010DDF8F80A401CCDF8F80A12
:10385000DDF8F80A0C28BADB90210DF66410FCF7AD
:10386000CDFC0020CDF8080B0DE001220C21DDF885
:10387000080B01FB00000DF664110A54DDF8080B7B
:10388000401CCDF8080BDDF8080B0C28EDDB002000
:10389000CDF8F80A61E00020CDF8080B54E00021D3
:1038A000CDF8581ACDF8541A27E00322DDF8541A3F
:1038B000DDF8080B02FB00109E49095608460591E9
:1038C000FCF7F7FE06900C22DDF8F81ADDF8540A32
:1038D00002FB0010F7A951F8201005910698FCF79B
:1038E000F0FC0790DDF8581AFCF793FCCDF8580A65
:1038F000DDF8540A401CCDF8540ADDF8540A0328B8
:10390000D3DB0C22DDF8F81ADDF8080B02FB0010FF
:103910000DF66411095608460691FCF7CAFE079099
:10392000DDF8581AFCF7C7FC01460C23DDF8F82A2D
:10393000DDF8080B03FB0020804A42F82010DDF878
:10394000080B401CCDF8080BDDF8080B0C28A6DB93
:10395000DDF8F80A401CCDF8F80ADDF8F80A0C2862
:1039600099DB0020CDF8F80A5DE00020CDF8080BC7
:1039700050E000220C23DDF8F81ADDF8080B03FBF9
:1039800000106F4941F820200021CDF8541A38E08A
:103990000C22DDF8541ADDF8080B02FB001069490F
:1039A00051F820100691DDF8F81ADDF8540A02FBF0
:1039B0000010624951F820100591DDE90501FCF77E
:1039C00080FC07900C22DDF8081BDDF8F80A02FBEA
:1039D00001005B4951F82000014606900798FCF76A
:1039E00018FC01460C23DDF8F82ADDF8080B03FB70
:1039F0000020534A42F82010DDF8540A401CCDF84C
:103A0000540ADDF8540A0C28C2DBDDF8080B401C10
:103A1000CDF8080BDDF8080B0C28AADBDDF8F80A56
:103A2000401CCDF8F80ADDF8F80A0C289DDB23E3EA
:103A3000DDF8140B007801287BD1DDF8140B4078F9
:103A40000128F9D1DDF8140B80780028F4D1CDF8E5
:103A5000F80AC9E00020CDF8080B53E00022062345
:103A6000DDF8F81ADDF8080B03FB001062A941F835
:103A700020200021CDF8541A3BE00622DDF8F81A88
:103A8000DDF8540A02FB00102F490956084605913B
:103A9000FCF70FFE06900C22DDF8081BDDF8540A37
:103AA00002FB0100274951F82000014605900698C5
:103AB000FCF707FC07900622DDF8F81ADDF8080B82
:103AC00002FB001062A951F8201006910798FCF73C
:103AD000A0FB01460623DDF8F82ADDF8080B03FBFE
:103AE000002062AA42F82010DDF8540A401CCDF8EC
:103AF000540ADDF8540A0C28BFDBDDF8080B401C23
:103B0000CDF8080BDDF8080B0C28A7DB0020CDF85A
:103B1000080B60E000220623DDF8F81ADDF8080B38
:103B200003FB0010F7A941F820200021CDF8541A1A
:103B300048E0A2E2291C030834220020E4260020E9
:103B400064220020642B0020711C03080C22DDF885
:103B5000541ADDF8080B02FB0010FE49095608460E
:103B60000591FCF7A6FD06900622DDF8F81ADDF8AF
:103B7000540A02FB001062A951F820100591069822
:103B8000FCF79FFB07900622DDF8081BDDF8F80A1A
:103B900002FB0100F7A951F82000014606900798A2
:103BA000FCF737FB01460623DDF8F82ADDF8080BA1
:103BB00003FB0020F7AA42F82010DDF8540A401C4D
:103BC000CDF8540ADDF8540A0C28BFDBDDF8080BE9
:103BD000401CCDF8080BDDF8080B06289ADBDDF851
:103BE000F80A401CCDF8F80ADDF8F80A0628FFF6B6
:103BF00031AFDDF8341B5C91DDF8341B5D91DDF8ED
:103C0000341B5E91DDF8381B5F91DDF8381B609145
:103C1000DDF8381B61910021CDF8F81A1AE05CA993
:103C2000DDF8F80A51F82010C0EBC0000791F7A9A1
:103C300051F820100691DDE90601FCF7EAFA014689
:103C400056AADDF8F80A42F82010DDF8F80A401C00
:103C5000CDF8F80ADDF8F80A0628E0DB0020CDF8F8
:103C6000F80A0EE056A9DDF8F80A51F82010C0EB6A
:103C7000C000F7AA42F82010DDF8F80A401CCDF881
:103C8000F80ADDF8F80A0628ECDB0020CDF8F80A7F
:103C900060E00020CDF8080B53E000220C23DDF893
:103CA000F81ADDF8080B03FB001062A941F8202088
:103CB0000021CDF8541A3BE00C22DDF8541ADDF84F
:103CC000080B02FB0010A349095608460591FCF7B2
:103CD000F0FC06900C22DDF8F81ADDF8540A02FB1D
:103CE00000109D4951F8201005910698FCF7E9FA5B
:103CF00007900C22DDF8081BDDF8F80A02FB010032
:103D000062A951F82000014606900798FCF781FA55
:103D100001460C23DDF8F82ADDF8080B03FB002030
:103D200062AA42F82010DDF8540A401CCDF8540A6B
:103D3000DDF8540A0C28BFDBDDF8080B401CCDF879
:103D4000080BDDF8080B0628A7DBDDF8F80A401C95
:103D5000CDF8F80ADDF8F80A0C289ADB0EAAF7A9C4
:103D600062A80AF07FFF0020CDF8F80A44E00021A5
:103D7000CDF8581ACDF8081B23E00622DDF8F81A12
:103D8000DDF8080B02FB001074490956084605913E
:103D9000FCF78FFC0DF6F4110690DDF8080B51F8D6
:103DA000201005910698FCF78CFA0790DDF8581A58
:103DB000FCF72FFACDF8580ADDF8080B401CCDF8B7
:103DC000080BDDF8080B0C28D7DBDDF8201BDDF82D
:103DD000F80A51F820100791DDF8581A0798FCF7F7
:103DE0006AFA01465CAADDF8F80A42F82010DDF80C
:103DF000F80A401CCDF8F80ADDF8F80A0628B6DB08
:103E00000020CDF8F80A3FE00021CDF8581ACDF88F
:103E1000081B1EE05CA9DDF8080B51F82010069184
:103E20000C22DDF8F81A02FB00100EA951F8201040
:103E30000591DDE90501FCF744FA0790DDF8581A11
:103E4000FCF7E7F9CDF8580ADDF8080B401CCDF86F
:103E5000080BDDF8080B0628DCDB0DF6F411DDF8A5
:103E6000F80A51F820100791DDF8581A0798FCF766
:103E7000D0F901463A4ADDF8F80A42F82010DDF898
:103E8000F80A401CCDF8F80ADDF8F80A0C28BBDB6C
:103E900090210DF66410FCF7B1F90020CDF8080B65
:103EA0000DE001220C21DDF8080B01FB00000DF6EE
:103EB00064110A54DDF8080B401CCDF8080BDDF83E
:103EC000080B0C28EDDB0020CDF8F80A6AE0002092
:103ED000CDF8080B5DE00021CDF8581ACDF8541A42
:103EE00027E00622DDF8541ADDF8080B02FB00106B
:103EF0001A49095608460591FCF7DBFB06900C228F
:103F0000DDF8F81ADDF8540A02FB00100EA951F88A
:103F1000201005910698FCF7D4F90790DDF8581A9F
:103F2000FCF777F9CDF8580ADDF8540A401CCDF8B3
:103F3000540ADDF8540A0628D3DB0C22DDF8F81AFF
:103F4000DDF8080B02FB00100DF664110956084657
:103F5000069107E0B91C0308642B0020711C0308BC
:103F600034220020FCF7A5FB0790DDF8581AFCF777
:103F7000A2F901460C23DDF8F82ADDF8080B03FB53
:103F80000020FE4A42F82010DDF8080B401CCDF856
:103F9000080BDDF8080B0C289DDBDDF8F80A401C47
:103FA000CDF8F80ADDF8F80A0C2890DB0020CDF8EF
:103FB000F80A5DE00020CDF8080B50E000220C2349
:103FC000DDF8F81ADDF8080B03FB0010EC4941F8A6
:103FD00020200021CDF8541A38E00C22DDF8541AC4
:103FE000DDF8080B02FB0010E64951F8201006919D
:103FF000DDF8F81ADDF8540A02FB0010DF4951F829
:1040000020100591DDE90501FCF75BF907900C2212
:10401000DDF8081BDDF8F80A02FB0100D84951F869
:104020002000014606900798FCF7F3F801460C23A0
:10403000DDF8F82ADDF8080B03FB0020D04A42F82F
:104040002010DDF8540A401CCDF8540ADDF8540A5B
:104050000C28C2DBDDF8080B401CCDF8080BDDF89E
:10406000080B0C28AADBDDF8F80A401CCDF8F80A8A
:10407000DDF8F80A0C289DDB75E3DDF8140B0078F9
:1040800001287BD1DDF8140B40780028F9D1DDF848
:10409000140B80780128F4D10020CDF8F80ABCE098
:1040A0000020CDF8080B52E000220623DDF8F81AB4
:1040B000DDF8080B03FB001062A941F82020002165
:1040C000CDF8541A3AE00622DDF8F81ADDF8540A61
:1040D00002FB0010AC49095608460591FCF7E9FAC5
:1040E00006900C22DDF8541ADDF8080B02FB0010D4
:1040F000A44951F8201005910698FCF7E2F80790C2
:104100000622DDF8F81ADDF8080B02FB001062A9A0
:1041100051F8201006910798FCF77BF8014606231A
:10412000DDF8F82ADDF8080B03FB002062AA42F84C
:104130002010DDF8540A401CCDF8540ADDF8540A6A
:104140000C28C0DBDDF8080B401CCDF8080BDDF8AF
:10415000080B0C28A8DB0020CDF8080B54E0002247
:104160000623DDF8F81ADDF8080B03FB0010F7A9A9
:1041700041F820200021CDF8541A3CE0D7E20C226F
:10418000DDF8541ADDF8080B02FB00107F490956D0
:1041900008460591FCF78DFA06900622DDF8F81A1C
:1041A000DDF8540A02FB001062A951F820100591B5
:1041B0000698FCF786F807900622DDF8081BDDF864
:1041C000F80A02FB0100F7A951F820000146069009
:1041D0000798FCF71EF801460623DDF8F82ADDF8FB
:1041E000080B03FB0020F7AA42F82010DDF8540A60
:1041F000401CCDF8540ADDF8540A0C28BFDBDDF86A
:10420000080B401CCDF8080BDDF8080B0628A6DBD0
:10421000DDF8F80A401CCDF8F80ADDF8F80A06289F
:10422000FFF63EAFDDF8341B5C91DDF8341B5D9189
:10423000DDF8341B5E91DDF83C1B5F91DDF83C1B23
:104240006091DDF83C1B61910021CDF8F81A1AE06D
:104250005CA9DDF8F80A51F82010C0EBC000079106
:10426000F7A951F820100691DDE90601FBF7D1FF0F
:10427000014656AADDF8F80A42F82010DDF8F80ADF
:10428000401CCDF8F80ADDF8F80A0628E0DB00202B
:10429000CDF8F80A0EE056A9DDF8F80A51F820101A
:1042A000C0EBC000F7AA42F82010DDF8F80A401C65
:1042B000CDF8F80ADDF8F80A0628ECDB0020CDF886
:1042C000F80A6AE00020CDF8080B52E000220C2327
:1042D000DDF8F81ADDF8080B03FB001062A941F8BD
:1042E00020200021CDF8541A3AE00C22DDF8541AAF
:1042F000DDF8080B02FB0010244909560846059119
:10430000FCF7D7F906900C22DDF8F81ADDF8540A0C
:1043100002FB00101B4951F8201005910698FBF78D
:10432000D0FF07900C22DDF8F81ADDF8080B02FB2D
:10433000001062A951F8201006910798FBF769FF59
:1043400001460C23DDF8F82ADDF8080B03FB0020FA
:1043500062AA42F82010DDF8540A401CCDF8540A35
:10436000DDF8540A0C28C0DBDDF8080B401CCDF842
:10437000080BDDF8080B0628A8DB09E0E42600207E
:1043800064220020642B0020011D0308491D03083E
:10439000DDF8F80A401CCDF8F80ADDF8F80A0C2818
:1043A00090DB0EAAF7A962A80AF05CFC0020CDF809
:1043B000F80A0DE0DDF8201BDDF8F80A51F82010AE
:1043C0005CAA42F82010DDF8F80A401CCDF8F80A83
:1043D000DDF8F80A0328EDDB0020CDF8F80A11E03B
:1043E000DDF8F80A811DDDF8200B50F821105CAAD9
:1043F000DDF8F80AC01C42F82010DDF8F80A401C6D
:10440000CDF8F80ADDF8F80A0328E9DB0020CDF83A
:10441000F80A54E0002156AADDF8F80A42F8201004
:10442000CDF8081B2EE00622DDF8F81ADDF8080B9F
:1044300002FB0010FE49095608460591FCF739F9C0
:104440000DF6F4120690DDF8080B52F82000014634
:1044500005900698FBF735FF56AA0790DDF8F80A95
:1044600052F82000014606900798FBF7D2FE01465D
:1044700056AADDF8F80A42F82010DDF8080B401CB7
:10448000CDF8080BDDF8080B0C28CCDB56A9DDF8BD
:10449000F80A51F8201007915CA951F820100691F4
:1044A000DDE90601FBF707FF014608AADDF8F80A77
:1044B00042F82010DDF8F80A401CCDF8F80ADDF8C3
:1044C000F80A0628A6DB0020CDF8F80A3FE0002114
:1044D000CDF8581ACDF8081B1EE008A9DDF8080B26
:1044E00051F8201006910C22DDF8F81A02FB00109A
:1044F0000EA951F820100591DDE90501FBF7E1FE59
:104500000790DDF8581AFBF784FECDF8580ADDF85D
:10451000080B401CCDF8080BDDF8080B0628DCDB87
:104520000DF6F411DDF8F80A51F820100791DDF8C6
:10453000581A0798FBF76DFE0146BE4ADDF8F80AE7
:1045400042F82010DDF8F80A401CCDF8F80ADDF832
:10455000F80A0C28BBDB90210DF66410FBF74EFE29
:104560000020CDF8080B0DE001220C21DDF8080B2E
:1045700001FB00000DF664110A54DDF8080B401C25
:10458000CDF8080BDDF8080B0C28EDDB0020CDF88A
:10459000F80A61E00020CDF8080B54E00021CDF8C6
:1045A000581ACDF8541A27E00622DDF8541ADDF81F
:1045B000080B02FB00109E49095608460591FCF7BE
:1045C00078F806900C22DDF8F81ADDF8540A02FBA0
:1045D00000100EA951F8201005910698FBF771FE06
:1045E0000790DDF8581AFBF714FECDF8580ADDF8ED
:1045F000540A401CCDF8540ADDF8540A0628D3DBCF
:104600000C22DDF8F81ADDF8080B02FB00100DF69D
:104610006411095608460691FCF74BF80790DDF83F
:10462000581AFBF748FE01460C23DDF8F82ADDF89E
:10463000080B03FB0020804A42F82010DDF8080B2D
:10464000401CCDF8080BDDF8080B0C28A6DBDDF8C4
:10465000F80A401CCDF8F80ADDF8F80A0C2899DBB6
:104660000020CDF8F80A5DE00020CDF8080B50E0FE
:1046700000220C23DDF8F81ADDF8080B03FB00100C
:104680006E4941F820200021CDF8541A38E00C2260
:10469000DDF8541ADDF8080B02FB0010684951F8E8
:1046A00020100691DDF8F81ADDF8540A02FB00101C
:1046B000614951F820100591DDE90501FBF701FE84
:1046C00007900C22DDF8081BDDF8F80A02FB010058
:1046D0005A4951F82000014606900798FBF799FDCA
:1046E00001460C23DDF8F82ADDF8080B03FB002057
:1046F000524A42F82010DDF8540A401CCDF8540A02
:10470000DDF8540A0C28C2DBDDF8080B401CCDF89C
:10471000080BDDF8080B0C28AADBDDF8F80A401CB2
:10472000CDF8F80ADDF8F80A0C289DDB1BE0002024
:10473000CDF8080B0DE00DF6F411DDF8080B51F87B
:1047400020103C4A42F82010DDF8080B401CCDF840
:10475000080BDDF8080B0C28EDDB4FF4107238491C
:104760003648FBF732FD334818300BF0D4FECDF855
:10477000580A304824300BF0CEFECE900021CDF800
:10478000081B2BE02B49DDF8080B801D51F8200099
:1047900080F000410791DDF8581A0798FBF7C3FD38
:1047A00001460DF52E62DDF8080B42F82010214974
:1047B000DDF8080B093051F820100791CE990798C1
:1047C000FBF7B1FD01460DF6EC22DDF8080B42F8CF
:1047D0002010DDF8080B401CCDF8080BDDF8080BA5
:1047E0000328CFDBDDF8F01A0591DDF8E81A049113
:1047F000DDE90401FBF765FD0790DDF8F41A05918A
:10480000DDF8E41A0491DDE90401FBF75AFD069096
:104810000799FBF750FDCDF8B00ADDF8F41A0591C1
:10482000DDF8E01A0491DDE90401FBF74AFD09E037
:10483000011D030834220020E42600206422002009
:10484000642B00200790DDF8EC0A0590DDF8E80AFB
:1048500004900599FBF735FD06900799FBF72BFDB2
:10486000CDF8B40ADDF8EC1A0591DDF8E41A0491EC
:10487000DDE90401FBF725FD0790DDF8F00A05905E
:10488000DDF8E00A04900599FBF71BFD06900799F7
:10489000FBF711FDCDF8B80A0DF52B600BF03BFED0
:1048A000CDF8580A0021CDF8F81A17E00DF52B6164
:1048B000DDF8F80A51F820100791DDF8581A07982A
:1048C000FBF731FD01460DF52B62DDF8F80A42F8E1
:1048D0002010DDF8F80A401CCDF8F80ADDF8F80AD7
:1048E0000328E3DBDDF8E41A0591DDF8B81A04913A
:1048F000DDE90401FBF7E5FC0790DDF8E80A059027
:10490000DDF8B40A04900599FBF7DBFC06900799E3
:10491000FBF7D1FCCDF8EC0ADDF8E81A0591DDF8DB
:10492000B01A0491DDE90401FBF7CBFC0790DDF838
:10493000E01A0591DDF8B81A0491DDE90401FBF7EE
:10494000C0FC06900799FBF7B6FCCDF8F00ADDF83D
:10495000E01A0591DDF8B41A0491DDE90401FBF7D2
:10496000B0FC0790DDF8E40A0590DDF8B00A049089
:104970000599FBF7A6FC06900799FBF79CFCCDF880
:10498000F40A0DF6EC200BF0C6FDCDF8580A002114
:10499000CDF8F81A17E00DF6EC21DDF8F80A51F819
:1049A00020100791DDF8581A0798FBF7BCFC014668
:1049B0000DF6EC22DDF8F80A42F82010DDF8F80ACE
:1049C000401CCDF8F80ADDF8F80A0328E3DB0020E4
:1049D000CDF8080B0DE04A49DDF8080B51F820200E
:1049E000DDF8441B41F82020DDF8080B401CCDF811
:1049F000080BDDF8080B0C28EDDB4FF41072414971
:104A0000DDF8480BFBF7E1FB0021CDF8F81A24E0B4
:104A10000DF6EC21DDF8F80A51F82020DDF84C1BEA
:104A200041F820200DF52B61DDF8F80A51F820201F
:104A3000C11CDDF84C0B40F821200DF52E61DDF88E
:104A4000F80A51F82020811DDDF84C0B40F8212098
:104A5000DDF8F80A401CCDF8F80ADDF8F80A03285A
:104A6000D6DBDDF84C0B016A08460191FBF7CCFE62
:104A7000CDE90401DDF84C0BC0690190FBF7C4FEE1
:104A8000CDE90201DDE9042309F0FEFECDE90601CE
:104A9000FBF7E6FEDDF8501B0860DDF84C0B806983
:104AA0000390FBF7B1FECDE9040109F013FCCDE959
:104AB0000601FBF7D5FE80F00042DDF8500B4260A6
:104AC000DDF84C0B00680190FBF79EFECDE9040178
:104AD000DDF84C0BC16808460191FBF795FECDE966
:104AE0000201DDE9042309F0CFFECDE90601FBF761
:104AF000B7FEDDF8501B88600DF61C3D00BD0000C0
:104B00003422002064220020002006E0094951F8E8
:104B10002010094A42F82010401C0C28F6DB002027
:104B200004E00649064A42F82010401C9028F8DBB1
:104B300070470000F41A03083422002000004843A4
:104B40006422002010B50020034908700349087052
:104B5000FFF7DAFF10BD0000770300207603002086
:104B60002DE9FE4F9A4A116C9A4A506AFBF7A3FB53
:104B70000290974AD16B974AD06EFBF79CFB01904D
:104B8000934A516C934AD2F8B400FBF794FB00901F
:104B90009049486B0299FBF73CFB01468D48416305
:104BA0000146C86F0199FBF734FB01468948C1678C
:104BB0000146D1F8C4000099FBF72BFB014685485C
:104BC000C0F8C4100146844A486B84490AF088FA48
:104BD00001468048416301467F4AC86F7F490AF019
:104BE0007FFA01467B48C16701467B4AD1F8C40081
:104BF0007A490AF075FA01467648C0F8C4100146B1
:104C0000886A0299FBF75DFB01467248C163014661
:104C1000086F0199FBF755FB01466E48C0F88410F8
:104C20000146D1F8B8000099FBF74BFB01466948F3
:104C3000C0F8CC100246516BD06AFBF742FB01462C
:104C4000644801640246D16F506FFBF73AFB01469E
:104C50006048C0F888100246D2F8C410D2F8BC00F0
:104C6000FBF72FFB01465B48C0F8D010584A116C87
:104C7000D06CFBF720FB05465648016B2846FBF736
:104C800020FB04465649FBF71CFB01465148416492
:104C90004F4AD16B906CFBF70EFB05464D48816F78
:104CA0002846FBF70EFB04464D49FBF70AFB01467D
:104CB0004848C0F88C10464A516C106DFBF7FBFA5F
:104CC00005464448D0F8C0102846FBF7FAFA0446D7
:104CD0004349FBF7F6FA01463E48C0F8D4103C4879
:104CE000016CC164C16B8164416C0165394A116C0E
:104CF000D06BFBF78EFA04463648416C2046FBF732
:104D000088FA0146334881640246D2F88810D2F806
:104D10008400FBF77EFA04462E48D0F88C1020461B
:104D2000FBF777FA01462B48C0F890100246D2F8FC
:104D3000D410D2F8CC00FBF76CFA01462548C0F835
:104D4000D8100146486A4FF08041FBF7ECFA8246E2
:104D5000FBF75AFD06460F461E49886CFBF754FDCB
:104D60008246204A204BFBF7C3FB804632463B4637
:104D7000FBF717FB0446FBF773FD014615488164FA
:104D80000146C86E4FF08041FBF7CDFA8046FBF735
:104D90003BFD04460D460F49D1F89000FBF734FD6A
:104DA0008046104A104BFBF7A3FB064622462B46D3
:104DB000FBF7F7FA8246FBF753FD01460548C0F8BA
:104DC0009010D0F8D810C0F8D810BDE8FE8F0000C1
:104DD000701E00207C3000200000A0C10000A04117
:104DE000000004429A9999999999E93F2DE9F04771
:104DF00004460D4681492846FBF75DFA8046804906
:104E00000BF073FB07467F49FBF75BFA06467E49CA
:104E1000FBF789FA7D4908607D497C480068FBF70B
:104E20003BFD01D27A4809E0764978480068FBF7F3
:104E30003DFD01D2734801E0744800687349086081
:104E4000744975480068FBF731FD09D200216F48AD
:104E50000068FBF72BFD12D200206C4908600EE0C1
:104E60006E496D480068FBF717FD08D200216748BE
:104E70000068FBF711FD02D2002064490860634816
:104E800001682046FBF71DFA064663480168304674
:104E9000FBF7BFF960490860614801685E48006837
:104EA000FBF709FA06465F4801683046FBF709FA46
:104EB0005D490860084600685C4948615A4A1168C3
:104EC000584A9068FBF7FDF907462146FBF7F9F9C8
:104ED00006465548C1683046FBF79BF95249C86001
:104EE0005348006880F0004746493846FBF7E9F927
:104EF00006464D48C1683046FBF7D8FC08D24C48FE
:104F0000006880F000463F493046FBF7DAF913E0CD
:104F10003C4947480068FBF7D4F906464248C16857
:104F20003046FBF7B9FC05D2364941480068FBF72B
:104F3000C8F901E03C48C0683B49C8603B4988610A
:104F4000394A51681068FBF7B6F906463949FBF74C
:104F5000B8F93649C861344A51681068FBF7ABF9B3
:104F600081463449FBF7ADF907463348006880F0C5
:104F7000004A21465046FBF7A4F981462F49FBF72A
:104F8000A0F980463946FBF744F9064625484168B2
:104F90003046FBF796F92449886008468068234923
:104FA0000862214AD1681068FBF733F906461E48AB
:104FB00081683046FBF72DF91B49086108691449DF
:104FC000FBF76AFC01D2124809E0174908690D494C
:104FD000FBF76CFC01D20B4801E013480069124951
:104FE00008610846006916490860104948620E4881
:104FF00000680D494860BDE8F08700000000FA43F2
:105000000000C842000096430000C843800500200D
:10501000000096C30000FA458405002000007A4491
:10502000B4050020A4350020903500200C34002069
:1050300038050020CDCCCC3E980500209A99193F28
:10504000BC050020044805490860002088604FF036
:105050007F504860704700009A99193EA43500209F
:105060002DE9F05F0446764805210268022004F02D
:105070002FFB814673494846FBF70EFC42D272482B
:1050800001684846FBF717F906460021FBF70EFCBE
:1050900005D26D4801684846FBF70DF906E06A48FD
:1050A00001684846FBF707F980F00040054667496C
:1050B000FBF7F2FB27D2644801684846FBF7FBF890
:1050C000824663492046FBF7FCF8834659464FF079
:1050D0007E50FBF728F980464FF07E51FBF799F898
:1050E000074639464FF07E50FBF71DF906465146FC
:1050F000FBF7E7F80546544801682846FBF789F8AE
:10510000514908606AE0504801684846FBF7D3F807
:1051100006460021FBF7CAFB05D24B48016848460A
:10512000FBF7C9F806E0484801684846FBF7C3F8B2
:1051300080F0004005464749FBF7AEFB27D24248C6
:1051400001684846FBF7B7F8824643492046FBF71B
:10515000B8F8834659464FF07E50FBF7E4F8804696
:105160004FF07E51FBF755F8074639464FF07E5019
:10517000FBF7D9F806465146FBF7A3F80546324837
:1051800001682846FBF745F82F49086026E02E48BD
:1051900001684846FBF78FF8824630492046FBF706
:1051A00090F8834659464FF07E50FBF7BCF8804696
:1051B0004FF07E51FBF72DF8074639464FF07E50F1
:1051C000FBF7B1F806465146FBF77BF805461E484B
:1051D00001682846FBF71DF81B4908601A4800685B
:1051E0001F4988600846C1681E480068FBF763F8DD
:1051F000824619492046FBF764F8834659464FF02A
:105200007E50FBF790F880464FF07E51FBF701F897
:10521000074639464FF07E50FBF785F80546514664
:10522000FBF74FF806460E48C1683046FAF7F1FF23
:105230000B49C8600C4800680861BDE8F09F000099
:10524000A80500200000FA45B40500200000C8426F
:10525000C3F5C8400000FA43C3F54840C3F5C83F52
:105260000C3400202C020020C805002008B5064898
:105270000649086040F20550009001226946024844
:10528000103805F09DFE08BD0000020808ED00E0A2
:1052900000BFFEE70146CAB20B1243EA0220704784
:1052A0002DE9FF416048007802287DDB5F4A1168E4
:1052B0000098FBF700F806465B4908693146FAF7A3
:1052C000A8FF594908610846406980F000450A4630
:1052D000516910692A4609F003FF534908610A46DB
:1052E00011699068FAF7EDFF05464F494868314665
:1052F000FAF7E7FF80462946FAF78BFF4A494862EA
:105300004A4A51680198FAF7D6FF07464649886D20
:105310003946FAF77EFF444988650846C06D80F03B
:1053200000450A46D16D906D2A4609F0D9FE3E49E6
:1053300088650A46916D106DFAF7C3FF05463A4934
:10534000C86C3946FAF7BDFF80462946FAF761FF77
:105350003549C866354A91680298FAF7ACFF0546A8
:105360003349FBF7A3FA09D3304A91680298FAF758
:10537000A2FF05462F49FBF78FFA36D2002102988B
:10538000FBF794FA16D2294988680021FBF784FAC2
:1053900010D227490298FAF78EFF05462348816804
:1053A0002448FAF788FF00E030E080462946FAF703
:1053B00030FF044600210298FBF76EFA1BD21B490E
:1053C00088680021FBF772FA15D219490298FAF79A
:1053D00020FF0546154881681548FAF76CFF80469E
:1053E0002946FAF716FF044605E0104A916802982C
:1053F000FAF761FF04460C49D1F894002146FAF708
:1054000060FF0949C1F8B400002008700648007820
:10541000401C05490870FFF7A3FB074807F074FA22
:1054200003F0DCFFBDE8FF817C300020642F00200A
:1054300000003443000034C30AD7233B08B50020E2
:10544000009022E19748008800F00F00964908700C
:105450000846007800287CD1944800689449088068
:105460000846008800F03000924908809048008883
:1054700000F440508E4908808C4909684BF6BF7291
:1054800001EA020080F4005080F0200040F4004166
:1054900041F08001854A11608248008800F01000C8
:1054A00090BB1046006848F60F710840114608602E
:1054B00002F0A2FF7D4909684BF6BF7201EA0200C3
:1054C0007B49098801F4805109B180F48050784902
:1054D000098801F4005109B180F400507549098828
:1054E00001F0100109B180F010007249098801F043
:1054F000200109B180F0200081B241F4004141F067
:1055000080016A4A116008BDFFE76848006880B200
:105510000090BDF8000000F40060B0B3634800687C
:10552000C0F30E0048F68F7108406049086005F02E
:105530009BFF5E4909684BF6BF7201EA02005C49B5
:10554000098801F4805109B180F4805058490988D4
:1055500000E056E001F4005109B180F400505549D3
:10556000098801F0100109B180F010005149098843
:1055700001F0200109B180F0200081B241F4004126
:1055800041F08001494A1160BDE7FFE7BDF8000026
:1055900000F40040002878D044480068C0F30E00B2
:1055A00048F68F7108404149086004F0B3FE3F4956
:1055B00009684BF6BF7201EA02003D49098801F40F
:1055C000805109B180F480503949098801F40051B3
:1055D00009B180F400503749098801F0100109B180
:1055E00080F010003349098801F0200109B180F0F2
:1055F000200081B241F4004141F080012B4A11604A
:1056000081E7294800782C4901EB8000D0F8000C94
:1056100080B20090BDF8000000F40040C0B1224804
:10562000007801EB8000D0F8000CC0F30E0048F6C3
:105630008F7108401C4909781F4A02EB8101C1F8AB
:10564000000C19490978491E1C4A52F8210080476C
:10565000BDF8000000F08000B8B11348007816498A
:1056600001EB8000D0F8000C48F60F7108400E499D
:105670000978114A02EB8101C1F8000C0A49097846
:10568000491E0F4A52F821008047084844300068FC
:1056900080B20449088000F4004000287FF4D2AEB4
:1056A00000BF30E75000002018000020005C0040E0
:1056B0002C0000202E000020005000407000002030
:1056C000540000202DE9F04100244148B0F91200B7
:1056D00040F2DC51091A3E48B0F91800C0EBC00096
:1056E000143091FBF0F52846FAF7E3FF39490860DA
:1056F0003748B0F91000A0F2DC503549B1F9181064
:10570000C1EBC101143190FBF1F52846FAF7D1FF46
:10571000304948602E48B0F9140040F27E4188427A
:105720000BDD2D48807901280ED001202A4988718F
:105730002A4880682749886006E000202649887149
:1057400026488068234988602148B0F9160040F255
:10575000FA51884206DC1E48B0F9160040F2BE51EC
:10576000884232DA1A48C08A40F2DC51081A04B280
:105770002046FAF79EFF07461949FAF7D4FD064678
:105780001849FAF79EFD0546124881682846FAF73F
:1057900040FD1049886088681349FBF787F807D2F5
:1057A0000C4988681149FAF786FD0A4988600CE0BF
:1057B000084988680E49FBF76FF806D205498868E2
:1057C0000A49FAF726FD03498860BDE8F081000028
:1057D000A42D002058310020302E0020642F0020FE
:1057E00000004843CDCCCC3D000034430000B4431E
:1057F000000034C30B4A02EB8001D1F8001C01F415
:10580000804171B102EB8001D1F8001C48F68F7223
:1058100011404CF280021143024B03EB8002C2F8AC
:10582000001C7047005000400B4A02EB8001D1F889
:10583000001C01F0400171B102EB8001D1F8001CA5
:1058400048F68F72114048F2C0021143024B03EB3D
:105850008002C2F8001C704700500040084A02EB6A
:105860008001D1F8001C48F68F62114048F2800296
:105870001143034B03EB8002C2F8001C7047000089
:105880000050004010B54FF4005000F007F8002021
:105890000149087010BD00007804002000F080511C
:1058A00011B10349086001E00249486070470000F7
:1058B000040402400000024021B1026842F00102EB
:1058C000026004E002684FF6FE731A4002607047FF
:1058D00001684FF6FE7211400160002101604160D5
:1058E0008160C1604B49884208D14A4908394968FA
:1058F00041F00F01474A083A51608AE045491431A6
:10590000884208D143490839496841F0F001414AC9
:10591000083A51607DE03F492831884208D13D492D
:105920000839496841F470613A4A083A516070E0B8
:1059300038493C31884208D136490839496841F430
:105940007041344A083A516063E03249503188422C
:1059500008D130490839496841F470212D4A083A84
:10596000516056E02B496431884208D129490839F1
:10597000496841F47001274A083A516049E02549D5
:105980007831884208D123490839496841F070616B
:10599000204A083A51603CE01F49884206D1011F65
:1059A000096841F00F01021F116032E01A491431F9
:1059B000884208D11849091F096841F0F001164AC8
:1059C000121F116025E014492831884208D112497C
:1059D000091F096841F470610F4A121F116018E035
:1059E0000D493C31884208D10B49091F096841F42F
:1059F0007041094A121F11600BE00749503188427B
:105A000007D10549091F096841F47021024A121F94
:105A10001160704708000240080402401AB1036890
:105A20000B43036002E003688B430360704710B5CB
:105A30000022026847F6F0739A430C6A8B6823438E
:105A40000C6923434C6923438C692343CC6923436A
:105A50004C6A23438C6A23431A430260CB68436039
:105A60000B6883604B68C36010BD000000B58BB04D
:105A70001448FFF72DFF144800901448019010209F
:105A80000290134800780390002004908020059035
:105A900000200690079008904FF480500990002055
:105AA0000A9069460748FFF7C2FF01220221054814
:105AB000FFF7B4FF012280210348001F07F04BF9D4
:105AC0000BB000BD44000240043801403201002008
:105AD000370100202DE9F0472848006800F1100543
